:100000000C9402040C9410290C9441290C9472292C
:100010000C94A6290C94DA290C940B2A0C943C2AF3
:100020000C946D2A0C942C040C942C040C942C0429
:100030000C949E2A0C942C040C942C040C94FA2AF4
:100040000C942C040C942C040C942C040C942C0470
:100050000C942C040C942C040C942C040C94D52A91
:100060000C942C040C94312E0C942C040C942C0421
:100070000C942C040C942C040C942C040C942C0440
:100080000C942C040C942C040C942C040C942C0430
:100090000C94722E0C942C040C942C040C94184088
:1000A0000C942C040C942C040C942C040C942C0410
:1000B0000C942C040C942C040C942C040C942C0400
:1000C0000C942C040C942C040C942C04F928FB287C
:1000D000FD28FF2801290629032905299430A3308A
:1000E000C230D130E030EF30FE307F318B3197318C
:1000F000A331A531B131BD31C931D531E131ED3156
:10010000F9310532113207634236B79BD8A71A3945
:10011000685618AEBAAB558C1D3CB7CC5763BD6D55
:10012000EDFD753EF6177231BF000000803F0800FC
:100130000000BE922449123EABAAAA2ABECDCCCC66
:100140004C3E00000080BEABAAAAAA3E0000000000
:10015000BF000000803F0000000000084178D3BBD2
:100160004387D1133D190E3CC3BD4282AD2B3E687F
:10017000EC8276BED98FE1A93E4C80EFFFBE01C470
:10018000FF7F3F0000000000205061005072657347
:10019000737572653A200020250052483A200020ED
:1001A00043656C736975730054656D706572617435
:1001B0007572653A20002070706D004E4F3A200035
:1001C0002070706D00434F3A20002070706D005316
:1001D0004F323A20002070706D004348343A2000BE
:1001E0002070706D00434F323A20003E3E3E004189
:1001F0004443204E5F524459001F856B3F8FC275A8
:100200003F0000803FEC51783F3333733F3333334B
:100210003F6666663F0000803F1F858B3F00008081
:100220003FCDCCCC3E3333333F0000803F3333935C
:100230003F0000A03FCDCC4C3E0000003F000080BE
:100240003F666606403333334052B85E3F33337304
:100250003F0000803F0000803F0000803F9A995996
:100260003F1F856B3F0000803F0000803F00008003
:100270003FCDCC4C3F0000803F0000803FB81E8542
:100280003FB81E853F6666663F0000803F000080E5
:100290003F0000803F0000803F3333333FCDCC4CE4
:1002A0003F0000803F14AE873F295C8F3FCDCC4C90
:1002B0003FCDCC4C3F0000803FCDCC8C3F0000A018
:1002C0003F6666663F8FC2753F0000803FC3F5887A
:1002D0003FC3F5883FCDCC4C3F6666663F0000804B
:1002E0003F6666863F6666863F6666663F000080BC
:1002F0003F0000803F6666863F0000803F3D0A87E2
:100300003FE17A843F0000803F85EB813F00008021
:100310003F3333333F1F856B3F0000803F00008039
:100320003F1F856B3F0000803F0000803F00008042
:100330003F0000803F0000803F3333333FB81E450D
:100340003F0000803FCDCC8C3FD7A3903FCDCCCC9D
:100350003ECDCC4C3F0000803F9A99993F6666A6FF
:100360003FE17A543F3333733F0000803FA4707DF8
:100370003F8FC2753FB81E053FCDCC4C3F0000807B
:100380003F295C8F3F3D0A973F00000000000000BE
:1003900000CDCC4CBD9A9999BE9A9999BE000000A7
:1003A00000000000009A9999BE000080BF00000084
:1003B00000713D2A400000A040000000C000000085
:1003C0000000000000000020C0000000000000004D
:1003D00000000000000AD723BD000000000000005C
:1003E000000000804000007041000000000000009C
:1003F00000CDCCCCBDCDCCCC3D000080BE000000FB
:1004000000E17AD43F000040409A9919BF000000F3
:10041000000000804000001041CDCCCC3D00000029
:1004200000000000BF9A99D9BF0000000000000042
:1004300000000000000000000000000000000000BC
:10044000009A99193ECDCCCC3E000000000000007F
:1004500000CDCC4C3E9A99193F00000000000000EE
:100460000000000000000000000AD7233CCDCCCCE7
:100470003C8FC2F53D0000803E00000000000000FF
:10048000000000000000000000F4FD543C6F1283E7
:100490003C1283403DB81E053E8FC2753C0AD723EF
:1004A0003D9A99193E6666A63E000000000AD723D1
:1004B0003CCDCCCC3D6666663E00000000CDCCCC89
:1004C000BC9A9999BD9A9919BE470523051C051533
:1004D000050E0507050005F904F404E804DF04240B
:1004E000505352463139350024505352463132353B
:1004F0002A30300025730D0A002447505654470017
:10050000244750474C4C002447504753560024473B
:100510005047534100244750474741002447505219
:100520004D430024505352463130342C25732C2532
:10053000732C25732C25732C25732C25732C257374
:100540002C25732A30300024505352463130302C41
:10055000302C3131353230302C382C312C302A309F
:100560003000EE06D906C306B306A6069C068C0626
:10057000770660064E0642063B0629061606090661
:10058000FF05EF05CC05C6059D058C055B253032C2
:10059000753A253032753A253032755D0025303296
:1005A0007525632530327525632530327525632521
:1005B0003032752563253032752563253032752537
:1005C0006325303275006572726F720025732C20BE
:1005D000253032752F253032752F253032752C207D
:1005E000253032753A253032753A25303275004F54
:1005F0006E636520706572206D696E757465005B51
:100600006D6D5D202D2D3E20005B68683A6D6D5D3F
:10061000202D2D3E20005B446174652C2068683AD3
:100620006D6D5D202D2D3E20005B4461792C20688E
:10063000683A6D6D5D202D2D3E20005B25303275B2
:100640005D005B253032753A253032755D005B25E3
:100650003032752C20253032753A253032755D00E8
:100660005B253032752C20253032753A25303275B5
:100670003A253032755D00496E636F72726563743E
:1006800020616C61726D206D6F6465004F6E6365F3
:1006900020706572207365636F6E64005B73735DB9
:1006A000202D2D3E20005B6D6D3A73735D202D2D46
:1006B0003E20005B68683A6D6D3A73735D202D2DA6
:1006C0003E20005B446174652C2068683A6D6D3A89
:1006D00073735D202D2D3E20005B4461792C2068D2
:1006E000683A6D6D3A73735D202D2D3E2000416C8C
:1006F00061726D206D61746368657320000000088D
:1007000009000000000000000000000000000000E0
:1007100000000000000000000000000000000000D9
:1007200000000000000000000000000000000000C9
:100730000000010208101020408004081020400230
:1007400002040810204080010280204004200101A2
:100750000204081020014080408001020804088043
:100760000410040201081005050505030303030135
:100770000101040403060606060606060601040532
:100780000105010302020202020201020205050440
:1007900004030404010304070707070700202326B6
:1007A000292C2F32002225282B2E313400212427FA
:1007B0002A2D30334E414E494E495459494E46CD6B
:1007C000CCCC3D0AD7233C17B7D13877CC2B329508
:1007D00095E6241FB14F0A000020410000C84200E6
:1007E000401C4620BCBE4CCA1B0E5AAEC59D7400B0
:1007F0000C06E61EE82827344334FC3483365A3D81
:100800005041764311241FBECFEFD1E2DEBFCDBFF2
:1008100013E0A0E0B2E0ECEFF0EA00E00BBF02C0B2
:1008200007900D92A033B107D9F72EE0A0E3B3E013
:1008300001C01D92A33AB207E1F713E0C2E0D4E091
:1008400004C02197FE010E944349C83FD107C9F760
:100850000E94683D0C947C500C9400008BE699E05B
:100860000E94043561E08EE00E947E2C8EE794E0C9
:100870000E94451480E090E0A0E8BFEB809336032F
:1008800090933703A0933803B09339038AE194E03F
:100890000E94451486EB93E00E94451482E593E0A4
:1008A0000E94451461E08EE00E94992C85EE94E050
:1008B0000E94331B87E197E00E94053441E06CE021
:1008C0008FE699E00E94863689E195E00C94232713
:1008D0008EE794E00E941516609332037093330301
:1008E00080933403909335038AE194E00E941516B7
:1008F00060933A0370933B0380933C0390933D03D2
:1009000086EB93E00E9415166093420370934303B5
:10091000809344039093450382E593E00E9415166B
:1009200060933E0370933F03809340039093410391
:1009300040E065E085EE94E00E94591B60934E0311
:1009400070934F03809350039093510365E085EEBD
:1009500094E00E94A01D60934A0370934B03809320
:100960004C0390934D0340E065E085EE94E00E94D7
:10097000491C609346037093470380934803909308
:1009800049034AE050E060E070E089E195E00E94B0
:1009900075278093E204882321F089E195E00E9485
:1009A00070286BEE71E08BE699E00E946C3665EE84
:1009B00071E08BE699E00E944436409136035091F5
:1009C000370360913803709139038BE699E00E94F8
:1009D000363660EE71E08BE699E00E946C366AED87
:1009E00071E08BE699E00E944436409132035091C9
:1009F000330360913403709135038BE699E00E94D4
:100A0000363665ED71E08BE699E00E946C366FEC4E
:100A100071E08BE699E00E94443640913A03509190
:100A20003B0360913C0370913D038BE699E00E948B
:100A300036366AEC71E08BE699E00E946C3665EC24
:100A400071E08BE699E00E94443640914203509158
:100A5000430360914403709145038BE699E00E9443
:100A6000363660EC71E08BE699E00E946C366BEBF9
:100A700071E08BE699E00E94443640913E0350912C
:100A80003F0360914003709141038BE699E00E941F
:100A9000363666EB71E08BE699E00E946C3668EAC8
:100AA00071E08BE699E00E94443640914E035091EC
:100AB0004F0360915003709151038BE699E00E94BF
:100AC00036366FE971E08BE699E00E946C366AE990
:100AD00071E08BE699E00E94443640914A035091C0
:100AE0004B0360914C0370914D038BE699E00E949B
:100AF000363667E971E08BE699E00E946C366CE867
:100B000071E08BE699E00E94443640914603509193
:100B1000470360914803709149038BE699E00E9476
:100B2000363668E871E08BE699E00E946C36809179
:100B3000E20460E772E08823D9F18BE699E00E9435
:100B40006B354091930668E876E089E195E00E9474
:100B5000DF27AB01BC018BE699E00E9439366BE7D9
:100B600072E08BE699E00E946B3540919F0664E944
:100B700076E089E195E00E94DF27AB01BC018BE6BE
:100B800099E00E94393667E872E08BE699E00E94AE
:100B90006B3566E676E08BE699E00E948B3562E97C
:100BA00072E08BE699E00E946B3566E676E02AC03B
:100BB0008BE699E00E946B356DE972E08BE699E077
:100BC0000E948B356BE772E08BE699E00E946B35F3
:100BD0006DE972E08BE699E00E948B3567E872E080
:100BE0008BE699E00E946B356DE972E08BE699E047
:100BF0000E948B3562E972E08BE699E00E946B35CA
:100C00006DE972E08BE699E00E948B3560EA72E054
:100C10008BE699E00C946B3561E070E08EE794E030
:100C20000E940D0964E070E08AE194E00E940D09E1
:100C300065E070E086EB93E00E940D0966E070E0ED
:100C400082E593E00C940D090F93CF93DF931F92ED
:100C5000CDB7DEB700E09E012F5F3F4F40E068E474
:100C600080E799E00E94F03C811104C081E0998105
:100C7000911101C080E00F90DF91CF910F91089505
:100C80000F9300E020E041E068E480E799E00E94F3
:100C9000673C0F910895EF920F93CF93DF931F92CC
:100CA000CDB7DEB783E0E82E02E09E012F5F3F4F15
:100CB00040E168E480E799E00E94183D811101C09D
:100CC00089810F90DF91CF910F91EF900895EF926E
:100CD0000F93CF93DF931F92CDB7DEB782E0E82E5C
:100CE00005E09E012F5F3F4F41E168E480E799E016
:100CF0000E94183D811101C089810F90DF91CF9131
:100D00000F91EF9008950F93CF93DF931F92CDB77C
:100D1000DEB707E09E012F5F3F4F41E168E480E7C7
:100D200099E00E94F03C811101C089810F90DF9110
:100D3000CF910F9108950F93CF93DF931F92CDB76B
:100D4000DEB7660F660F460F49830E94400601E03A
:100D50009E012F5F3F4F40E168E480E799E00E94E9
:100D6000613B81E00F90DF91CF910F9108950F9338
:100D7000CF93DF931F92CDB7DEB734E0639F400D72
:100D8000112432E0439F000D112430E1039F200D18
:100D9000112429830E94400601E09E012F5F3F4FEE
:100DA00041E168E480E799E00E94613B81E00F90B7
:100DB000DF91CF910F9108950F93CF93DF931F92FF
:100DC000CDB7DEB720E8629F4019112449830E9405
:100DD000400601E09E012F5F3F4F42E168E480E75B
:100DE00099E00E94613B81E00F90DF91CF910F91DC
:100DF0000895AF92BF92CF92DF92EF92FF920F933E
:100E00001F93CF93DF931F92CDB7DEB7162FA22E7D
:100E100080917609811106C080E799E049830E949C
:100E20006F3A4981612F80E799E049830E94DC395C
:100E30004981842F880F880F8058B82EBA0C6B2DEB
:100E400080E799E00E94C43A80E799E00E94B03AB6
:100E50004981413009F441C098F0423009F46AC038
:100E6000433009F0DEC06CE271E080E090E00E9467
:100E7000702B44E0612F80E799E00E94963AA3C06E
:100E800066E070E080E090E00E94702B43E0612F0C
:100E900080E799E00E94963A0E941F2B6B017C012B
:100EA00080E799E00E94E839833008F091C00E9401
:100EB0001F2BDC01CB018C199D09AE09BF098436BB
:100EC0009105A105B10508F083C00E941F2B6C1588
:100ED0007D058E059F0520F7DFCF62E170E080E0A1
:100EE00090E00E94702B43E0612F80E799E00E9420
:100EF000963A0E941F2B6B017C0180E799E00E94CB
:100F0000E839833008F096C00E941F2BDC01CB012A
:100F10008C199D09AE09BF0984369105A105B1055B
:100F200008F088C00E941F2B6C157D058E059F055B
:100F300020F7DFCF64E470E080E090E00E94702B47
:100F400043E0612F80E799E00E94963A0E941F2BB0
:100F50006B017C0180E799E00E94E839833008F05A
:100F6000B3C00E941F2BDC01CB018C199D09AE0977
:100F7000BF0984369105A105B10508F0A5C00E94FE
:100F80001F2B6C157D058E059F0520F7DFCF80E7B1
:100F900099E00E94E839843008F0C1C00E941F2BFC
:100FA000DC01CB018C199D09AE09BF09843691057E
:100FB000A105B10508F0B3C00E941F2B6C157D057B
:100FC0008E059F0520F70E941F2B6B017C01DFCF50
:100FD00080E799E00E94E839833009F0FFC080E79C
:100FE00099E00E94EE39182F80E799E00E94EE39CF
:100FF000612F70E0762F6627680F711D072E000C99
:10100000880B990B0E9423466B017C0180E799E0D5
:101010000E94EE39B82E80E799E00E94B03A013084
:10102000E1F1B7FEE3C06FEE71E08BE699E00E945C
:101030004436DCC080E799E00E94E839833009F04B
:10104000CDC080E799E00E94EE39182F80E799E043
:101050000E94EE39612F70E0762F6627680F711DB0
:10106000072E000C880B990B0E9423466B017C0114
:1010700080E799E00E94EE39B82E80E799E00E945F
:10108000B03A013071F620E030E040E85EE3C7019D
:10109000B6010E94D8466B017C016A2D70E080E0A9
:1010A00090E00E9421469B01AC0160E070E080E08E
:1010B00090E40E9445479B01AC01C701B6010E9424
:1010C00079456B017C01ADCF80E799E00E94E8395A
:1010D000833009F083C080E799E00E94EE39182F31
:1010E00080E799E00E94EE39612F70E0762F662745
:1010F000680F711D072E000C880B990B0E94234668
:101100006B017C0180E799E00E94EE39B82E013036
:1011100009F087CF20E030E040E85DE3B8CF80E71A
:1011200099E00E94E839843009F058C080E799E0DE
:101130000E94EE39182F80E799E00E94EE39F82ED0
:1011400080E799E00E94EE39E82E80E799E00E945E
:10115000EE39B82E80E799E00E94B03A8E2D90E0EB
:10116000A0E0B0E04F2D50E060E070E0C12ED12C47
:10117000E12CF12C11FF13C0BA95762F652F542F57
:101180004427840F951FA61FB71F7601DD24CC24AA
:10119000BC01CD016C0D7D1D8E1D9F1D13C0760100
:1011A000DD24CC24762F652F542F44274C0D5D1D54
:1011B0006E1D7F1D6A017B01C80ED91EEA1EFB1E33
:1011C000C701B6010E9423466B017C01013009F082
:1011D00028CF20E030E040E85CE359CFC12C80E428
:1011E000D82E8CE1E82E86ECF82E1BCFC701B60175
:1011F0000F90DF91CF911F910F91FF90EF90DF90B3
:10120000CF90BF90AF9008950F93022F242F462FB9
:1012100069E60E94F9060F910895CF93DF93EC01E0
:1012200018826530710509F447C09CF4623071057D
:1012300061F144F46115710509F44DC06130710527
:10124000E1F04CC06330710541F16430710569F122
:1012500045C06636710581F13CF466307105A1F137
:101260006536710511F13AC06936710571F06A365B
:10127000710599F06736710589F58AE08B8389E0FD
:101280008C8380E18D8381E006C087E08B8386E0DC
:101290008C831D8282E0898321C084E08B8385E07A
:1012A0008C8383E18D8383E0F6CF84E18B8383E1BC
:1012B0008C831D8284E0EFCF82E18B8381E18C837C
:1012C0008FE08D8385E0E7CF80E18B838FE08C8397
:1012D0001D8286E0E0CF83E28B838C838FEF8A834D
:1012E00080E090E0A0E8BFE38E839F83A887B98762
:1012F0001A861B861C861D868E879F87A88BB98BB6
:10130000FE01CE01C89640E050E060E87FE3168A17
:10131000178A108E118E428F538F648F758F389677
:10132000E817F907A1F78091960A9091970A85FF2F
:1013300060C061E089E00E947E2C61E086E00E944E
:101340007E2C61E085E00E947E2C61E083E10E94BA
:101350007E2C61E081E10E947E2C61E08FE00E94A2
:101360007E2C60E089E00E94992C60E086E00E947B
:10137000992C60E085E00E94992C60E083E10E9456
:10138000992C60E081E10E94992C60E08FE00E943E
:10139000992C61E08AE00E947E2C61E087E00E9447
:1013A0007E2C61E084E00E947E2C61E084E10E945A
:1013B0007E2C61E082E10E947E2C61E080E10E944F
:1013C0007E2C61E08AE00E94992C61E087E00E9417
:1013D000992C61E084E00E94992C61E084E10E94F4
:1013E000992C61E082E10E94992C61E080E10E94E9
:1013F000992C81E0888361E08B810E947E2C61E0E2
:101400008C810E947E2C61E08B810E94992C60E08F
:101410008C810E94992C1092980ADF91CF910895A7
:101420004F925F926F927F928F929F92AF92BF92F4
:10143000CF92DF92EF92FF92CF93DF93EC016A019C
:101440007B0120E030E04AE754ECC701B6010E947E
:101450007445882309F4A8C020E030E040EA51E454
:10146000C701B6010E94744587FF28C08A8120E128
:10147000829FC0011124FC01E757FC4F8590959095
:10148000A590B490FC01E357FC4F6591759185914F
:101490009491A50194010E94074520E030E040E2CC
:1014A00052E40E9479452B013C0120E030E040EA03
:1014B00051E4C701B6010E94084569C020E030E050
:1014C00040EA51E4C701B6010E94D34687FD2EC011
:1014D00020E030E040E252E4C701B6010E947445CA
:1014E00087FF24C08A8120E1829FC0011124FC0172
:1014F000E357FC4F85909590A590B490FC01EF5672
:10150000FC4F6591759185919491A50194010E947C
:10151000074520E030E040EA51E40E9479452B0184
:101520003C0120E030E040EA51E42DC020E030E012
:1015300040E252E4C701B6010E94D34687FD34C0A1
:101540008A8120E1829FC0011124FC01EF56FC4FEB
:1015500085909590A590B490FC01EB56FC4F659159
:10156000759185919491A50194010E94074520E011
:1015700030E040E251E40E9479452B013C0120E03B
:1015800030E040E252E4C701B6010E9407459B01EA
:10159000AC01C301B2010E94D8469B01AC01C50158
:1015A000B4010E94084503C060E070E0CB01DF9108
:1015B000CF91FF90EF90DF90CF90BF90AF909F9032
:1015C0008F907F906F905F904F9008954F925F92B1
:1015D0006F927F928F929F92AF92BF92CF92DF9243
:1015E000EF92FF92CF93DF93EC016A017B0120E041
:1015F00030E04AE754ECC701B6010E9474458823E5
:1016000009F4D7C020E030E0A901C701B6010E946B
:10161000744587FF28C08A8124E1829FC00111247C
:10162000FC01E750FE4F85909590A590B490FC0189
:10163000E350FE4F6591759185919491A5019401B8
:101640000E94074520E030E040E252E40E947945E4
:101650002B013C0120E030E040EA51E4C701B60133
:101660000E9408458CC020E030E0A901C701B60106
:101670000E94D34687FD1AC020E030E040EA51E4E2
:10168000C701B6010E94744587FF10C08A8124E11A
:10169000829FC0011124FC01E350FE4F859095907C
:1016A000A590B490FC01EF5FFD4F23C020E030E037
:1016B00040EA51E4C701B6010E94D34687FD2EC01F
:1016C00020E030E040E252E4C701B6010E947445D8
:1016D00087FF24C08A8124E1829FC0011124FC017C
:1016E000EF5FFD4F85909590A590B490FC01EB5F66
:1016F000FD4F6591759185919491A50194010E948A
:10170000074520E030E040EA51E40E9479452B0192
:101710003C0120E030E040EA51E42DC020E030E020
:1017200040E252E4C701B6010E94D34687FD34C0AF
:101730008A8124E1829FC0011124FC01EB5FFD4FEF
:1017400085909590A590B490FC01E75FFD4F659161
:10175000759185919491A50194010E94074520E01F
:1017600030E040E251E40E9479452B013C0120E049
:1017700030E040E252E4C701B6010E9407459B01F8
:10178000AC01C301B2010E94D8469B01AC01C50166
:10179000B4010E94084504C060E070E080E89FE367
:1017A0009B01AC0160E070E080E89FE30E94794516
:1017B00004C060E070E080E89FE3DF91CF91FF908C
:1017C000EF90DF90CF90BF90AF909F908F907F90E1
:1017D0006F905F904F9008958F929F92AF92BF92BB
:1017E000FF920F931F93CF93DF9300D01F92CDB73B
:1017F000DEB7F62E49015A011B8202E09E012F5FDF
:101800003F4F4CE46AE280E799E00E94AA3B20E067
:1018100030E543EC57E4C501B4010E9474451A81D8
:101820001816CCF120E030E543EC57E4C501B401D3
:101830000E94794520E030E040E053E40E94D84621
:101840000E94F2456B83FF20A9F01460198301E028
:101850009E012F5F3F4F41E46AE280E799E00E94DA
:10186000613B9B8180E8891B8B839E012D5F3F4FED
:1018700040E01CC01061198301E09E012F5F3F4FC3
:1018800041E46AE280E799E00E94613B9E012D5F9E
:101890003F4F40E10BC0FF2011F01B7F01C01F7EB6
:1018A0001B8301E09E012D5F3F4F41E46AE280E728
:1018B00099E00E94613B0F900F900F90DF91CF91C4
:1018C0001F910F91FF90BF90AF909F908F900895C0
:1018D0000F931F93CF93DF9300D0CDB7DEB7162FB2
:1018E00002E09E012F5F3F4F4CE46AE280E799E0FF
:1018F0000E94AA3B8A818B3FA9F18B7F8B3E91F19D
:10190000112329F09E012F5F3F4F4CE005C002E0FC
:101910009E012F5F3F4F4CE16AE280E799E00E9411
:10192000AA3B8981682F70E0762F66278A81680F2D
:10193000711D112331F080E890E09C01261B370BCC
:10194000B90180E090E00E94214620E030E040E0D4
:101950005CE30E94D84620E030E543EC57E40E9467
:10196000D84604C060E074E284E799E40F900F90D9
:10197000DF91CF911F910F9108952F923F924F9237
:101980005F926F927F928F929F92AF92BF92CF920F
:10199000DF92EF92FF920F931F93CF93DF9300D0CC
:1019A00000D0CDB7DEB71C01762E69017A0143E085
:1019B00060E083EE94E00E94DC0664E670E080E084
:1019C00090E00E94702B04E010E0812C912C5401D7
:1019D00021E040E0672D84EE94E00E9404099B0121
:1019E000AC01C501B4010E9408454B015C010150E6
:1019F000110971F720E030E040E85EE30E94D8462C
:101A000069837A838B839C8383EE94E00E948306B0
:101A1000882341F0813071F4412C512C612C85E4F4
:101A2000782E0BC0412C90E4592E9EE4692E95E44B
:101A3000792E03C0412C512C320183EE94E00E9498
:101A40006706813049F0823061F0811114C02DECBD
:101A50003CEC4CE45EE309C020E030E040E05FE3B2
:101A600004C02FE135E84BE25FE3C301B2010E94FD
:101A7000D8462B013C0183EE94E00E944B0688304F
:101A800058F494E0899FF0011124EE55FD4F8080B9
:101A90009180A280B38003C0812C912C540160E01E
:101AA000F10184810E94992CA301920169817A81BC
:101AB0008B819C810E940745A50194010E94794574
:101AC0004B015C0120E030E04AE754E4F10162851B
:101AD0007385848595850E9479459B01AC01C5017C
:101AE000B4010E9407454B015C01B701A601C10189
:101AF0000E94E60A9B01AC01C501B4010E94D846D0
:101B0000F1012281222319F02950223008F4905843
:101B100020E030E04AE754E40E94D846F1012681F3
:101B20003781408551850E9479454B015C01B701A1
:101B3000A601C1010E94100A9B01AC01C501B401BC
:101B40000E9407456B017C0120E030E0A9010E9462
:101B5000744587FF03C0C12CD12C7601C701B601A3
:101B60000F900F900F900F90DF91CF911F910F91D9
:101B7000FF90EF90DF90CF90BF90AF909F908F90AD
:101B80007F906F905F904F903F902F9008957F923D
:101B90008F929F92AF92BF92CF92DF92EF92FF927D
:101BA0000F931F93CF93DF93EC01762E49015A01D7
:101BB00004E010E0C12CD12C760121E040E0672D3B
:101BC00084EE94E00E9404099B01AC01C701B601B8
:101BD0000E9408456B017C010150110971F760E01A
:101BE0008C810E94992C20E030E040E85EEBC70138
:101BF000B6010E94D8462E893F89488D598D0E9492
:101C000007452A8D3B8D4C8D5D8D0E9479452A8537
:101C10003B854C855D850E9407456B017C01B501C4
:101C2000A401CE010E94100A9B01AC01C701B601BC
:101C30000E9407456B017C01B501A401CE010E9401
:101C4000E60A9B01AC01C701B6010E94D8462E816D
:101C50003F81488559850E9479456B017C0120E0D0
:101C600030E0A9010E94744587FF03C0C12CD12C2C
:101C70007601C701B601DF91CF911F910F91FF90BF
:101C8000EF90DF90CF90BF90AF909F908F907F901C
:101C90000895BF92CF92DF92EF92FF920F931F931E
:101CA000CF93DF93EC01B62E04E010E0C12CD12CD1
:101CB000760121E040E06B2D84EE94E00E9404095F
:101CC0009B01AC01C701B6010E9408456B017C0174
:101CD0000150110971F760E08C810E94992C20E07D
:101CE00030E040E85EE3C701B6010E94D8462E8985
:101CF0003F89488D598D0E9407452A8D3B8D4C8D1B
:101D00005D8D0E9479452A853B854C855D850E94C5
:101D100007452E813F81488559850E94D8466B0131
:101D20007C0120E030E0A9010E94744587FF03C0D8
:101D3000C12CD12C7601C701B601DF91CF911F9143
:101D40000F91FF90EF90DF90CF90BF9008953F925A
:101D50004F925F926F927F928F929F92AF92BF92BB
:101D6000CF92DF92EF92FF920F931F93CF93DF9367
:101D700000D000D000D0CDB7DEB78C01362E49019F
:101D80005A0143E060E083EE94E00E94DC0661E0EB
:101D9000C8010E94680C2B013C0120E030E0A90141
:101DA00061E0C8010E94EC0B68EE73E080E090E017
:101DB0000E94702B88E090E09A838983C12CD12CFB
:101DC000760164E670E080E090E00E94702B21E0F4
:101DD00040E0632D84EE94E00E9404099B01AC0175
:101DE000C701B6010E9408456B017C01E981FA81B7
:101DF0003197FA83E983EF2B21F7A301920161E088
:101E0000C8010E94EC0B60E0C8010E94680C2B0125
:101E10003C0120E030E040E05EE3C701B6010E94F3
:101E2000D846A30192010E94794520E030E04AE7BC
:101E300054EC0E94D846F80126893789408D518D8F
:101E40000E940845F801228D338D448D558D0E94E6
:101E500079452B013C0160E0C8010E94680C698350
:101E60007A838B839C8320E030E0A90160E0C80185
:101E70000E94EC0B60ED77E080E090E00E94702B18
:101E800088E090E09E838D83C12CD12C760164E69E
:101E900070E080E090E00E94702B21E040E0632D34
:101EA00084EE94E00E9404099B01AC01C701B601D5
:101EB0000E9408456B017C01ED81FE813197FE8314
:101EC000ED83EF2B21F729813A814B815C8160E022
:101ED000C8010E94EC0B61E0C8010E94680C698394
:101EE0007A838B839C8320E030E040E05EE3C7018F
:101EF000B6010E94D84629813A814B815C810E94BB
:101F0000794520E030E04AE754E40E94D846F801E1
:101F1000268D378D40A151A10E940845F80122A1CC
:101F200033A144A155A10E9479456B017C0120E0B9
:101F300030E04AE754E4F80162857385848595852D
:101F40000E9479459B01AC01C301B2010E94074583
:101F50002B013C0120E030E04AE754E4F8016685BB
:101F60007785808991890E9479459B01AC01C701E1
:101F7000B6010E9407459B01AC01C301B2010E945A
:101F800007456B017C01B501A401C8010E94E60A66
:101F90009B01AC01C701B6010E94D84620E030E0A9
:101FA0004AE754E40E94D846F801268137814085EB
:101FB00051850E9479456B017C0120E030E0A90148
:101FC0000E94744587FF03C0C12CD12C760160E0CC
:101FD000F80184810E94992CC701B60126960FB69C
:101FE000F894DEBF0FBECDBFDF91CF911F910F914F
:101FF000FF90EF90DF90CF90BF90AF909F908F9029
:102000007F906F905F904F903F900895AF92BF92F6
:10201000CF92DF92EF92FF920F931F93CF93DF93B4
:1020200000D000D01F92CDB7DEB77C016C0186E5F1
:10203000C80ED11C01E0960140E060E580E799E020
:102040000E94AA3B97012E5F3F4F41E060E580E789
:1020500099E00E94AA3BF7018281843170F48031BB
:1020600008F0E3C08D30B1F008F45EC08E3009F4A2
:10207000DCC08F3009F0A9C10DC08C3F09F454C0F9
:1020800018F48B3F39F0A1C18D3F09F4CEC08E3FCB
:1020900009F09BC104E09E012F5F3F4F42E060E5E5
:1020A00080E799E00E94AA3B89819A81AB81BC813B
:1020B000F70186839783A087B1879E012F5F3F4FEB
:1020C00048E060E580E799E00E94AA3B89819A8117
:1020D000AB81BC81F70182879387A487B5879E0176
:1020E0002F5F3F4F40E160E580E799E00E94AA3B07
:1020F00089819A81AB81BC81F701868B978BA08FF8
:10210000B18F9E012F5F3F4F48E160E580E799E086
:102110000E94AA3B89819A81AB81BC81F701828FA1
:10212000938FA48FB58F51C104E09E012F5F3F4F65
:1021300042E060E580E799E00E94AA3B89819A81AC
:10214000AB81BC81F70186839783A087B1879E010D
:102150002F5F3F4F48E060E580E799E00E94AA3B8F
:1021600089819A81AB81BC81F70182879387A4879B
:10217000B587570114E14CEF410F04E09E012F5F3A
:102180003F4F60E580E799E00E94AA3B89819A81F0
:10219000AB81BC81F501868B978BA08FB18F9E019F
:1021A0002F5F3F4F412F60E580E799E00E94AA3BF7
:1021B00089819A81AB81BC81F501828F938FA48F35
:1021C000B58FF8E0AF0EB11C185F1C34A1F6F60114
:1021D0008081833008F4F9C09E012F5F3F4F48E4AF
:1021E00060E580E799E00E94AA3B89819A81AB81F2
:1021F000BC81F701E25BFF4F80839183A283B383AD
:102200009E012F5F3F4F4CE460E580E799E00E941C
:10221000AA3B89819A81AB81BC81F701EE5AFF4FBD
:1022200080839183A283B383D0C004E09E012F5F9B
:102230003F4F42E060E580E799E00E94AA3B898138
:102240009A81AB81BC81F70186839783A087B18790
:102250009E012F5F3F4F48E060E580E799E00E94D4
:10226000AA3B89819A81AB81BC81F70182879387E0
:10227000A487B5879E012F5F3F4F4CE060E580E764
:1022800099E00E94AA3B89819A81AB81BC81F701C8
:10229000828B938BA48BB58B9E012F5F3F4F40E1C8
:1022A00060E580E799E00E94AA3B89819A81AB8131
:1022B000BC81F701868B978BA08FB18F9E012F5F1A
:1022C0003F4F44E160E580E799E00E94AA3B8981A5
:1022D0009A81AB81BC81F701828F938FA48FB58FD8
:1022E0009E012F5F3F4F48E160E580E799E00E9443
:1022F000AA3B89819A81AB81BC81F701868F978F38
:10230000A0A3B1A39E012F5F3F4F4CE160E580E7A2
:1023100099E00E94AA3B89819A81AB81BC81F70137
:1023200082A393A3A4A3B5A39E012F5F3F4F40E4D4
:1023300060E580E799E00E94AA3B89819A81AB81A0
:10234000BC81F701E15AFF4F80839183A283B3835D
:102350009E012F5F3F4F48E360E580E799E00E94D0
:10236000AA3B89819A81AB81BC81F701E55AFF4F75
:1023700080839183A283B3839E012F5F3F4F44E408
:1023800060E580E799E00E94463D8981F701ED59BB
:10239000FF4F8083F70116861786108A118AF6018F
:1023A0008081833091F49E012F5F3F4F40E360E5D1
:1023B00080E799E00E94AA3B89819A81AB81BC8128
:1023C000F70186879787A08BB18BF60180818330D8
:1023D00020F101E09E012B5F3F4F46E060E580E782
:1023E00099E00E94AA3BF70186813781208591857B
:1023F00089833A832B839C832281F60190819227E3
:10240000892783272B81982F92272C81922781E07F
:102410002D81291719F080E001C081E00F900F9005
:102420000F900F900F90DF91CF911F910F91FF9020
:10243000EF90DF90CF90BF90AF9008958F929F92D2
:10244000AF92BF92CF92DF92EF92FF920F931F93C2
:10245000CF93DF937C014A01A62E072FFC018281D6
:10246000982F9D7F9D3009F4E5C08B3F09F4E2C0B1
:102470008E3F09F4DFC061E0F70184810E94992C4E
:1024800064E670E080E090E00E94702B83EE94E0C0
:102490000E942406811107C060E0F70184810E9438
:1024A000992C8FEFCDC020E030E04AE754ECB40126
:1024B0008A2D902F0E947445F701C28181110AC0B4
:1024C000CE3021F180EF8C0F843038F1CA3061F5C5
:1024D000D2E065C020E030E040EE50E4B4018A2D47
:1024E000902F0E94D346181634F4CE3021F080EF9E
:1024F0008C0F8430C8F4B4018A2D902F0E94F245CD
:10250000D62FB82CC92CDA2C102F0FC0B12C20E4F8
:10251000C22E3CE1D32E17E44DC0B12C80E4C82E6E
:102520009CE1D92E17E401C0D5E0C93019F150F46F
:10253000C63028F4C43050F5C230E1F424C0C830AD
:1025400010F518C0C031B1F140F4CD3018F4CB30E3
:1025500030F110C0CE3071F167C0C43118F4C2310F
:1025600090F128C0CC3F79F0CD3F09F05DC042E04A
:1025700060E04EC042E06D2F83EE94E00E949B0627
:1025800001E020E04BC042E06D2F42C042E06D2FE1
:1025900083EE94E00E949B0601E026E03FC042E00B
:1025A0006D2F83EE94E00E949B0600E02AE041E05C
:1025B00060E036C041E060E083EE94E00E949B065C
:1025C00001E020E008C041E060E083EE94E00E947A
:1025D0009B0601E026E041E061E083EE94E00E948A
:1025E000B706F701EA5AFF4F80818330E9F02B2DBF
:1025F0003C2D4D2D512F60E0C7010E94EC0B2B2D7F
:102600003C2D4D2D512F61E0C7010E94EC0B0CC0F9
:1026100083EE94E00E949B0601E028E041E061E047
:1026200083EE94E00E94B70643E060E083EE94E01E
:102630000E94DC0660E0F70184810E94992C81E011
:10264000DF91CF911F910F91FF90EF90DF90CF908E
:10265000BF90AF909F908F9008958091960A90912F
:10266000970A61E085FF16C089E00E947E2C61E038
:1026700085E00E947E2C61E081E10E947E2C60E07A
:1026800089E00E94992C60E085E00E94992C60E02E
:1026900081E12DC089E00E947E2C61E086E00E94ED
:1026A0007E2C61E085E00E947E2C61E083E10E9447
:1026B0007E2C61E081E10E947E2C61E08FE00E942F
:1026C0007E2C60E089E00E94992C60E086E00E9408
:1026D000992C60E085E00E94992C60E083E10E94E3
:1026E000992C60E081E10E94992C60E08FE00E94CB
:1026F000992C61E070E080E090E00E94702B80E017
:102700000895BF92CF92DF92EF92FF920F931F93A3
:10271000CF93DF93EC016A017B0161E08EE00E94C0
:102720007E2C61E08EE00E94992C8091980A88238B
:1027300009F48FC08091860A9091870A81FF89C031
:102740002091980A01E010E0C801098002C0880FBA
:10275000991F0A94E2F7822B8093980A8091960A37
:102760009091970A85FF0FC061E08D810E94992C9E
:102770008091920A098002C0000F111F0A94E2F7AB
:10278000082B0093920A60E08B810E94992CCE0165
:102790000E942D1361E08C810E94992C64E670E008
:1027A00080E090E00E94702B83E0B82ECE010E9462
:1027B0000610082F10E001301105C9F080E799E0FC
:1027C0000E944C3DBA94B110F1CF012B81F42091BD
:1027D000980A81E090E0098002C0880F991F0A944E
:1027E000E2F7809582238093980A10E043C068EE58
:1027F00073E080E090E00E94702B03E0B701A60137
:10280000CE010E941E12182F282F880F330B213063
:10281000310551F48091980A098002C0220F331FBC
:102820000A94E2F7282B12C080E799E00E944C3D01
:10283000015021F78091980A21E030E0098002C020
:10284000220F331F0A94E2F7209528232093980A39
:1028500011C040E060E085E197E00E945F2F64E6F0
:1028600070E080E090E00E94702B85EE94E00E9482
:10287000331B66CF812FDF91CF911F910F91FF9076
:10288000EF90DF90CF90BF90089540E050E06AE76E
:1028900074EC0C948113CF92DF92EF92FF920F931E
:1028A000CF93DF9343E060E083EE94E00E94DC0688
:1028B000C8E0D0E0C12CD12C760101E020E043E05B
:1028C00069E684EE94E00E94F9069B01AC01C70121
:1028D000B6010E9408456B017C01219771F720E049
:1028E00030E040E05EEB0E94D84620E030E04CED66
:1028F00052E40E947945DF91CF910F91FF90EF90C4
:10290000DF90CF900895CF92DF92EF92FF920F93D6
:10291000CF93DF9343E060E083EE94E00E94DC0617
:10292000C8E0D0E0C12CD12C760101E020E043E0EA
:102930006AE684EE94E00E94F9069B01AC01C701AF
:10294000B6010E9408456B017C01219771F720E0D8
:1029500030E040E05EEB0E94D84620E030E04CEDF5
:1029600052E40E947945DF91CF910F91FF90EF9053
:10297000DF90CF9008958F929F92AF92BF92CF92A7
:10298000DF92EF92FF920F931F93CF93DF93EC01AF
:1029900049015A0143E060E083EE94E00E94DC06C6
:1029A000CE010E944B146B017C018E010D591F4F0B
:1029B000F80180818A3A59F434972081318142812B
:1029C0005381C701B6010E9407456B017C01CE010E
:1029D0000E948314F80120812A3A49F4FE01E55A45
:1029E000FF4F20813181428153810E9407459B0125
:1029F000AC01C701B6010E9407456B017C01B5011E
:102A0000A401CE010E94E60A9B01AC01C701B601F8
:102A10000E94D84620E030E04AE754E40E94D846BD
:102A20002E813F81488559850E9479456B017C0143
:102A300020E030E0A9010E94744587FF03C0C12C4B
:102A4000D12C760160E08C810E94992CC701B601DF
:102A5000DF91CF911F910F91FF90EF90DF90CF907A
:102A6000BF90AF909F908F9008956F927F928F92BA
:102A70009F92AF92BF92DF92EF92FF920F931F93BC
:102A8000CF93DF9300D000D0CDB7DEB77091980A16
:102A9000E72FF0E0DC0111960C9002C0F595E79568
:102AA0000A94E2F7E0FFA7C047015801D62E3C0187
:102AB00029833A834B835C830E942D136AE070E084
:102AC00080E090E00E94702B61E0F30184810E941D
:102AD000992C64E670E080E090E00E94702BD301B6
:102AE00012968C9129813A814B815C81843160F40A
:102AF000803108F072C08D3041F190F08E3009F4D1
:102B00004EC08F30B9F17CC08C3F51F018F48B3F30
:102B100089F176C08D3F09F442C08E3FB1F070C09C
:102B20006D2DC3010F900F900F900F90DF91CF91FB
:102B30001F910F91FF90EF90DF90BF90AF909F900B
:102B40008F907F906F900C94BD0C6D2DC3010F90F2
:102B50000F900F900F90DF91CF911F910F91FF90E9
:102B6000EF90DF90BF90AF909F908F907F906F908D
:102B70000C94C70D6D2DC3010F900F900F900F9007
:102B8000DF91CF911F910F91FF90EF90DF90BF9059
:102B9000AF909F908F907F906F900C94490EF301AF
:102BA000EA5AFF4F8081833019F4850174011EC0F9
:102BB0006D2DC3010F900F900F900F90DF91CF916B
:102BC0001F910F91FF90EF90DF90BF90AF909F907B
:102BD0008F907F906F900C94A70EF301EA5AFF4FED
:102BE0008081833029F7E12CF12C87016D2DC30101
:102BF0000E94BB1408C060E070E080E89FEB03C057
:102C000060E070E0CB010F900F900F900F90DF917C
:102C1000CF911F910F91FF90EF90DF90BF90AF90F9
:102C20009F908F907F906F900895EF92FF920F93F7
:102C30001F93CF93DF93EC0140E061E085EE94E0D9
:102C40000E94591B9B01AC01E12CF12C00E010E427
:102C500062E0CE010E943515DF91CF911F910F9157
:102C6000FF90EF9008958F929F92AF92BF92CF9274
:102C7000DF92EF92FF920F931F93FC01008111816D
:102C800020E030E06A017B0184E0F594E794D7947A
:102C9000C7948A95D1F7C01AD10AE20AF30A93E0E1
:102CA00075956795579547959A95D1F7000F111F20
:102CB000221F331FDB01CA01801B910BA20BB30B38
:102CC0009C01AD01A281B3810E9466494B015C0168
:102CD000BBE0B594A79497948794BA95D1F7A701D0
:102CE0009601C701B6010E94CA489B01AC011CE0D5
:102CF00055954795379527951A95D1F7A481B581B4
:102D00000E946649AB01BC010EE075956795579529
:102D100047950A95D1F79A01AB01280D391D4A1D37
:102D20005B1D21A332A343A354A3A5E0B0E00E94FE
:102D30005B49DC01CB0180589F4FAF4FBF4F692FDC
:102D40007A2F8B2F992787FD9A950E94234620E0A2
:102D500030E048EC52E40E9479451F910F91FF90BA
:102D6000EF90DF90CF90BF90AF909F908F9008959D
:102D70002F923F924F925F926F927F928F929F928B
:102D8000AF92BF92CF92DF92EF92FF920F931F9379
:102D9000CF93DF93CDB7DEB7A4970FB6F894DEBF1D
:102DA0000FBECDBF9A8389834C8F5D8F6E8F7F8FCF
:102DB000FC0181A192A1A3A1B4A16C017D01FF0C32
:102DC000CC08DC2C76019C01AD016C2D7C2D8C2D6A
:102DD0009C2D345F414051096109710981099109B4
:102DE0002CA33BA34B835C836D837E838F83988767
:102DF00059016A017B018C010E946E492C8B3D8B2D
:102E00004E8B5F8B688F798F8A8F9B8FE981FA81D8
:102E1000F089F8A3E981FA81F189F987E981FA81DA
:102E2000F685F9A3E981FA81F785FA87E981FA81C4
:102E3000F485FAA3E981FA81F585FB87E981FA81B6
:102E4000B184A0841B2D110F110BC12ED12EE12EA8
:102E5000F12E012F2CA13BA14B815C816D817E81E4
:102E60008F8198850E946E490CE00E949E4A19014C
:102E70002A013B014C01E981FA81B384A2841B2D14
:102E8000110F110BC12ED12EE12EF12E012F2C8905
:102E90003D894E895F89688D798D8A8D9B8D0E94D1
:102EA0006E4908E00E94B74A510162017301840132
:102EB0000E94D54A70588F4F9F4FE981FA81268032
:102EC00037805101C12CD12CE12CF12C00E010E015
:102ED0000E946E4901E20E94B74A2C873D874E87C7
:102EE0005F87688B798B8A8B9B8BA0E00E94E74A77
:102EF00009F451C1A8A01985110F110BB984C12E75
:102F0000D12EE12EF12E012F2C893D894E895F892A
:102F1000688D798D8A8D9B8D0E946E4919012A01D9
:102F20003B014C01A9A01A85110F110BBA84C12EC7
:102F3000D12EE12EF12E012F2CA13BA14B815C81E2
:102F40006D817E818F8198850E946E4901E10E948A
:102F50009E4A59016A017B018C019101A201B301D2
:102F6000C4010E94D54A19012A013B014C0180E0AD
:102F700090E0A0E1B0E02C8D3D8D4E8D5F8D821BE9
:102F8000930BA40BB50B6C017D01FF0CCC08DC2C62
:102F900076019C01AD016C2D7C2D8C2D9C2D0FE1BB
:102FA0000E949E4AF901B42FA52F6E837F838B83E5
:102FB0009C832AA19B85990F990B3B85492F592FFB
:102FC000692F792F892F03E20E949E4A59016A01D5
:102FD0007B018C019101A201B301C4010E94D54A79
:102FE00059016A017B018C019F014B2F5A2F6E8181
:102FF0007F818B819C810E94DE4A4901542E652E7F
:10300000B62FA72FF82FE92F03E00E949E4A540104
:10301000C52CD62CEB2EFA2E0F2F1E2F0E94DE4A27
:1030200059016A017B01782E192F03E00E949E4A04
:10303000072D0E94DE4A03E00E949E4A5401C52CDF
:10304000D62CEB2EFA2E0F2F1E2F0E94DE4A02E006
:103050000E949E4A0F2F0E94DE4A01E00E949E4A73
:103060000F2F0E94DE4AAC84BD84CE84DF84E888C2
:10307000F9880A891B890E94C9492A8739874B83A5
:103080005C836D837E838F8398870DE00E94B74AAF
:10309000922E832E742E652E562E472E382E292ED4
:1030A000E981FA8137892689932F990F990BA92CE9
:1030B000B82CC72CD62CE52CF42C032D122D492F1F
:1030C000592F692F792F892F0E946E490E946E49CE
:1030D00009E10E94B74A59016A017B018C012A85E6
:1030E00039854B815C816D817E818F8198850E94BD
:1030F000D54A19012A013B014C01E981FA81358940
:103100002489932F990F990BAA84B984CB80DC80F2
:10311000ED80FE800F811885492F592F692F792F57
:10312000892F0E946E4903E10E94B74A59016A0142
:103130007B018C019101A201B301C4010E94D54A17
:1031400008E00E94B74A522E632E742E852E962ECA
:10315000472EDC01E981FA8133892289932F990F67
:10316000990B492F592F692F792F892F04E00E943D
:103170009E4A59016A017B018C01252D362D472D70
:10318000582D692D742DCD010E94D54AB901CA016F
:103190000E94214603C060E070E0CB01A4960FB608
:1031A000F894DEBF0FBECDBFDF91CF911F910F917D
:1031B000FF90EF90DF90CF90BF90AF909F908F9057
:1031C0007F906F905F904F903F902F9008954F9217
:1031D0005F926F927F928F929F92AF92BF92CF92A7
:1031E000DF92EF92FF92FC0181A092A0A3A0B4A075
:1031F0002CE2921A21E0A20AB1086A017B013EE0AA
:10320000CC0CDD1CEE1CFF1C3A95D1F7848D958DFE
:10321000092E000CAA0BBB0B44E1880F991FAA1FB3
:10322000BB1F4A95D1F7C81AD90AEA0AFB0AA68D2C
:10323000B78DA50194010E946649C61AD70AE80A0B
:10324000F90A30E4D30EE11CF11C5FE0F594E79439
:10325000D794C7945A95D1F7A0A10A2E000CBB0BA6
:10326000A50194010E9466492B013C016AE0759416
:103270006794579447946A95D1F7A38DB0E00E9464
:103280005B49DC01CB017BE0B595A79597958795C8
:103290007A95D1F7BC01CD0170588F4F9F4FA30194
:1032A00092010E94CA48DC01CB012AE0B595A7959E
:1032B000979587952A95D1F79C01AD01405E5F4FA8
:1032C000A18DB28D0E946649DC01CB01905EAF4FAB
:1032D000BF4FBC01CD013EE09595879577956795E9
:1032E0003A95D1F7A70196010E94CA486B017C016B
:1032F0004FE095958795779567954A95D1F79B010E
:10330000AC010E94CA489B01AC0167E05595479506
:10331000379527956A95D1F7A08DB0E00E945B495B
:10332000DC01CB0174E0B595A795979587957A95C3
:10333000D1F7A7019601281B390B4A0B5B0BDA0169
:10334000C90157FD0BC081309105A10539E1B307D3
:1033500044F080E090E0A0E0B9E103C080E090E0BC
:10336000DC01BC01CD012CE095958795779567959B
:103370002A95D1F70E942346FF90EF90DF90CF90DF
:10338000BF90AF909F908F907F906F905F904F9085
:1033900008950F93CF93DF931F92CDB7DEB701E06F
:1033A0009E012F5F3F4F40ED67E780E799E00E9465
:1033B000AA3B81E09981903609F080E00F90DF917F
:1033C000CF910F910895EF92FF920F93CF93DF93D8
:1033D00000D000D0CDB7DEB77C0102E09E012F5FA8
:1033E0003F4F48E867E780E799E00E94AA3B8A815F
:1033F00090E0982F88272981820F911DF7019183F2
:1034000080839E012F5F3F4F4AE867E780E799E09E
:103410000E94AA3B8A8190E0982F88272981820FF9
:10342000911DF701938382839E012F5F3F4F4CE8EC
:1034300067E780E799E00E94AA3B8A8190E0982F95
:1034400088272981820F911DF701958384839E012E
:103450002F5F3F4F4EE867E780E799E00E94AA3B65
:103460008A8190E0982F88272981820F911DF7018A
:10347000978386839E012F5F3F4F40E967E780E790
:1034800099E00E94AA3B8A8190E0982F88272981A1
:10349000820F911DF701918780879E012F5F3F4F1B
:1034A00042E967E780E799E00E94AA3B8A8190E0C1
:1034B000982F88272981820F911DF7019387828792
:1034C0009E012F5F3F4F44E967E780E799E00E9444
:1034D000AA3B8A8190E0982F88272981820F911D2D
:1034E000F701958784879E012F5F3F4F46E967E785
:1034F00080E799E00E94AA3B8A8190E0982F882774
:103500002981820F911DF701978786879E012F5F82
:103510003F4F48E967E780E799E00E94AA3B8A812C
:1035200090E0982F88272981820F911DF701918BB8
:10353000808B9E012F5F3F4F4AE967E780E799E064
:103540000E94AA3B8A8190E0982F88272981820FC8
:10355000911DF701938B828B9E012F5F3F4F4CE9AA
:1035600067E780E799E00E94AA3B8A8190E0982F64
:1035700088272981820F911DF701958B848B9E01ED
:103580002F5F3F4F4EE967E780E799E00E94AA3B33
:103590008A8190E0982F88272981820F911DF70159
:1035A000978B868B9701285E3F4F01E041EA67E7E2
:1035B00080E799E00E94AA3B02E09E012F5F3F4F07
:1035C00041EE67E780E799E00E94AA3B8A8190E09C
:1035D000982F88272981820F911DF701928F818F63
:1035E0009701255E3F4F01E043EE67E780E799E0F2
:1035F0000E94AA3B03E09E012F5F3F4F44EE67E726
:1036000080E799E00E94AA3B2A813981822F8F703E
:1036100090E0F0E13F9F800D911D1124F701958FFF
:10362000848F207F8B8190E0F0E12F9F800D911D92
:103630001124F701978F868F01E09E012F5F3F4F86
:1036400047EE67E780E799E00E94AA3B8981F7018E
:1036500080A30F900F900F900F90DF91CF910F915B
:10366000FF90EF9008950F931F93CF938C0180915B
:10367000860A9091870A81FD06C040E060E085E1FE
:1036800097E00E945F2F64E670E080E090E00E9487
:10369000702BC8010E94C919C82F813021F4C801BC
:1036A0000E94E31901C0C0E08C2FCF911F910F91B0
:1036B00008954F925F926F927F92AF92BF92CF9296
:1036C000DF92EF92FF920F93CF93DF9300D01F9280
:1036D000CDB7DEB76C01F62E0E94C919813009F012
:1036E000C3C043E0E42E00E020E042EF67E780E75C
:1036F00099E00E94A73C02E020E044EF67E780E702
:1037000099E00E94A73C05E02F2D44EF67E780E792
:1037100099E00E94A73C02E020E045EF67E780E7E0
:1037200099E00E94A73C52E0E52E00E021E044EF42
:1037300067E780E799E00E94A73CEF2CF12C81E03D
:10374000E81AF10882E090E05C010E2C02C0AA0C9D
:10375000BB1C0A94E2F7B5016E5F7F4F072E000C89
:10376000880B990B0E94702B03E09E012F5F3F4F47
:1037700043EF67E780E799E00E94F03C8981813060
:1037800069F103E09E012F5F3F4F4AEF67E780E753
:1037900099E00E94AA3B498150E060E070E0BA01E4
:1037A000552744278A8190E0A0E0B0E0BA2FA92FE6
:1037B000982F8827480F591F6A1F7B1F8B81480F3E
:1037C000511D611D711D34E075956795579547959D
:1037D0003A95D1F7C6010E9433164AC061E070E005
:1037E00002C0660F771FEA94E2F7072E000C880BE1
:1037F000990B0E94234623E333E343E150E40E9404
:10380000D84620E030E040EA5FE30E9408452B0103
:103810003C01C5010196BC01990F880B990B0E94D0
:1038200023469B01AC01C301B2010E9407450E94DF
:10383000EB456F5F7F4F072E000C880B990B0E94A2
:10384000702B03E09E012F5F3F4F43EF67E780E758
:1038500099E00E94F03C8981813009F092CF60E0CC
:1038600070E48AE794EC04C060E070E08AE794ECCE
:103870000F900F900F90DF91CF910F91FF90EF90ED
:10388000DF90CF90BF90AF907F906F905F904F9000
:1038900008954F925F926F927F928F929F92AF9214
:1038A000BF92CF92DF92EF92FF920F93CF93DF936D
:1038B000CDB7DEB727970FB6F894DEBF0FBECDBFEA
:1038C0006C01F62E0E94C919813009F01FC1B3E0C6
:1038D000EB2E00E020E042EF67E780E799E00E94EE
:1038E000A73C02E02F2D44EF67E780E799E00E94B4
:1038F000A73C05E02F2D44EF67E780E799E00E94A1
:10390000A73C02E020E045EF67E780E799E00E94EE
:10391000A73C02E0E02E00E021E044EF67E780E70B
:1039200099E00E94A73CEF2CF12C81E0E81AF10805
:1039300082E090E05C010E2C02C0AA0CBB1C0A9431
:10394000E2F7B5016F5F7F4F072E000C880B990BD4
:103950000E9423462B013C01B501BB0C880B990B3F
:103960000E94234620E030E040E05FE30E940845EB
:103970009B01AC01C301B2010E9408454B015C01EF
:103980000E94EB456F5F7F4F072E000C880B990B51
:103990000E94702B03E09E012F5F3F4F43EF67E7CC
:1039A00080E799E00E94F03C8981813009F45EC093
:1039B00003E09E012F5F3F4F4AEF67E780E799E002
:1039C0000E94AA3B498150E060E070E0BA015527AF
:1039D00044278A8190E0A0E0B0E0BA2FA92F982F69
:1039E0008827480F591F6A1F7B1F8B81480F511D65
:1039F000611D711D34E075956795579547953A950A
:103A0000D1F7C6010E9433169E012F5F3F4F47EF4B
:103A100067E780E799E00E94AA3B498150E060E0B7
:103A200070E0BA01552744278A8190E0A0E0B0E019
:103A3000BA2FA92F982F8827480F591F6A1F7B1F5D
:103A40008B81480F511D611D711DA4E0759567950F
:103A500057954795AA95D1F7C6010E94B81620E060
:103A600030E040E85BE30E94D84654C081E090E03B
:103A700002C0880F991FEA94E2F7BC01990F880BE6
:103A8000990B0E94234623E333E343E150E40E9471
:103A9000D8462B013C0120E030E040EA5FE30E9481
:103AA00008456C837D838E839F8323E333E343E167
:103AB0005FE3C301B2010E9408459B01AC016C8128
:103AC0007D818E819F810E940845A50194010E94FD
:103AD00007450E94EB456F5F7F4F072E000C880B58
:103AE000990B0E94702B03E09E012F5F3F4F43EF25
:103AF00067E780E799E00E94F03C8981813009F016
:103B000057CF60E070E48AE794EC04C060E070E0B6
:103B10008AE794EC27960FB6F894DEBF0FBECDBFB0
:103B2000DF91CF910F91FF90EF90DF90CF90BF90FA
:103B3000AF909F908F907F906F905F904F9008957F
:103B40004F925F926F927F928F929F92AF92BF92AD
:103B5000CF92DF92EF92FF920F93CF93DF93CDB787
:103B6000DEB727970FB6F894DEBF0FBECDBF6C014E
:103B7000F62E0E94C919813009F00EC1F3E0EF2E34
:103B800000E02F2D42EF67E780E799E00E94A73C15
:103B900002E020E044EF67E780E799E00E94A73C5D
:103BA00005E02F2D44EF67E780E799E00E94A73CEE
:103BB00002E020E045EF67E780E799E00E94A73C3C
:103BC000A2E0EA2E00E021E044EF67E780E799E019
:103BD0000E94A73CEF2CF12C81E0E81AF10882E06A
:103BE00090E05C010E2C02C0AA0CBB1C0A94E2F708
:103BF000B5016F5F7F4F072E000C880B990B0E9459
:103C000023462B013C01B501BB0C880B990B0E948C
:103C1000234620E030E040E05FE30E9408459B013E
:103C2000AC01C301B2010E9408454B015C010E9436
:103C3000EB456F5F7F4F072E000C880B990B0E949E
:103C4000702B03E09E012F5F3F4F43EF67E780E754
:103C500099E00E94F03C8981813009F44DC003E075
:103C60009E012F5F3F4F4AEF67E780E799E00E9490
:103C7000AA3B498150E060E070E0BA015527442733
:103C80008A8190E0A0E0B0E0BA2FA92F982F882772
:103C9000480F591F6A1F7B1F8B81480F511D611DE3
:103CA000711D34E075956795579547953A95D1F70D
:103CB000C6010E94331602E09E012F5F3F4F4DEF79
:103CC00067E780E799E00E94AA3B498150E060E005
:103CD00070E0762F652F542F44278A81480F511D9D
:103CE000611D711DC6010E94E71820E030E040E828
:103CF0005AE30E94D84654C081E090E002C0880F89
:103D0000991FEA94E2F7BC01990F880B990B0E9466
:103D1000234623E333E343E150E40E94D8462B01DA
:103D20003C0120E030E040EA5FE30E9408456C83FC
:103D30007D838E839F8323E333E343E15FE3C3010A
:103D4000B2010E9408459B01AC016C817D818E818E
:103D50009F810E940845A50194010E9407450E9489
:103D6000EB456F5F7F4F072E000C880B990B0E946D
:103D7000702B03E09E012F5F3F4F43EF67E780E723
:103D800099E00E94F03C8981813009F068CF60E0C1
:103D900070E48AE794EC04C060E070E08AE794EC99
:103DA00027960FB6F894DEBF0FBECDBFDF91CF913F
:103DB0000F91FF90EF90DF90CF90BF90AF909F90CA
:103DC0008F907F906F905F904F900895EAE0F5E0BC
:103DD000148282E090E0918380831382128208959E
:103DE000CF93DF93EC018FE699E00E94CB36688198
:103DF00079818A819B814C81DF91CF910C94262D12
:103E0000FC0184810E949A2D40E060E08FE699E0F9
:103E10000C94A636FB0101900020E9F79F01261BB8
:103E2000370B24503109FB01319680E0AF01461B6E
:103E3000570B4217530718F491918927F7CF08952C
:103E4000CF93DF93DC0180E0FB01E80FF11D90814F
:103E5000903B11F08F5FF8CF9181933BD9F7EF0141
:103E60002197188232971082FB01349620E030E0CF
:103E70008191803B21F0280F311D3F77F9CF908150
:103E8000933BC9F72F3F310529F024F019963C9355
:103E9000199703C019961C9219971A962C93DF91C3
:103EA000CF9108950F931F93CF93DF938C01EB0174
:103EB0000E940A1FF8018087282F22952F70982FC3
:103EC0009F702A3010F4205D01C0295C9A3010F4F4
:103ED000905D01C0995CFE0101900020E9F73197E7
:103EE000EC1BFD0BAE014E0F511DFA0132972083E2
:103EF00031969083CE01DF91CF911F910F9108955C
:103F00003F924F925F926F927F928F929F92AF9269
:103F1000BF92CF92DF92EF92FF920F931F93CF93B6
:103F2000DF93CDB7DEB761970FB6F894DEBF0FBE53
:103F3000CDBF7C011B861C861D861E861F86188AA7
:103F4000198A0E941F2B2B013C016E0121E1C20E38
:103F5000D11C86E0382E5E0135E0A30EB11C9DEC2D
:103F6000892E94E0992E0E941F2BDC01CB0184192D
:103F70009509A609B709803D9740A105B10510F044
:103F800010E04DC0F70184810E94C82D1816190653
:103F90000CF070C0F70184810E94E42D8B8784327D
:103FA00009F068C0F70184810E94C82D05970CF4C0
:103FB00052C08E01045F1F4FF70184810E94E42DDF
:103FC000F80181938F01EC15FD05B1F7198A19826B
:103FD0001A821B821C82F501232D11922A95E9F782
:103FE000F40165917491CE0101960E94784BBE0157
:103FF0006F5F7F4FCE010B960E949B4B11E0892B88
:10400000C9F50E941F2B641575058605970520F4D8
:104010000E941F2B2B013C01112309F4A4CF8B8597
:104020008432B9F4112399F00E941F2B4B015C01DB
:10403000D12C0E941F2BDC01CB0188199909AA09F8
:10404000BB09803D9740A105B105B0F03BC08FEFA3
:10405000BCC18EEFBAC10E941F2BDC01CB018419B9
:104060009509A609B709803D9740A105B10508F457
:1040700099CF9FCF10E0C5CFF70184810E94C82D52
:10408000181619060CF09FC10D2D10E0F701848160
:104090000E94E42DF801EE0DFF1D83878A3209F09E
:1040A00088C1148611E0D3940E941F2B68157905EE
:1040B0008A059B0520F40E941F2B4B015C011123F4
:1040C00009F47CC16701FBE0CF0ED11CF601019021
:1040D0000020E9F73197AF014C195D09B60187015E
:1040E00005551F4FC8010E94A44BF6010190002006
:1040F000E9F73197EC19FD09EE0DFF1DE555FF4F6E
:10410000108262EC72E0C8010E947F4B8C0164EC6B
:1041100072E00E949B4B97012A533E4F6901892B05
:1041200009F1F80101900020E9F73197AF01401B38
:10413000510BB801C701835B9E4F0E94A44BF8014D
:1041400001900020E9F73197E01BF10BEE0DFF1D08
:10415000E35BFE4F108262EC72E080E090E00E9430
:104160007F4B8C01F80101900020E9F73197AF01F6
:10417000401B510BB801C6010E94A44BF8010190ED
:104180000020E9F73197E01BF10BEE0DFF1DEA531C
:10419000FE4F1082F6019081913409F004C162EC67
:1041A00072E080E090E00E947F4B8C01FC01019066
:1041B0000020E9F73197AF01481B590BBC01C7013B
:1041C00081599E4F0E94A44BF80101900020E9F70D
:1041D0003197E01BF10BEE0DFF1DE159FE4F1082F0
:1041E00062EC72E080E090E00E947F4BFC018081F5
:1041F000F701E658FE4F808362EC72E080E090E0C9
:104200000E947F4B8C01FC0101900020E9F731975F
:10421000AF01481B590BBC01C70185589E4F0E9436
:10422000A44BF80101900020E9F73197E01BF10B56
:10423000EE0DFF1DE558FE4F108262EC72E080E04B
:1042400090E00E947F4BFC018081F701EA57FE4F0E
:10425000808362EC72E080E090E00E947F4B8C01F2
:10426000FC0101900020E9F73197AF01481B590B81
:104270006701F9E7CF1AFEEFDF0ABC01C6010E9411
:10428000A44BF80101900020E9F73197E01BF10BF6
:10429000EE0DFF1DE957FE4F1082C6010E944D4BE7
:1042A00026E53EE04DEE5FE30E94D846AB01BC013F
:1042B00002E010E096018FE699E00E94EF38F601E7
:1042C00001900020E9F73197EC19FD0997012E0FB5
:1042D000311DF901E957FE4F108262EC72E080E077
:1042E00090E00E947F4B8C01FC0101900020E9F7D7
:1042F0003197AF01481B590BBC01C70181559E4F37
:104300000E94A44BF80101900020E9F73197E01BCF
:10431000F10BEE0DFF1DE155FE4F108262EC72E0D5
:1043200080E090E00E947F4B8C01FC010190002016
:10433000E9F73197AF01481B590BBC01C701885AF7
:104340009E4F0E94A44BF80101900020E9F731979D
:10435000E01BF10BEE0DFF1DE85AFE4F108262ECE0
:1043600072E080E090E00E947F4B8C01FC010190A4
:104370000020E9F73197AF01481B590BBC01C70179
:104380008D539E4F0E94A44BF80101900020E9F745
:104390003197E01BF10BEE0EFF1EF701ED53FE4FC0
:1043A000108281E012C081E0963509F480E08195A9
:1043B0000CC0843209F475CE10E075CEF1E5FD1520
:1043C00008F480CE36CE10E06FCE61960FB6F8942A
:1043D000DEBF0FBECDBFDF91CF911F910F91FF9038
:1043E000EF90DF90CF90BF90AF909F908F907F9095
:1043F0006F905F904F903F9008953F924F925F92E1
:104400006F927F928F929F92AF92BF92CF92DF92E4
:10441000EF92FF920F931F93CF93DF93CDB7DEB749
:1044200061970FB6F894DEBF0FBECDBF8C011B861F
:104430001C861D861E861F86188A198A0E941F2BBD
:104440002B013C016E0121E1C20ED11C86E0382E09
:104450005E0135E0A30EB11C9FEC892E94E0992EED
:104460000E941F2BDC01CB0184199509A609B7090D
:10447000803D9740A105B10510F0F12C4FC0F80127
:1044800084810E94C82D181619060CF072C0F8011C
:1044900084810E94E42D8B87843209F06AC0F80180
:1044A00084810E94C82D05970CF454C09E01245F9E
:1044B0003F4F7901F80184810E94E42DF701819337
:1044C0007F01EC15FD05B1F7198A19821A821B824A
:1044D0001C82F501232D11922A95E9F7F4016591CB
:1044E0007491CE0101960E94784BBE016F5F7F4FA1
:1044F000CE010B960E949B4BFF24F394892BC9F5A8
:104500000E941F2B641575058605970520F40E94EF
:104510001F2B2B013C01FF2009F4A2CF8B85843295
:10452000B9F4FF2099F00E941F2B4B015C01D12CA4
:104530000E941F2BDC01CB0188199909AA09BB092C
:10454000803D9740A105B105B0F03CC08FEF91C10F
:104550008EEF8FC10E941F2BDC01CB0184199509BE
:10456000A609B709803D9740A105B10508F497CF8A
:104570009DCFF12CC5CFF80184810E94C82D18165B
:1045800019060CF074C1ED2CF12CF80184810E9405
:10459000E42DF701E00FF11F83878A3209F05DC136
:1045A0001486FF24F394D3940E941F2B6815790579
:1045B0008A059B0520F40E941F2B4B015C01FF2004
:1045C00009F450C16801FBE0CF0ED11CF601019047
:1045D0000020E9F73197AF014C195D09B601780168
:1045E0002BEAE20EF11CC7010E94A44BF6010190D8
:1045F0000020E9F73197EC19FD09E00FF11FE555AF
:10460000FF4F108262EC72E0C7010E947F4B7C0179
:1046100063ED72E00E949B4BF801EA53FE4F6F017D
:10462000892B51F4F70101900020E9F73197AF0190
:104630004E195F09B70130C0F70101900020E9F77A
:104640003197AF014E195F09B701C801835B9E4FD7
:104650000E94A44BF70101900020E9F73197EE1971
:10466000FF09E00FF11FE35BFE4F108262EC72E086
:1046700080E090E00E947F4B7C0163ED72E00E943D
:104680009B4BF70101900020E9F73197AF014E19DC
:104690005F09B701892B91F4C6010E94A44BF70171
:1046A00001900020E9F73197EE19FF090E0F1F1F47
:1046B000F801EA53FE4F108280E0DBC0C801815947
:1046C0009E4F0E94A44BF70101900020E9F731971B
:1046D000EE19FF09E00FF11FE159FE4F108262EC65
:1046E00072E080E090E00E947F4BFC018081F80145
:1046F000E658FE4F808362EC72E080E090E00E941A
:104700007F4B7C01FC0101900020E9F73197AF015C
:10471000481B590BBC01C80185589E4F0E94A44BF1
:10472000F70101900020E9F73197EE19FF09E00F3A
:10473000F11FE558FE4F108262EC72E080E090E0DD
:104740000E947F4BFC018081F801EA57FE4F808375
:1047500062EC72E080E090E00E947F4B7C01FC0103
:1047600001900020E9F73197AF01481B590BBC01BC
:10477000C6010E94A44BF70101900020E9F7319790
:10478000EE19FF09E00FF11FEA53FE4F108262ECB1
:1047900072E080E090E00E947F4B7C01FC01019080
:1047A0000020E9F73197AF01481B590BBC01C80144
:1047B00088539E4F0E94A44BF70101900020E9F717
:1047C0003197EE19FF09E00FF11FE853FE4F1082F9
:1047D00062EC72E080E090E00E947F4B7C01FC0183
:1047E00001900020E9F73197AF01481B590BBC013C
:1047F000C80185539E4F0E94A44BF70101900020F1
:10480000E9F73197EE19FF09E00FF11FE553FE4F6D
:10481000108262EC72E080E090E00E947F4B7C01AD
:10482000FC0101900020E9F73197AF01481B590BBB
:10483000BC01C80185569E4F0E94A44BF701019010
:104840000020E9F73197EE19FF090E0F1F1FF8013D
:10485000E556FE4F108281E00CC0843209F4A0CEF0
:10486000F12CA1CEF1E5FD1508F4ACCE61CEF12C12
:104870009BCE61960FB6F894DEBF0FBECDBFDF9121
:10488000CF911F910F91FF90EF90DF90CF90BF904D
:10489000AF909F908F907F906F905F904F903F90E0
:1048A00008958F929F92AF92BF92DF92EF92FF9204
:1048B0000F931F93CF93DF93CDB7DEB72A970FB631
:1048C000F894DEBF0FBECDBF7C014B018C01055FAC
:1048D0001F4F80EAD82ED801ED2D1D92EA95E9F7F9
:1048E00019821A821B821C82FE01359686E0DF0146
:1048F0001D928A95E9F7E9EDF4E065917491FE0166
:1049000031965F01CF010E94784BB401C7010E942C
:10491000521F9F938F93BF92AF921F92DF921F936C
:104920000F930E94E24BD70114968C910E941D2E8A
:10493000F7016481C8010E94C02E64E670E080E047
:1049400090E00E94702B0FB6F894DEBF0FBECDBF73
:104950002A960FB6F894DEBF0FBECDBFDF91CF9180
:104960001F910F91FF90EF90DF90BF90AF909F90BD
:104970008F900895EF92FF920F931F93CF93DF9341
:104980007C01EB018A010E94201FF70181850C0F39
:104990001D1FF80134978083F7018285F801339752
:1049A000808381E00E941D2EC017D10729F061E0AD
:1049B00089910E94B32EF8CFDF91CF911F910F9173
:1049C000FF90EF9008950F931F93CF93DF93CDB790
:1049D000DEB7A8970FB6F894DEBF0FBECDBF462F47
:1049E00050E0FC01258136814217530709F46CC061
:1049F0008C016623B9F1613009F068C081E090E074
:104A00009683858380E2EBE0F2E0DE01119601906F
:104A10000D928A95E1F740E250E0BE016F5F7F4F53
:104A2000C8010E94BA2464E670E080E090E00E9431
:104A3000702BF80184810E949A2D6AE070E080E07A
:104A400090E00E94702B80EC92E1A0E0B0E0F801D1
:104A500080839183A283B383448160EC72E180E020
:104A600090E02FC0FC0116821582E9ECF4E065911C
:104A70007491CE0101960E94784BBE016F5F7F4F0B
:104A8000C8010E94512464E670E080E090E00E943A
:104A9000702BF80184810E949A2D6AE070E080E01A
:104AA00090E00E94702B80E092ECA1E0B0E0F80171
:104AB00080839183A283B383448160E072EC81E0C0
:104AC00090E00E94262D02C080E001C081E0A896FF
:104AD0000FB6F894DEBF0FBECDBFDF91CF911F910F
:104AE0000F910895FC0180EC92E1A0E0B0E080839A
:104AF0009183A283B38381E08483DF01A55BBE4FF2
:104B000011961C921E9281E090E096838583178215
:104B10001086549688EC92E011969C938E93129690
:104B20008EEC92E011969C938E93129685ED92E016
:104B300011969C938E9312968AED92E011969C9317
:104B40008E9312968EE992E011969C938E93129614
:104B50008DED92E011969C938E93129687EE92E0E3
:104B60008D939C93E359FE4F81EF92E09183808374
:104B70000895CF93DF93EC016F8361E083E20E949D
:104B80007E2C8F81882321F0813041F460E001C0C8
:104B900061E083E2DF91CF910C94992CDF91CF916A
:104BA0000895CF93DF93EC010E94001F61E0CE01D6
:104BB000DF91CF910C94B9252F923F924F925F9243
:104BC0006F927F928F929F92AF92BF92CF92DF921D
:104BD000EF92FF920F931F93CF93DF93CDB7DEB782
:104BE000E4970FB6F894DEBF0FBECDBF3C016DA7B2
:104BF0007EA74FA758AB29AB3AAB19A61AA61BA69E
:104C00001CA60E941F2B1B012C0160E0C3010E9407
:104C1000E32464E670E080E090E00E94702B61E0A5
:104C2000C3010E94E32464E670E080E090E00E940B
:104C3000702B0E941F2BDC01CB0182199309A40960
:104C4000B509803D9740A105B10510F020E042C0B4
:104C5000D30114968C910E94C82D04970CF4A6C021
:104C6000D30114968C910E94E42D89A7843209F017
:104C70009DC0F30184810E94E42D8AA7D30114967C
:104C80008C910E94E42D8BA71CA665EF72E0CE01EB
:104C900089960E949B4B892B09F486C069EF72E0CC
:104CA000CE0189960E949B4B21E0892B09F07EC0A2
:104CB0002CAB0E941F2B2CA962157305840595054A
:104CC00028F40E941F2B1B012C012CA9222309F47C
:104CD000B0CF21E030EA2301FBE04F0E511CD2019E
:104CE000E32F1D92EA95E9F719821A821B821C8232
:104CF000FE01359684E2DF011D928A95E9F7EBEC1F
:104D0000F4E065917491FE0131961F01CF012CAB47
:104D10003BAB0E94784B9F928F92BF92AF92DF92F3
:104D2000CF92FF92EF921F930F93FAA9FF9389A955
:104D30008F9398A99F93AFA5AF93BEA5BF93EDA501
:104D4000EF933F922F921F923BA93F935F924F9216
:104D50003BAB0E94E24BB201C3010E94521F5F9223
:104D60004F928DEF92E09F938F931F923BA93F93B9
:104D70005F924F920E94E24BD30114968C910E9455
:104D80001D2EF3016481C2010E94C02E0FB6F8945B
:104D9000DEBF0FBECDBF2CA921110AC0C3012CABB1
:104DA0000E94D1252CA904C021E082CF20E080CF31
:104DB000822FE4960FB6F894DEBF0FBECDBFDF9111
:104DC000CF911F910F91FF90EF90DF90CF90BF9008
:104DD000AF909F908F907F906F905F904F903F909B
:104DE0002F9008958F929F92AF92BF92CF92DF92B1
:104DF000EF92FF920F931F93FC01E959FE4F8080C1
:104E000091803297A080B1803297C080D180329754
:104E1000E080F1803297008111813E9620813181BE
:104E20003297408151813297608171810E94DC25E7
:104E30001F910F91FF90EF90DF90CF90BF90AF90B8
:104E40009F908F900895CF93DF93EC0160E00E94D4
:104E5000B925CE010E94F01ECE01DF91CF910C94B6
:104E6000F226CF92DF92EF92FF920F931F93CF9390
:104E7000DF938C018FE699E00E94CB36F8018481A4
:104E80000E941D2EE801CB53DE4F18820E941F2B7B
:104E90006B017C018881882331F081E09881913019
:104EA000D9F080E019C00E941F2BAB01BC014C1946
:104EB0005D096E097F09483853416105710568F73E
:104EC000C8010E94801F88830E941F2B6C157D05DE
:104ED0008E059F05F8F6DACFDF91CF911F910F91E4
:104EE000FF90EF90DF90CF9008952F923F924F92D6
:104EF0005F926F927F928F929F92AF92BF92CF926A
:104F0000DF92EF92FF921F93CF93DF9300D000D0F8
:104F1000CDB7DEB71C019A01AB0129833A834B83DD
:104F20005C830E941F2B4B015C01A8EEB3E029813A
:104F30003A814B815C810E945B492B013C01C12C71
:104F4000D12C7601C414D504E604F70408F5C10198
:104F50000E943127182F64E670E080E090E00E9404
:104F6000702B0E941F2B6B017C01C818D908EA081E
:104F7000FB080E941F2B681579058A059B0520F404
:104F80000E941F2B4B015C011123E1F281E001C063
:104F900080E00F900F900F900F90DF91CF911F91B5
:104FA000FF90EF90DF90CF90BF90AF909F908F9049
:104FB0007F906F905F904F903F902F9008958F92C9
:104FC0009F92AF92BF92FF920F931F93CF93DF9365
:104FD000CDB7DEB72A970FB6F894DEBF0FBECDBFB0
:104FE000FB0119821A821B821C829E012B5F3F4F9C
:104FF00086E0D9011D928A95E9F74E3441F0433598
:1050000031F0453451F0473509F057C006C0808172
:10501000898381818A831B8207C080818983818102
:105020008A8382818B831C82F42E8F01CE010196AC
:105030000E94514BBC01990F880B990B0E9423468B
:105040004B015C01BEE4FB1619F083E5F8120DC0BC
:10505000F8013296DE011196CE01089621912D932A
:10506000A817B907D9F7188612C0A5E4FA1619F0DF
:10507000B7E5FB120CC0F8013396DE011196CE01A4
:10508000089621912D93A817B907D9F7ECCFCE0137
:1050900001960E944D4B20E030E040E752E40E9430
:1050A00079459B01AC01C501B4010E9408454F2D13
:1050B0004B7F433529F4905803C060E070E0CB018A
:1050C0002A960FB6F894DEBF0FBECDBFDF91CF9109
:1050D0001F910F91FF90BF90AF909F908F90089578
:1050E0008F929F92AF92BF92FF920F931F93CF9395
:1050F000DF93EC010E941F2B4B015C018E01055BCD
:105100001E4FF80111821082E658FF4F80818130D6
:1051100039F5F80180819181019721F10E941F2BBF
:10512000DC01CB0188199909AA09BB098838934188
:10513000A105B105B8F4CE010E94801F082E000C15
:10514000990BF801918380830E941F2B68157905C4
:105150008A059B05F0F60E941F2B4B015C01D9CFFD
:105160008FEF2CC00E941F2B4B015C01F12C0E9481
:105170001F2BDC01CB0188199909AA09BB098838C2
:105180009341A105B10590F4CE010E94FD21F82EB6
:105190000E941F2B681579058A059B0520F40E9443
:1051A0001F2B4B015C0121E0F212E1CFF80180815D
:1051B0009181019711F481E0F81280E0DF91CF91A5
:1051C0001F910F91FF90BF90AF909F908F90089587
:1051D00089E195E00C947225F8948830F8F4482F12
:1051E00050E04830510590F4FA01EA59FF4F0C9411
:1051F0004349E8980BC0E99809C0EA9807C0EB98C2
:1052000005C0EC9803C0EE9801C0EF98E82FF0E0DD
:10521000EE0FFF1FE450F94F118210827894089529
:105220001F920F920FB60F9211240BB60F922F936D
:105230003F934F935F936F937F938F939F93AF931E
:10524000BF93EF93FF938091FC069091FD06892B0D
:1052500029F0E091FC06F091FD060995FF91EF9190
:10526000BF91AF919F918F917F916F915F914F917E
:105270003F912F910F900BBE0F900FBE0F901F907C
:1052800018951F920F920FB60F9211240BB60F9222
:105290002F933F934F935F936F937F938F939F933E
:1052A000AF93BF93EF93FF938091FE069091FF061B
:1052B000892B29F0E091FE06F091FF060995FF91F8
:1052C000EF91BF91AF919F918F917F916F915F917E
:1052D0004F913F912F910F900BBE0F900FBE0F90EB
:1052E0001F9018951F920F920FB60F9211240BB6B4
:1052F0000F922F933F934F935F936F937F938F936F
:105300009F93AF93BF93EF93FF9383B78E7F83BF3A
:105310008091000790910107892B29F0E091000707
:10532000F09101070995FF91EF91BF91AF919F9186
:105330008F917F916F915F914F913F912F910F903E
:105340000BBE0F900FBE0F901F9018951F920F92DB
:105350000FB60F9211240BB60F922F933F934F93DA
:105360005F936F937F938F939F93AF93BF93EF93CD
:10537000FF9383B78E7F83BF8091020790910307CD
:10538000892B29F0E0910207F09103070995FF911D
:10539000EF91BF91AF919F918F917F916F915F91AD
:1053A0004F913F912F910F900BBE0F900FBE0F901A
:1053B0001F9018951F920F920FB60F9211240BB6E3
:1053C0000F922F933F934F935F936F937F938F939E
:1053D0009F93AF93BF93EF93FF93809104079091B6
:1053E0000507892B29F0E0910407F091050709953D
:1053F000FF91EF91BF91AF919F918F917F916F91AD
:105400005F914F913F912F910F900BBE0F900FBE68
:105410000F901F9018951F920F920FB60F921124A4
:105420000BB60F922F933F934F935F936F937F939E
:105430008F939F93AF93BF93EF93FF938091060752
:1054400090910707892B29F0E0910607F091070753
:105450000995FF91EF91BF91AF919F918F917F91AE
:105460006F915F914F913F912F910F900BBE0F90D5
:105470000FBE0F901F9018951F920F920FB60F92AC
:1054800011240BB60F922F933F934F935F936F931B
:105490007F938F939F93AF93BF93EF93FF938091ED
:1054A000080790910907892B29F0E0910807F091EE
:1054B00009070995FF91EF91BF91AF919F918F914E
:1054C0007F916F915F914F913F912F910F900BBE04
:1054D0000F900FBE0F901F9018951F920F920FB64E
:1054E0000F9211240BB60F922F933F934F935F931C
:1054F0006F937F938F939F93AF93BF93EF93FF939C
:1055000080910A0790910B07892B29F0E0910A07F7
:10551000F0910B070995FF91EF91BF91AF919F918A
:105520008F917F916F915F914F913F912F910F904C
:105530000BBE0F900FBE0F901F9018951F920F92E9
:105540000FB60F9211240BB60F922F933F934F93E8
:105550005F936F937F938F939F93AF93BF93EF93DB
:10556000FF93F89481E080930A02E0E6F0E0808106
:105570008068808380818F7B808360E083E00E94ED
:10558000992C7894FF91EF91BF91AF919F918F915A
:105590007F916F915F914F913F912F910F900BBE33
:1055A0000F900FBE0F901F9018951F920F920FB67D
:1055B0000F9211248F939F93AF93BF938091990A79
:1055C00090919A0AA0919B0AB0919C0A0196A11D04
:1055D000B11D8093990A90939A0AA0939B0AB09365
:1055E0009C0ABF91AF919F918F910F900FBE0F902A
:1055F0001F9018951F920F920FB60F9211248F9340
:105600009F93AF93BF9380919D0A90919E0AA09122
:105610009F0AB091A00A0196A11DB11D80939D0A19
:1056200090939E0AA0939F0AB093A00ABF91AF9156
:105630009F918F910F900FBE0F901F9018958F9292
:105640009F92AF92BF92CF92DF92EF92FF920F9311
:105650001F93CF93DF932FB7F8948091990A90917D
:105660009A0AA0919B0AB0919C0A2FBF9C01AD01A0
:1056700060E070E080E090E001E00E949E4A490115
:10568000D42FC52FB62FA72FF82FE92F02E00E94A5
:105690009E4A59016A017B018C0194014D2F5C2FB8
:1056A0006B2F7A2F8F2F9E2F0E94D54AE9E0AE2EC6
:1056B000B12CC12CD12CE12CF12C00E010E00E9487
:1056C000FA49B901CA01DF91CF911F910F91FF9063
:1056D000EF90DF90CF90BF90AF909F908F90089504
:1056E0008F929F92AF92BF92CF92DF92EF92FF92F2
:1056F0004B015C010E941F2B6B017C010E941F2B40
:10570000DC01CB018C199D09AE09BF0988159905EB
:10571000AA05BB0540F40E941F2B6C157D058E0564
:105720009F0560F7E7CFFF90EF90DF90CF90BF909D
:10573000AF909F908F900895BC01049768F080E02F
:1057400090E00E94214626E636E646EE5FE30E94A0
:10575000D8460E94F24502C0660F771F613071057E
:1057600061F06250710949F0660F771FCB01019714
:105770002FB7F8940197F1F72FBF0895789484B765
:10578000877F84BF1092990A10929A0A10929B0AFE
:1057900010929C0A84B5826084BD84B5816084BD0A
:1057A00085B5826085BD85B5816085BDEEE6F0E09A
:1057B000808181608083E1E8F0E080818260808385
:1057C000808181608083E0E8F0E080818160808377
:1057D000E1EBF0E0808184608083E1E9F0E08081AA
:1057E00084608083E0EBF0E0808181608083E0E989
:1057F000F0E0808181608083E4E6F0E080818E7F4C
:105800008083ECE7F0E080818F7780838081806403
:105810008083EAE7F0E08081846080838081826019
:105820008083808181608083808180688083109202
:10583000C1001092C900089590910C07982B909385
:105840000C0780FF32C0809164008E7F80936400DB
:1058500080917C008F7780937C0080917C008064B5
:1058600080937C0080917A00846080937A0080919C
:105870007A00826080937A0080917A0080688093B9
:105880007A00809164008F77809364008091640037
:105890008B7F80936400809164008D7F809364008F
:1058A000809165008E7F809365000895982F909574
:1058B00020910C07922390930C0780FF1EC08091CB
:1058C0007A008F7780937A00809164008160809362
:1058D000640080916400806880936400809164001B
:1058E000846080936400809164008260809364008F
:1058F00080916500816080936500089590E0FC01CF
:10590000EE5CF84F2491FC01E959F84FE491EE2345
:1059100079F0F0E0E455F84FA491B0E0611105C0D2
:105920008C91E22FE095E82302C0EC91E22BEC93FE
:10593000089590E0FC01E350F94F3491FC01EE5CD6
:10594000F84F2491FC01E959F84F84918823B1F173
:10595000332331F1333021F4909180009F7705C0DB
:10596000343031F4909180009F7D9093800018C076
:10597000313019F494B59F7704C0323021F494B5D6
:105980009F7D94BD0DC0363021F49091B0009F777B
:1059900005C0373029F49091B0009F7D9093B000FE
:1059A000E82FF0E0EC55F84FA491B0E0EC916111D4
:1059B00003C020952E2301C02E2B2C93089590E038
:1059C000FC01E350F94F2491FC01EE5CF84F349157
:1059D000FC01E959F84F84918823A9F1222331F180
:1059E000233021F4909180009F7705C0243031F45A
:1059F000909180009F7D9093800018C0213019F411
:105A000094B59F7704C0223021F494B59F7D94BD56
:105A10000DC0263021F49091B0009F7705C027304B
:105A200029F49091B0009F7D9093B000E82FF0E0B2
:105A3000E456F84FA491B0E0EC91E32381E090E0CC
:105A400021F480E0089580E090E00895CF92DF9205
:105A5000EF92FF926B017C01411134C088E00E94FB
:105A60001C2CC701B60122E030E040E050E00E946B
:105A70002449CA01B901705F814F9F4FA701960168
:105A80000E942449DA01C9010197A109B109892FAE
:105A90009A2FAB2FBB27A7FDBA958093C500215045
:105AA0002093C4008091C10080618093C1008091E7
:105AB000C10088608093C1008091C100806880939C
:105AC000C10033C080E10E941C2CC701B60122E056
:105AD00030E040E050E00E942449CA01B901705F03
