:100000000C9403040C9411290C9442290C94732928
:100010000C94A7290C94DB290C940C2A0C943D2AEF
:100020000C946E2A0C942D040C942D040C942D0425
:100030000C949F2A0C942D040C942D040C94FB2AF0
:100040000C942D040C942D040C942D040C942D046C
:100050000C942D040C942D040C942D040C94D62A8D
:100060000C942D040C94322E0C942D040C942D041D
:100070000C942D040C942D040C942D040C942D043C
:100080000C942D040C942D040C942D040C942D042C
:100090000C94732E0C942D040C942D040C94194084
:1000A0000C942D040C942D040C942D040C942D040C
:1000B0000C942D040C942D040C942D040C942D04FC
:1000C0000C942D040C942D040C942D04FA28FC2877
:1000D000FE28002902290729042906299530A43081
:1000E000C330D230E130F030FF3080318C31983184
:1000F000A431A631B231BE31CA31D631E231EE314E
:10010000FA310632123207634236B79BD8A71A3942
:10011000685618AEBAAB558C1D3CB7CC5763BD6D55
:10012000EDFD753EF6177231BF000000803F0800FC
:100130000000BE922449123EABAAAA2ABECDCCCC66
:100140004C3E00000080BEABAAAAAA3E0000000000
:10015000BF000000803F0000000000084178D3BBD2
:100160004387D1133D190E3CC3BD4282AD2B3E687F
:10017000EC8276BED98FE1A93E4C80EFFFBE01C470
:10018000FF7F3F0000000000205061005072657347
:10019000737572653A200020250052483A200020ED
:1001A00043656C736975730054656D706572617435
:1001B0007572653A20002070706D004E4F3A200035
:1001C0002070706D00434F3A20002070706D005316
:1001D0004F323A20002025204C454C004348343A09
:1001E00020002070706D00434F323A20003E3E3EAA
:1001F00000414443204E5F524459001F856B3F8F9E
:10020000C2753F0000803FEC51783F3333733F337A
:1002100033333F6666663F0000803F1F858B3F009B
:1002200000803FCDCCCC3E3333333F0000803F33A2
:1002300033933F0000A03FCDCC4C3E0000003F0078
:1002400000803F666606403333334052B85E3F332A
:1002500033733F0000803F0000803F0000803F9AE2
:1002600099593F1F856B3F0000803F0000803F0091
:1002700000803FCDCC4C3F0000803F0000803FB865
:100280001E853FB81E853F6666663F0000803F00C2
:1002900000803F0000803F0000803F3333333FCD7C
:1002A000CC4C3F0000803F14AE873F295C8F3FCD90
:1002B000CC4C3FCDCC4C3F0000803FCDCC8C3F00A0
:1002C00000A03F6666663F8FC2753F0000803FC357
:1002D000F5883FC3F5883FCDCC4C3F6666663F004E
:1002E00000803F6666863F6666863F6666663F00BC
:1002F00000803F0000803F6666863F0000803F3DF3
:100300000A873FE17A843F0000803F85EB813F0010
:1003100000803F3333333F1F856B3F0000803F0039
:1003200000803F1F856B3F0000803F0000803F0042
:1003300000803F0000803F0000803F3333333FB8F0
:100340001E453F0000803FCDCC8C3FD7A3903FCDD2
:10035000CCCC3ECDCC4C3F0000803F9A99993F6673
:1003600066A63FE17A543F3333733F0000803FA4D9
:10037000707D3F8FC2753FB81E053FCDCC4C3F000E
:1003800000803F295C8F3F3D0A973F00000000003E
:10039000000000CDCC4CBD9A9999BE9A9999BE00A7
:1003A000000000000000009A9999BE000080BF0084
:1003B000000000713D2A400000A040000000C00085
:1003C00000000000000000000020C000000000004D
:1003D000000000000000000AD723BD00000000005C
:1003E000000000000080400000704100000000009C
:1003F000000000CDCCCCBDCDCCCC3D000080BE00FB
:10040000000000E17AD43F000040409A9919BF00F3
:100410000000000000804000001041CDCCCC3D0029
:10042000000000000000BF9A99D9BF000000000042
:1004300000000000000000000000000000000000BC
:100440000000009A99193ECDCCCC3E00000000007F
:10045000000000CDCC4C3E9A99193F0000000000EE
:1004600000000000000000000000000AD7233CCD7F
:10047000CCCC3C8FC2F53D0000803E000000000067
:100480000000000000000000000000F4FD543C6F7C
:1004900012833C1283403DB81E053E8FC2753C0A54
:1004A000D7233D9A99193E6666A63E000000000AD1
:1004B000D7233CCDCCCC3D6666663E00000000CD27
:1004C000CCCCBC9A9999BD9A9919BE490525051EAF
:1004D000051705100509050205FB04F604EA04E109
:1004E000042450535246313935002450535246317A
:1004F00032352A30300025730D0A002447505654F7
:100500004700244750474C4C00244750475356005F
:100510002447504753410024475047474100244750
:1005200050524D430024505352463130342C2573E1
:100530002C25732C25732C25732C25732C25732CBB
:1005400025732C25732A3030002450535246313005
:10055000302C302C3131353230302C382C312C309D
:100560002A303000F006DB06C506B506A8069E0652
:100570008E0679066206500644063D062B061806CE
:100580000B060106F105CE05C8059F058E055B2506
:100590003032753A253032753A253032755D002596
:1005A0003032752563253032752563253032752547
:1005B0006325303275256325303275256325303249
:1005C00075256325303275006572726F7200257370
:1005D0002C20253032752F253032752F253032757D
:1005E0002C20253032753A253032753A2530327557
:1005F000004F6E636520706572206D696E7574655D
:10060000005B6D6D5D202D2D3E20005B68683A6DAE
:100610006D5D202D2D3E20005B446174652C2068AB
:10062000683A6D6D5D202D2D3E20005B4461792C74
:100630002068683A6D6D5D202D2D3E20005B2530D1
:1006400032755D005B253032753A253032755D00BC
:100650005B253032752C20253032753A25303275C5
:100660005D005B253032752C20253032753A2530FF
:1006700032753A253032755D00496E636F7272656E
:10068000637420616C61726D206D6F6465004F6EE4
:10069000636520706572207365636F6E64005B73C1
:1006A000735D202D2D3E20005B6D6D3A73735D20D0
:1006B0002D2D3E20005B68683A6D6D3A73735D20A6
:1006C0002D2D3E20005B446174652C2068683A6DD6
:1006D0006D3A73735D202D2D3E20005B4461792CB3
:1006E0002068683A6D6D3A73735D202D2D3E2000B1
:1006F000416C61726D206D617463686573200000E8
:1007000000080900000000000000000000000000D8
:1007100000000000000000000000000000000000D9
:1007200000000000000000000000000000000000C9
:100730000000000001020810102040800408102072
:100740004002020408102040800102802040042062
:1007500001010204081020014080408001020804C9
:1007600008800410040201081005050505030303B1
:100770000301010104040306060606060606060137
:100780000405010501030202020202020102020540
:1007900005040403040401030407070707070020F6
:1007A0002326292C2F32002225282B2E31340021FC
:1007B00024272A2D30334E414E494E495459494E33
:1007C00046CDCCCC3D0AD7233C17B7D13877CC2BBC
:1007D000329595E6241FB14F0A000020410000C861
:1007E0004200401C4620BCBE4CCA1B0E5AAEC59DE2
:1007F00074000D06E71EE92828344434FD3484369D
:100800005B3D5141774311241FBECFEFD1E2DEBFE4
:10081000CDBF13E0A0E0B2E0EEEFF0EA00E00BBFE6
:1008200002C007900D92A033B107D9F72EE0A0E3E4
:10083000B3E001C01D92A33AB207E1F713E0C3E0B1
:10084000D4E004C02197FE010E944449C93FD1076A
:10085000C9F70E94693D0C947D500C9400008BE612
:1008600099E00E94053561E08EE00E947F2C8EE7C2
:1008700094E00E94461480E090E0A0E8BFEB8093F3
:10088000320390933303A0933403B09335038AE18A
:1008900094E00E94461486EB93E00E94461482E5A1
:1008A00093E00E94461461E08EE00E949A2C85EE4F
:1008B00094E00E94341B87E197E00E94063441E0F7
:1008C0006CE08FE699E00E94873689E195E00C9410
:1008D00024278EE794E00E941616609336037093E7
:1008E000370380933803909339038AE194E00E94A0
:1008F000161660933A0370933B0380933C039093E6
:100900003D0386EB93E00E941616609342037093BA
:100910004303809344039093450382E593E00E9450
:10092000161660933E0370933F03809340039093A9
:10093000410340E065E085EE94E00E945A1B60931D
:100940004E0370934F03809350039093510365E0DF
:1009500085EE94E00E94A11D60934A0370934B03BF
:1009600080934C0390934D0340E065E085EE94E066
:100970000E944A1C60934603709347038093480388
:10098000909349034AE050E060E070E089E195E02F
:100990000E9476278093E204882321F089E195E084
:1009A0000E9471286DEE71E08BE699E00E946D3631
:1009B00067EE71E08BE699E00E9445364091360380
:1009C0005091370360913803709139038BE699E0B9
:1009D0000E94373662EE71E08BE699E00E946D3638
:1009E0006CED71E08BE699E00E9445364091320350
:1009F0005091330360913403709135038BE699E095
:100A00000E94373665ED71E08BE699E00E946D3605
:100A10006FEC71E08BE699E00E94453640913A0315
:100A200050913B0360913C0370913D038BE699E04C
:100A30000E9437366AEC71E08BE699E00E946D36D1
:100A400065EC71E08BE699E00E94453640914203E7
:100A50005091430360914403709145038BE699E004
:100A60000E94373660EC71E08BE699E00E946D36AB
:100A70006BEB71E08BE699E00E94453640913E03B6
:100A800050913F0360914003709141038BE699E0E0
:100A90000E94373666EB71E08BE699E00E946D3676
:100AA00068EA71E08BE699E00E94453640914E037A
:100AB00050914F0360915003709151038BE699E080
:100AC0000E9437366FE971E08BE699E00E946D363F
:100AD0006AE971E08BE699E00E94453640914A034D
:100AE00050914B0360914C0370914D038BE699E05C
:100AF0000E94373667E971E08BE699E00E946D3617
:100B00006CE871E08BE699E00E944536409146031F
:100B10005091470360914803709149038BE699E037
:100B20000E94373668E871E08BE699E00E946D36E6
:100B30008091E20460E772E08823D9F18BE699E0C6
:100B40000E946C354091930668E876E089E195E073
:100B50000E94E027AB01BC018BE699E00E943A3687
:100B60006BE772E08BE699E00E946C3540919F063E
:100B700064E976E089E195E00E94E027AB01BC01E1
:100B80008BE699E00E943A3667E872E08BE699E0DE
:100B90000E946C3566E676E08BE699E00E948C3523
:100BA00062E972E08BE699E00E946C3561E776E0DD
:100BB0002AC08BE699E00E946C356DE972E08BE605
:100BC00099E00E948C356BE772E08BE699E00E9419
:100BD0006C356DE972E08BE699E00E948C3567E830
:100BE00072E08BE699E00E946C356DE972E08BE66D
:100BF00099E00E948C3562E972E08BE699E00E94F0
:100C00006C356DE972E08BE699E00E948C3560EA04
:100C100072E08BE699E00C946C3561E070E08EE751
:100C200094E00E940E0964E070E08AE194E00E9482
:100C30000E0965E070E086EB93E00E940E0966E025
:100C400070E082E593E00C940E090F93CF93DF934D
:100C50001F92CDB7DEB700E09E012F5F3F4F40E00F
:100C600068E480E799E00E94F13C811104C081E0D2
:100C70009981911101C080E00F90DF91CF910F9188
:100C800008950F9300E020E041E068E480E799E0F8
:100C90000E94683C0F910895EF920F93CF93DF93DA
:100CA0001F92CDB7DEB783E0E82E02E09E012F5FF2
:100CB0003F4F40E168E480E799E00E94193D8111CF
:100CC00001C089810F90DF91CF910F91EF9008952E
:100CD000EF920F93CF93DF931F92CDB7DEB782E0F1
:100CE000E82E05E09E012F5F3F4F41E168E480E779
:100CF00099E00E94193D811101C089810F90DF9117
:100D0000CF910F91EF9008950F93CF93DF931F92A0
:100D1000CDB7DEB707E09E012F5F3F4F41E168E4AA
:100D200080E799E00E94F13C811101C089810F9018
:100D3000DF91CF910F9108950F93CF93DF931F927F
:100D4000CDB7DEB7660F660F460F49830E94410696
:100D500001E09E012F5F3F4F40E168E480E799E0AA
:100D60000E94623B81E00F90DF91CF910F91089537
:100D70000F93CF93DF931F92CDB7DEB734E0639F1D
:100D8000400D112432E0439F000D112430E1039FF8
:100D9000200D112429830E94410601E09E012F5F4E
:100DA0003F4F41E168E480E799E00E94623B81E0C7
:100DB0000F90DF91CF910F9108950F93CF93DF9311
:100DC0001F92CDB7DEB720E8629F401911244983F6
:100DD0000E94410601E09E012F5F3F4F42E168E41F
:100DE00080E799E00E94623B81E00F90DF91CF9114
:100DF0000F910895AF92BF92CF92DF92EF92FF9240
:100E00000F931F93CF93DF931F92CDB7DEB7162FAB
:100E1000A22E80917609811106C080E799E049836E
:100E20000E94703A4981612F80E799E049830E94CE
:100E3000DD394981842F880F880F8058B82EBA0C6D
:100E40006B2D80E799E00E94C53A80E799E00E9407
:100E5000B13A4981413009F441C098F0423009F477
:100E60006AC0433009F0DEC06CE271E080E090E0DF
:100E70000E94712B44E0612F80E799E00E94973A2D
:100E8000A3C066E070E080E090E00E94712B43E038
:100E9000612F80E799E00E94973A0E94202B6B0116
:100EA0007C0180E799E00E94E939833008F091C025
:100EB0000E94202BDC01CB018C199D09AE09BF09D2
:100EC00084369105A105B10508F083C00E94202B4E
:100ED0006C157D058E059F0520F7DFCF62E170E080
:100EE00080E090E00E94712B43E0612F80E799E061
:100EF0000E94973A0E94202B6B017C0180E799E0C9
:100F00000E94E939833008F096C00E94202BDC0152
:100F1000CB018C199D09AE09BF0984369105A10545
:100F2000B10508F088C00E94202B6C157D058E0548
:100F30009F0520F7DFCF64E470E080E090E00E943E
:100F4000712B43E0612F80E799E00E94973A0E945D
:100F5000202B6B017C0180E799E00E94E939833006
:100F600008F0B3C00E94202BDC01CB018C199D0935
:100F7000AE09BF0984369105A105B10508F0A5C0E9
:100F80000E94202B6C157D058E059F0520F7DFCF75
:100F900080E799E00E94E939843008F0C1C00E94DE
:100FA000202BDC01CB018C199D09AE09BF098436C9
:100FB0009105A105B10508F0B3C00E94202B6C1566
:100FC0007D058E059F0520F70E94202B6B017C017B
:100FD000DFCF80E799E00E94E939833009F0FFC054
:100FE00080E799E00E94EF39182F80E799E00E948E
:100FF000EF39612F70E0762F6627680F711D072E7D
:10100000000C880B990B0E9424466B017C0180E741
:1010100099E00E94EF39B82E80E799E00E94B13A3A
:101020000130E1F1B7FEE3C061EF71E08BE699E0DA
:101030000E944536DCC080E799E00E94E9398330A0
:1010400009F0CDC080E799E00E94EF39182F80E7C2
:1010500099E00E94EF39612F70E0762F6627680FC4
:10106000711D072E000C880B990B0E9424466B0102
:101070007C0180E799E00E94EF39B82E80E799E083
:101080000E94B13A013071F620E030E040E85EE3C2
:10109000C701B6010E94D9466B017C016A2D70E040
:1010A00080E090E00E9422469B01AC0160E070E08D
:1010B00080E090E40E9446479B01AC01C701B60165
:1010C0000E947A456B017C01ADCF80E799E00E94D8
:1010D000E939833009F083C080E799E00E94EF3955
:1010E000182F80E799E00E94EF39612F70E0762F8A
:1010F0006627680F711D072E000C880B990B0E9444
:1011000024466B017C0180E799E00E94EF39B82EFC
:10111000013009F087CF20E030E040E85DE3B8CF50
:1011200080E799E00E94E939843009F058C080E7EF
:1011300099E00E94EF39182F80E799E00E94EF397B
:10114000F82E80E799E00E94EF39E82E80E799E0D9
:101150000E94EF39B82E80E799E00E94B13A8E2DB7
:1011600090E0A0E0B0E04F2D50E060E070E0C12ED4
:10117000D12CE12CF12C11FF13C0BA95762F652FDD
:10118000542F4427840F951FA61FB71F7601DD2417
:10119000CC24BC01CD016C0D7D1D8E1D9F1D13C087
:1011A0007601DD24CC24762F652F542F44274C0D57
:1011B0005D1D6E1D7F1D6A017B01C80ED91EEA1ED2
:1011C000FB1EC701B6010E9424466B017C01013061
:1011D00009F028CF20E030E040E85CE359CFC12C93
:1011E00080E4D82E8CE1E82E86ECF82E1BCFC701C8
:1011F000B6010F90DF91CF911F910F91FF90EF906B
:10120000DF90CF90BF90AF9008950F93022F242FBF
:10121000462F69E60E94FA060F910895CF93DF9357
:10122000EC0118826530710509F447C09CF4623006
:10123000710561F144F46115710509F44DC0613027
:101240007105E1F04CC06330710541F16430710506
:1012500069F145C06636710581F13CF4663071056F
:10126000A1F16536710511F13AC06936710571F069
:101270006A36710599F06736710589F58AE08B83C6
:1012800089E08C8380E18D8381E006C087E08B83D9
:1012900086E08C831D8282E0898321C084E08B8379
:1012A00085E08C8383E18D8383E0F6CF84E18B83BB
:1012B00083E18C831D8284E0EFCF82E18B8381E127
:1012C0008C838FE08D8385E0E7CF80E18B838FE097
:1012D0008C831D8286E0E0CF83E28B838C838FEF4B
:1012E0008A8380E090E0A0E8BFE38E839F83A88795
:1012F000B9871A861B861C861D868E879F87A88BBA
:10130000B98BFE01CE01C89640E050E060E87FE373
:10131000168A178A108E118E428F538F648F758FA5
:101320003896E817F907A1F78091960A9091970AE5
:1013300085FF60C061E089E00E947F2C61E086E06B
:101340000E947F2C61E085E00E947F2C61E083E1B8
:101350000E947F2C61E081E10E947F2C61E08FE0A0
:101360000E947F2C60E089E00E949A2C60E086E079
:101370000E949A2C60E085E00E949A2C60E083E154
:101380000E949A2C60E081E10E949A2C60E08FE03C
:101390000E949A2C61E08AE00E947F2C61E087E045
:1013A0000E947F2C61E084E00E947F2C61E084E158
:1013B0000E947F2C61E082E10E947F2C61E080E14D
:1013C0000E947F2C61E08AE00E949A2C61E087E015
:1013D0000E949A2C61E084E00E949A2C61E084E1F2
:1013E0000E949A2C61E082E10E949A2C61E080E1E7
:1013F0000E949A2C81E0888361E08B810E947F2C7F
:1014000061E08C810E947F2C61E08B810E949A2C8C
:1014100060E08C810E949A2C1092980ADF91CF9103
:1014200008954F925F926F927F928F929F92AF92A8
:10143000BF92CF92DF92EF92FF92CF93DF93EC01B6
:101440006A017B0120E030E04AE754ECC701B601B5
:101450000E947545882309F4A8C020E030E040EAE6
:1014600051E4C701B6010E94754587FF28C08A81F3
:1014700020E1829FC0011124FC01E557FC4F8590BB
:101480009590A590B490FC01E157FC4F6591759142
:1014900085919491A50194010E94084520E030E0D7
:1014A00040E252E40E947A452B013C0120E030E00A
:1014B00040EA51E4C701B6010E94094569C020E035
:1014C00030E040EA51E4C701B6010E94D44687FDEE
:1014D0002EC020E030E040E252E4C701B6010E9495
:1014E000754587FF24C08A8120E1829FC0011124B5
:1014F000FC01E157FC4F85909590A590B490FC01BC
:10150000ED56FC4F6591759185919491A5019401DB
:101510000E94084520E030E040EA51E40E947A450C
:101520002B013C0120E030E040EA51E42DC020E0F6
:1015300030E040E252E4C701B6010E94D44687FD84
:1015400034C08A8120E1829FC0011124FC01ED5644
:10155000FC4F85909590A590B490FC01E956FC4F06
:101560006591759185919491A50194010E9408451A
:1015700020E030E040E251E40E947A452B013C013A
:1015800020E030E040E252E4C701B6010E94084585
:101590009B01AC01C301B2010E94D9469B01AC0181
:1015A000C501B4010E94094503C060E070E0CB01B1
:1015B000DF91CF91FF90EF90DF90CF90BF90AF90F1
:1015C0009F908F907F906F905F904F9008954F9273
:1015D0005F926F927F928F929F92AF92BF92CF92C3
:1015E000DF92EF92FF92CF93DF93EC016A017B01D0
:1015F00020E030E04AE754ECC701B6010E9475458F
:10160000882309F4D7C020E030E0A901C701B60162
:101610000E94754587FF28C08A8124E1829FC0010E
:101620001124FC01E550FE4F85909590A590B49053
:10163000FC01E150FE4F6591759185919491A50152
:1016400094010E94084520E030E040E252E40E940C
:101650007A452B013C0120E030E040EA51E4C7012B
:10166000B6010E9409458CC020E030E0A901C70105
:10167000B6010E94D44687FD1AC020E030E040EA5F
:1016800051E4C701B6010E94754587FF10C08A81E9
:1016900024E1829FC0011124FC01E150FE4F85909E
:1016A0009590A590B490FC01ED5FFD4F23C020E024
:1016B00030E040EA51E4C701B6010E94D44687FDFC
:1016C0002EC020E030E040E252E4C701B6010E94A3
:1016D000754587FF24C08A8124E1829FC0011124BF
:1016E000FC01ED5FFD4F85909590A590B490FC01B5
:1016F000E95FFD4F6591759185919491A5019401E4
:101700000E94084520E030E040EA51E40E947A451A
:101710002B013C0120E030E040EA51E42DC020E004
:1017200030E040E252E4C701B6010E94D44687FD92
:1017300034C08A8124E1829FC0011124FC01E95F49
:10174000FD4F85909590A590B490FC01E55FFD4F0D
:101750006591759185919491A50194010E94084528
:1017600020E030E040E251E40E947A452B013C0148
:1017700020E030E040E252E4C701B6010E94084593
:101780009B01AC01C301B2010E94D9469B01AC018F
:10179000C501B4010E94094504C060E070E080E822
:1017A0009FE39B01AC0160E070E080E89FE30E9452
:1017B0007A4504C060E070E080E89FE3DF91CF915C
:1017C000FF90EF90DF90CF90BF90AF909F908F9061
:1017D0007F906F905F904F9008958F929F92AF92FD
:1017E000BF92FF920F931F93CF93DF9300D01F926E
:1017F000CDB7DEB7F62E49015A011B8202E09E01E9
:101800002F5F3F4F4CE46AE280E799E00E94AB3BD8
:1018100020E030E543EC57E4C501B4010E94754572
:101820001A811816CCF120E030E543EC57E4C501ED
:10183000B4010E947A4520E030E040E053E40E9489
:10184000D9460E94F3456B83FF20A9F014601983E9
:1018500001E09E012F5F3F4F41E46AE280E799E09B
:101860000E94623B9B8180E8891B8B839E012D5FD8
:101870003F4F40E01CC01061198301E09E012F5FC3
:101880003F4F41E46AE280E799E00E94623B9E019B
:101890002D5F3F4F40E10BC0FF2011F01B7F01C0C7
:1018A0001F7E1B8301E09E012D5F3F4F41E46AE2F2
:1018B00080E799E00E94623B0F900F900F90DF91BC
:1018C000CF911F910F91FF90BF90AF909F908F90FD
:1018D00008950F931F93CF93DF9300D0CDB7DEB75A
:1018E000162F02E09E012F5F3F4F4CE46AE280E733
:1018F00099E00E94AB3B8A818B3FA9F18B7F8B3EA5
:1019000091F1112329F09E012F5F3F4F4CE005C05C
:1019100002E09E012F5F3F4F4CE16AE280E799E0D1
:101920000E94AB3B8981682F70E0762F66278A8101
:10193000680F711D112331F080E890E09C01261B97
:10194000370BB90180E090E00E94224620E030E0B1
:1019500040E05CE30E94D94620E030E543EC57E4E8
:101960000E94D94604C060E074E284E799E40F90D5
:101970000F90DF91CF911F910F9108952F923F9279
:101980004F925F926F927F928F929F92AF92BF928F
:10199000CF92DF92EF92FF920F931F93CF93DF933B
:1019A00000D000D0CDB7DEB71C01762E69017A01D8
:1019B00043E060E083EE94E00E94DD0664E670E0C0
:1019C00080E090E00E94712B04E010E0812C912CCB
:1019D000540121E040E0672D84EE94E00E94050967
:1019E0009B01AC01C501B4010E9409454B015C019A
:1019F0000150110971F720E030E040E85EE30E94F9
:101A0000D94669837A838B839C8383EE94E00E941A
:101A10008406882341F0813071F4412C512C612CD3
:101A200085E4782E0BC0412C90E4592E9EE4692E5B
:101A300095E4792E03C0412C512C320183EE94E0C1
:101A40000E946806813049F0823061F0811114C033
:101A50002DEC3CEC4CE45EE309C020E030E040E0DB
:101A60005FE304C02FE135E84BE25FE3C301B2015D
:101A70000E94D9462B013C0183EE94E00E944C0663
:101A8000883058F494E0899FF0011124EE55FD4F01
:101A900080809180A280B38003C0812C912C54015E
:101AA00060E0F10184810E949A2CA3019201698176
:101AB0007A818B819C810E940845A50194010E9436
:101AC0007A454B015C0120E030E04AE754E4F10143
:101AD00062857385848595850E947A459B01AC015A
:101AE000C501B4010E9408454B015C01B701A60184
:101AF000C1010E94E70A9B01AC01C501B4010E942B
:101B0000D946F1012281222319F02950223008F40C
:101B1000905820E030E04AE754E40E94D946F101B1
:101B200026813781408551850E947A454B015C01B1
:101B3000B701A601C1010E94110A9B01AC01C501B8
:101B4000B4010E9408456B017C0120E030E0A9014E
:101B50000E94754587FF03C0C12CD12C7601C701B7
:101B6000B6010F900F900F900F90DF91CF911F91C2
:101B70000F91FF90EF90DF90CF90BF90AF909F902C
:101B80008F907F906F905F904F903F902F9008952F
:101B90007F928F929F92AF92BF92CF92DF92EF92FD
:101BA000FF920F931F93CF93DF93EC01762E4901A1
:101BB0005A0104E010E0C12CD12C760121E040E074
:101BC000672D84EE94E00E9405099B01AC01C701DA
:101BD000B6010E9409456B017C010150110971F7A2
:101BE00060E08C810E949A2C20E030E040E85EEBBF
:101BF000C701B6010E94D9462E893F89488D598D6B
:101C00000E9408452A8D3B8D4C8D5D8D0E947A4542
:101C10002A853B854C855D850E9408456B017C01CA
:101C2000B501A401CE010E94110A9B01AC01C701BC
:101C3000B6010E9408456B017C01B501A401CE01EB
:101C40000E94E70A9B01AC01C701B6010E94D94678
:101C50002E813F81488559850E947A456B017C0120
:101C600020E030E0A9010E94754587FF03C0C12C28
:101C7000D12C7601C701B601DF91CF911F910F9151
:101C8000FF90EF90DF90CF90BF90AF909F908F909C
:101C90007F900895BF92CF92DF92EF92FF920F93C1
:101CA0001F93CF93DF93EC01B62E04E010E0C12C1C
:101CB000D12C760121E040E06B2D84EE94E00E946F
:101CC00005099B01AC01C701B6010E9409456B01E2
:101CD0007C010150110971F760E08C810E949A2CFF
:101CE00020E030E040E85EE3C701B6010E94D9463B
:101CF0002E893F89488D598D0E9408452A8D3B8D3C
:101D00004C8D5D8D0E947A452A853B854C855D858D
:101D10000E9408452E813F81488559850E94D946F9
:101D20006B017C0120E030E0A9010E94754587FF2E
:101D300003C0C12CD12C7601C701B601DF91CF9130
:101D40001F910F91FF90EF90DF90CF90BF9008957B
:101D50003F924F925F926F927F928F929F92AF923B
:101D6000BF92CF92DF92EF92FF920F931F93CF9388
:101D7000DF9300D000D000D0CDB7DEB78C01362E77
:101D800049015A0143E060E083EE94E00E94DD06E1
:101D900061E0C8010E94690C2B013C0120E030E0A9
:101DA000A90161E0C8010E94ED0B68EE73E080E0DC
:101DB00090E00E94712B88E090E09A838983C12C87
:101DC000D12C760164E670E080E090E00E94712BF7
:101DD00021E040E0632D84EE94E00E9405099B0120
:101DE000AC01C701B6010E9409456B017C01E98184
:101DF000FA813197FA83E983EF2B21F7A30192014E
:101E000061E0C8010E94ED0B60E0C8010E94690C0E
:101E10002B013C0120E030E040E05EE3C701B60169
:101E20000E94D946A30192010E947A4520E030E049
:101E30004AE754EC0E94D946F80126893789408D3B
:101E4000518D0E940945F801228D338D448D558DA9
:101E50000E947A452B013C0160E0C8010E94690C98
:101E600069837A838B839C8320E030E0A90160E062
:101E7000C8010E94ED0B60ED77E080E090E00E94E9
:101E8000712B88E090E09E838D83C12CD12C76014C
:101E900064E670E080E090E00E94712B21E040E079
:101EA000632D84EE94E00E9405099B01AC01C701FB
:101EB000B6010E9409456B017C01ED81FE813197DD
:101EC000FE83ED83EF2B21F729813A814B815C81E1
:101ED00060E0C8010E94ED0B61E0C8010E94690C3E
:101EE00069837A838B839C8320E030E040E05EE36B
:101EF000C701B6010E94D94629813A814B815C8194
:101F00000E947A4520E030E04AE754E40E94D94636
:101F1000F801268D378D40A151A10E940945F80195
:101F200022A133A144A155A10E947A456B017C01F5
:101F300020E030E04AE754E4F80162857385848547
:101F400095850E947A459B01AC01C301B2010E94B4
:101F500008452B013C0120E030E04AE754E4F80159
:101F600066857785808991890E947A459B01AC01BD
:101F7000C701B6010E9408459B01AC01C301B20133
:101F80000E9408456B017C01B501A401C8010E94B3
:101F9000E70A9B01AC01C701B6010E94D94620E0C7
:101FA00030E04AE754E40E94D946F801268137819F
:101FB000408551850E947A456B017C0120E030E02C
:101FC000A9010E94754587FF03C0C12CD12C760161
:101FD00060E0F80184810E949A2CC701B601269620
:101FE0000FB6F894DEBF0FBECDBFDF91CF911F912A
:101FF0000F91FF90EF90DF90CF90BF90AF909F90A8
:102000008F907F906F905F904F903F900895AF9228
:10201000BF92CF92DF92EF92FF920F931F93CF93D5
:10202000DF9300D000D01F92CDB7DEB77C016C01EA
:1020300086E5C80ED11C01E0960140E060E580E72E
:1020400099E00E94AB3B97012E5F3F4F41E060E576
:1020500080E799E00E94AB3BF7018281843170F404
:10206000803108F0E3C08D30B1F008F45EC08E30EE
:1020700009F4DCC08F3009F0A9C10DC08C3F09F410
:1020800054C018F48B3F39F0A1C18D3F09F4CEC084
:102090008E3F09F09BC104E09E012F5F3F4F42E05D
:1020A00060E580E799E00E94AB3B89819A81AB8132
:1020B000BC81F70186839783A087B1879E012F5F3C
:1020C0003F4F48E060E580E799E00E94AB3B8981A3
:1020D0009A81AB81BC81F70182879387A487B587FA
:1020E0009E012F5F3F4F40E160E580E799E00E944D
:1020F000AB3B89819A81AB81BC81F701868B978B41
:10210000A08FB18F9E012F5F3F4F48E160E580E7D0
:1021100099E00E94AB3B89819A81AB81BC81F70138
:10212000828F938FA48FB58F51C104E09E012F5FE2
:102130003F4F42E060E580E799E00E94AB3B898138
:102140009A81AB81BC81F70186839783A087B18791
:102150009E012F5F3F4F48E060E580E799E00E94D5
:10216000AB3B89819A81AB81BC81F70182879387E0
:10217000A487B587570114E14CEF410F04E09E019D
:102180002F5F3F4F60E580E799E00E94AB3B89817C
:102190009A81AB81BC81F501868B978BA08FB18F23
:1021A0009E012F5F3F4F412F60E580E799E00E943D
:1021B000AB3B89819A81AB81BC81F501828F938F82
:1021C000A48FB58FF8E0AF0EB11C185F1C34A1F6D8
:1021D000F6018081833008F4F9C09E012F5F3F4FE4
:1021E00048E460E580E799E00E94AB3B89819A81F1
:1021F000AB81BC81F701E25BFF4F80839183A283B7
:10220000B3839E012F5F3F4F4CE460E580E799E088
:102210000E94AB3B89819A81AB81BC81F701EE5A68
:10222000FF4F80839183A283B383D0C004E09E01DB
:102230002F5F3F4F42E060E580E799E00E94AB3BB3
:1022400089819A81AB81BC81F70186839783A087BE
:10225000B1879E012F5F3F4F48E060E580E799E03E
:102260000E94AB3B89819A81AB81BC81F701828757
:102270009387A487B5879E012F5F3F4F4CE060E5B1
:1022800080E799E00E94AB3B89819A81AB81BC8158
:10229000F701828B938BA48BB58B9E012F5F3F4FF1
:1022A00040E160E580E799E00E94AB3B89819A813B
:1022B000AB81BC81F701868B978BA08FB18F9E017C
:1022C0002F5F3F4F44E160E580E799E00E94AB3B20
:1022D00089819A81AB81BC81F701828F938FA48F12
:1022E000B58F9E012F5F3F4F48E160E580E799E0A1
:1022F0000E94AB3B89819A81AB81BC81F701868FBB
:10230000978FA0A3B1A39E012F5F3F4F4CE160E5E3
:1023100080E799E00E94AB3B89819A81AB81BC81C7
:10232000F70182A393A3A4A3B5A39E012F5F3F4F00
:1023300040E460E580E799E00E94AB3B89819A81A7
:10234000AB81BC81F701E15AFF4F80839183A28367
:10235000B3839E012F5F3F4F48E360E580E799E03C
:102360000E94AB3B89819A81AB81BC81F701E55A20
:10237000FF4F80839183A283B3839E012F5F3F4FE2
:1023800044E460E580E799E00E94473D8981F701D8
:10239000ED59FF4F8083F70116861786108A118A40
:1023A000F6018081833091F49E012F5F3F4F40E31F
:1023B00060E580E799E00E94AB3B89819A81AB811F
:1023C000BC81F70186879787A08BB18BF60180814E
:1023D000833020F101E09E012B5F3F4F46E060E536
:1023E00080E799E00E94AB3BF70186813781208529
:1023F000918589833A832B839C832281F601908186
:102400009227892783272B81982F92272C81922727
:1024100081E02D81291719F080E001C081E00F9043
:102420000F900F900F900F90DF91CF911F910F9110
:10243000FF90EF90DF90CF90BF90AF9008958F9274
:102440009F92AF92BF92CF92DF92EF92FF920F9343
:102450001F93CF93DF937C014A01A62E072FFC0127
:102460008281982F9D7F9D3009F4E5C08B3F09F450
:10247000E2C08E3F09F4DFC061E0F70184810E9471
:102480009A2C64E670E080E090E00E94712B83EE6D
:1024900094E00E942506811107C060E0F701848165
:1024A0000E949A2C8FEFCDC020E030E04AE754EC38
:1024B000B4018A2D902F0E947545F701C2818111C8
:1024C0000AC0CE3021F180EF8C0F843038F1CA3051
:1024D00061F5D2E065C020E030E040EE50E4B401A8
:1024E0008A2D902F0E94D446181634F4CE3021F055
:1024F00080EF8C0F8430C8F4B4018A2D902F0E9495
:10250000F345D62FB82CC92CDA2C102F0FC0B12CC4
:1025100020E4C22E3CE1D32E17E44DC0B12C80E460
:10252000C82E9CE1D92E17E401C0D5E0C93019F1BD
:1025300050F4C63028F4C43050F5C230E1F424C061
:10254000C83010F518C0C031B1F140F4CD3018F4E6
:10255000CB3030F110C0CE3071F167C0C43118F407
:10256000C23190F128C0CC3F79F0CD3F09F05DC079
:1025700042E060E04EC042E06D2F83EE94E00E94A6
:102580009C0601E020E04BC042E06D2F42C042E0DB
:102590006D2F83EE94E00E949C0601E026E03FC090
:1025A00042E06D2F83EE94E00E949C0600E02AE05A
:1025B00041E060E036C041E060E083EE94E00E94DC
:1025C0009C0601E020E008C041E060E083EE94E07A
:1025D0000E949C0601E026E041E061E083EE94E089
:1025E0000E94B806F701EA5AFF4F80818330E9F074
:1025F0002B2D3C2D4D2D512F60E0C7010E94ED0B7E
:102600002B2D3C2D4D2D512F61E0C7010E94ED0B6C
:102610000CC083EE94E00E949C0601E028E041E0BB
:1026200061E083EE94E00E94B80643E060E083EE50
:1026300094E00E94DD0660E0F70184810E949A2CFC
:1026400081E0DF91CF911F910F91FF90EF90DF908C
:10265000CF90BF90AF909F908F9008958091960AF1
:102660009091970A61E085FF16C089E00E947F2C57
:1026700061E085E00E947F2C61E081E10E947F2C77
:1026800060E089E00E949A2C60E085E00E949A2C2C
:1026900060E081E12DC089E00E947F2C61E086E04E
:1026A0000E947F2C61E085E00E947F2C61E083E145
:1026B0000E947F2C61E081E10E947F2C61E08FE02D
:1026C0000E947F2C60E089E00E949A2C60E086E006
:1026D0000E949A2C60E085E00E949A2C60E083E1E1
:1026E0000E949A2C60E081E10E949A2C60E08FE0C9
:1026F0000E949A2C61E070E080E090E00E94712BD3
:1027000080E00895BF92CF92DF92EF92FF920F93F5
:102710001F93CF93DF93EC016A017B0161E08EE0B0
:102720000E947F2C61E08EE00E949A2C8091980A92
:10273000882309F48FC08091860A9091870A81FFCF
:1027400089C02091980A01E010E0C801098002C008
:10275000880F991F0A94E2F7822B8093980A809140
:10276000960A9091970A85FF0FC061E08D810E94C3
:102770009A2C8091920A098002C0000F111F0A94BE
:10278000E2F7082B0093920A60E08B810E949A2C5A
:10279000CE010E942E1361E08C810E949A2C64E687
:1027A00070E080E090E00E94712B83E0B82ECE01B3
:1027B0000E940710082F10E001301105C9F080E7D2
:1027C00099E00E944D3DBA94B110F1CF012B81F4F4
:1027D0002091980A81E090E0098002C0880F991F3B
:1027E0000A94E2F7809582238093980A10E043C010
:1027F00068EE73E080E090E00E94712B03E0B70187
:10280000A601CE010E941F12182F282F880F330B0C
:102810002130310551F48091980A098002C0220FBD
:10282000331F0A94E2F7282B12C080E799E00E9438
:102830004D3D015021F78091980A21E030E0098058
:1028400002C0220F331F0A94E2F720952823209319
:10285000980A11C040E060E085E197E00E94602F97
:1028600064E670E080E090E00E94712B85EE94E0D9
:102870000E94341B66CF812FDF91CF911F910F9162
:10288000FF90EF90DF90CF90BF90089540E050E030
:102890006AE774EC0C948213CF92DF92EF92FF926E
:1028A0000F93CF93DF9343E060E083EE94E00E94C8
:1028B000DD06C8E0D0E0C12CD12C760101E020E09B
:1028C00043E069E684EE94E00E94FA069B01AC01C5
:1028D000C701B6010E9409456B017C01219771F780
:1028E00020E030E040E05EEB0E94D94620E030E09E
:1028F0004CED52E40E947A45DF91CF910F91FF9009
:10290000EF90DF90CF900895CF92DF92EF92FF92F9
:102910000F93CF93DF9343E060E083EE94E00E9457
:10292000DD06C8E0D0E0C12CD12C760101E020E02A
:1029300043E06AE684EE94E00E94FA069B01AC0153
:10294000C701B6010E9409456B017C01219771F70F
:1029500020E030E040E05EEB0E94D94620E030E02D
:102960004CED52E40E947A45DF91CF910F91FF9098
:10297000EF90DF90CF9008958F929F92AF92BF9289
:10298000CF92DF92EF92FF920F931F93CF93DF933B
:10299000EC0149015A0143E060E083EE94E00E94BB
:1029A000DD06CE010E944C146B017C018E010D5995
:1029B0001F4FF80180818A3A59F434972081318180
:1029C00042815381C701B6010E9408456B017C0119
:1029D000CE010E948414F80120812A3A49F4FE01B4
:1029E000E55AFF4F20813181428153810E94084581
:1029F0009B01AC01C701B6010E9408456B017C0137
:102A0000B501A401CE010E94E70A9B01AC01C701F8
:102A1000B6010E94D94620E030E04AE754E40E9423
:102A2000D9462E813F81488559850E947A456B01A0
:102A30007C0120E030E0A9010E94754587FF03C0BA
:102A4000C12CD12C760160E08C810E949A2CC701A8
:102A5000B601DF91CF911F910F91FF90EF90DF9022
:102A6000CF90BF90AF909F908F9008956F927F927C
:102A70008F929F92AF92BF92DF92EF92FF920F934D
:102A80001F93CF93DF9300D000D0CDB7DEB7709106
:102A9000980AE72FF0E0DC0111960C9002C0F59542
:102AA000E7950A94E2F7E0FFA7C047015801D62E48
:102AB0003C0129833A834B835C830E942E136AE096
:102AC00070E080E090E00E94712B61E0F30184816E
:102AD0000E949A2C64E670E080E090E00E94712BE6
:102AE000D30112968C9129813A814B815C8184318A
:102AF00060F4803108F072C08D3041F190F08E307A
:102B000009F44EC08F30B9F17CC08C3F51F018F4FD
:102B10008B3F89F176C08D3F09F442C08E3FB1F002
:102B200070C06D2DC3010F900F900F900F90DF912B
:102B3000CF911F910F91FF90EF90DF90BF90AF90DA
:102B40009F908F907F906F900C94BE0C6D2DC30161
:102B50000F900F900F900F90DF91CF911F910F91D9
:102B6000FF90EF90DF90BF90AF909F908F907F90FD
:102B70006F900C94C80D6D2DC3010F900F900F90A6
:102B80000F90DF91CF911F910F91FF90EF90DF9009
:102B9000BF90AF909F908F907F906F900C944A0E53
:102BA000F301EA5AFF4F8081833019F485017401E3
:102BB0001EC06D2DC3010F900F900F900F90DF91ED
:102BC000CF911F910F91FF90EF90DF90BF90AF904A
:102BD0009F908F907F906F900C94A80EF301EA5A0B
:102BE000FF4F8081833029F7E12CF12C87016D2D77
:102BF000C3010E94BC1408C060E070E080E89FEB55
:102C000003C060E070E0CB010F900F900F900F9029
:102C1000DF91CF911F910F91FF90EF90DF90BF90C8
:102C2000AF909F908F907F906F900895EF92FF925A
:102C30000F931F93CF93DF93EC0140E061E085EEAB
:102C400094E00E945A1B9B01AC01E12CF12C00E0A6
:102C500010E462E0CE010E943615DF91CF911F9102
:102C60000F91FF90EF9008958F929F92AF92BF9235
:102C7000CF92DF92EF92FF920F931F93FC0100819E
:102C8000118120E030E06A017B0184E0F594E79453
:102C9000D794C7948A95D1F7C01AD10AE20AF30AE9
:102CA00093E075956795579547959A95D1F7000FDD
:102CB000111F221F331FDB01CA01801B910BA20BC6
:102CC000B30B9C01AD01A281B3810E9467494B0106
:102CD0005C01BBE0B594A79497948794BA95D1F71B
:102CE000A7019601C701B6010E94CB489B01AC0128
:102CF0001CE055954795379527951A95D1F7A481EE
:102D0000B5810E946749AB01BC010EE075956795DE
:102D1000579547950A95D1F79A01AB01280D391DB2
:102D20004A1D5B1D21A332A343A354A3A5E0B0E039
:102D30000E945C49DC01CB0180589F4FAF4FBF4FD1
:102D4000692F7A2F8B2F992787FD9A950E94244609
:102D500020E030E048EC52E40E947A451F910F9148
:102D6000FF90EF90DF90CF90BF90AF909F908F90AB
:102D700008952F923F924F925F926F927F928F921F
:102D80009F92AF92BF92CF92DF92EF92FF920F93FA
:102D90001F93CF93DF93CDB7DEB7A4970FB6F89408
:102DA000DEBF0FBECDBF9A8389834C8F5D8F6E8F40
:102DB0007F8FFC0181A192A1A3A1B4A16C017D012F
:102DC000FF0CCC08DC2C76019C01AD016C2D7C2D18
:102DD0008C2D9C2D345F4140510961097109810995
:102DE00091092CA33BA34B835C836D837E838F83EC
:102DF000988759016A017B018C010E946F492C8BD5
:102E00003D8B4E8B5F8B688F798F8A8F9B8FE9818B
:102E1000FA81F089F8A3E981FA81F189F987E981DA
:102E2000FA81F685F9A3E981FA81F785FA87E981C4
:102E3000FA81F485FAA3E981FA81F585FB87E981B6
:102E4000FA81B184A0841B2D110F110BC12ED12E3C
:102E5000E12EF12E012F2CA13BA14B815C816D81D4
:102E60007E818F8198850E946F490CE00E949F4A65
:102E700019012A013B014C01E981FA81B384A28442
:102E80001B2D110F110BC12ED12EE12EF12E012F72
:102E90002C893D894E895F89688D798D8A8D9B8DBE
:102EA0000E946F4908E00E94B84A51016201730113
:102EB00084010E94D64A70588F4F9F4FE981FA8152
:102EC000268037805101C12CD12CE12CF12C00E05F
:102ED00010E00E946F4901E20E94B84A2C873D87AA
:102EE0004E875F87688B798B8A8B9B8BA0E00E94D3
:102EF000E84A09F451C1A8A01985110F110BB98432
:102F0000C12ED12EE12EF12E012F2C893D894E8923
:102F10005F89688D798D8A8D9B8D0E946F4919011B
:102F20002A013B014C01A9A01A85110F110BBA848B
:102F3000C12ED12EE12EF12E012F2CA13BA14B81D0
:102F40005C816D817E818F8198850E946F4901E14E
:102F50000E949F4A59016A017B018C019101A201E3
:102F6000B301C4010E94D64A19012A013B014C0158
:102F700080E090E0A0E1B0E02C8D3D8D4E8D5F8D26
:102F8000821B930BA40BB50B6C017D01FF0CCC08CD
:102F9000DC2C76019C01AD016C2D7C2D8C2D9C2DA3
:102FA0000FE10E949F4AF901B42FA52F6E837F8302
:102FB0008B839C832AA19B85990F990B3B85492F75
:102FC000592F692F792F892F03E20E949F4A5901B7
:102FD0006A017B018C019101A201B301C4010E942D
:102FE000D64A59016A017B018C019F014B2F5A2F50
:102FF0006E817F818B819C810E94DF4A4901542E22
:10300000652EB62FA72FF82FE92F03E00E949F4AC5
:103010005401C52CD62CEB2EFA2E0F2F1E2F0E94FA
:10302000DF4A59016A017B01782E192F03E00E94C3
:103030009F4A072D0E94DF4A03E00E949F4A5401E5
:10304000C52CD62CEB2EFA2E0F2F1E2F0E94DF4AF6
:1030500002E00E949F4A0F2F0E94DF4A01E00E9477
:103060009F4A0F2F0E94DF4AAC84BD84CE84DF8448
:10307000E888F9880A891B890E94CA492A87398702
:103080004B835C836D837E838F8398870DE00E94E2
:10309000B84A922E832E742E652E562E472E382E29
:1030A000292EE981FA8137892689932F990F990B67
:1030B000A92CB82CC72CD62CE52CF42C032D122DC2
:1030C000492F592F692F792F892F0E946F490E940C
:1030D0006F4909E10E94B84A59016A017B018C01DC
:1030E0002A8539854B815C816D817E818F819885B0
:1030F0000E94D64A19012A013B014C01E981FA815B
:1031000035892489932F990F990BAA84B984CB8090
:10311000DC80ED80FE800F811885492F592F692FA3
:10312000792F892F0E946F4903E10E94B84A590103
:103130006A017B018C019101A201B301C4010E94CB
:10314000D64A08E00E94B84A522E632E742E852E6D
:10315000962E472EDC01E981FA8133892289932F4B
:10316000990F990B492F592F692F792F892F04E037
:103170000E949F4A59016A017B018C01252D362D41
:10318000472D582D692D742DCD010E94D64AB901C5
:10319000CA010E94224603C060E070E0CB01A49601
:1031A0000FB6F894DEBF0FBECDBFDF91CF911F9158
:1031B0000F91FF90EF90DF90CF90BF90AF909F90D6
:1031C0008F907F906F905F904F903F902F900895D9
:1031D0004F925F926F927F928F929F92AF92BF9227
:1031E000CF92DF92EF92FF92FC0181A092A0A3A068
:1031F000B4A02CE2921A21E0A20AB1086A017B0174
:103200003EE0CC0CDD1CEE1CFF1C3A95D1F7848D02
:10321000958D092E000CAA0BBB0B44E1880F991F5A
:10322000AA1FBB1F4A95D1F7C81AD90AEA0AFB0A96
:10323000A68DB78DA50194010E946749C61AD70AC9
:10324000E80AF90A30E4D30EE11CF11C5FE0F594C2
:10325000E794D794C7945A95D1F7A0A10A2E000CF1
:10326000BB0BA50194010E9467492B013C016AE058
:1032700075946794579447946A95D1F7A38DB0E0FD
:103280000E945C49DC01CB017BE0B595A795979541
:1032900087957A95D1F7BC01CD0170588F4F9F4F1C
:1032A000A30192010E94CB48DC01CB012AE0B59535
:1032B000A795979587952A95D1F79C01AD01405E1A
:1032C0005F4FA18DB28D0E946749DC01CB01905EFA
:1032D000AF4FBF4FBC01CD013EE0959587957795E7
:1032E00067953A95D1F7A70196010E94CB486B01EB
:1032F0007C014FE095958795779567954A95D1F72D
:103300009B01AC010E94CB489B01AC0167E0559545
:103310004795379527956A95D1F7A08DB0E00E9423
:103320005C49DC01CB0174E0B595A795979587952D
:103330007A95D1F7A7019601281B390B4A0B5B0B35
:10334000DA01C90157FD0BC081309105A10539E1B2
:10335000B30744F080E090E0A0E0B9E103C080E072
:1033600090E0DC01BC01CD012CE095958795779527
:1033700067952A95D1F70E942446FF90EF90DF9041
:10338000CF90BF90AF909F908F907F906F905F9005
:103390004F9008950F93CF93DF931F92CDB7DEB771
:1033A00001E09E012F5F3F4F40ED67E780E799E026
:1033B0000E94AB3B81E09981903609F080E00F904C
:1033C000DF91CF910F910895EF92FF920F93CF93DA
:1033D000DF9300D000D0CDB7DEB77C0102E09E01C4
:1033E0002F5F3F4F48E867E780E799E00E94AB3BDB
:1033F0008A8190E0982F88272981820F911DF701FB
:10340000918380839E012F5F3F4F4AE867E780E703
:1034100099E00E94AB3B8A8190E0982F8827298110
:10342000820F911DF701938382839E012F5F3F4F8F
:103430004CE867E780E799E00E94AB3B8A8190E027
:10344000982F88272981820F911DF7019583848306
:103450009E012F5F3F4F4EE867E780E799E00E94AB
:10346000AB3B8A8190E0982F88272981820F911D9C
:10347000F701978386839E012F5F3F4F40E967E7FF
:1034800080E799E00E94AB3B8A8190E0982F8827E3
:103490002981820F911DF701918780879E012F5FFF
:1034A0003F4F42E967E780E799E00E94AB3B8A81A2
:1034B00090E0982F88272981820F911DF70193872B
:1034C00082879E012F5F3F4F44E967E780E799E0DD
:1034D0000E94AB3B8A8190E0982F88272981820F38
:1034E000911DF701958784879E012F5F3F4F46E925
:1034F00067E780E799E00E94AB3B8A8190E0982FD4
:1035000088272981820F911DF701978786879E0161
:103510002F5F3F4F48E967E780E799E00E94AB3BA8
:103520008A8190E0982F88272981820F911DF701C9
:10353000918B808B9E012F5F3F4F4AE967E780E7C1
:1035400099E00E94AB3B8A8190E0982F88272981DF
:10355000820F911DF701938B828B9E012F5F3F4F4E
:103560004CE967E780E799E00E94AB3B8A8190E0F5
:10357000982F88272981820F911DF701958B848BC5
:103580009E012F5F3F4F4EE967E780E799E00E9479
:10359000AB3B8A8190E0982F88272981820F911D6B
:1035A000F701978B868B9701285E3F4F01E041EA38
:1035B00067E780E799E00E94AB3B02E09E012F5F46
:1035C0003F4F41EE67E780E799E00E94AB3B8A817D
:1035D00090E0982F88272981820F911DF701928F03
:1035E000818F9701255E3F4F01E043EE67E780E75B
:1035F00099E00E94AB3B03E09E012F5F3F4F44EEFA
:1036000067E780E799E00E94AB3B2A813981822FEE
:103610008F7090E0F0E13F9F800D911D1124F70124
:10362000958F848F207F8B8190E0F0E12F9F800D1C
:10363000911D1124F701978F868F01E09E012F5F66
:103640003F4F47EE67E780E799E00E94AB3B8981F7
:10365000F70180A30F900F900F900F90DF91CF9103
:103660000F91FF90EF9008950F931F93CF938C01CC
:103670008091860A9091870A81FD06C040E060E053
:1036800085E197E00E94602F64E670E080E090E0C2
:103690000E94712BC8010E94CA19C82F813021F4E1
:1036A000C8010E94E41901C0C0E08C2FCF911F9186
:1036B0000F9108954F925F926F927F92AF92BF9257
:1036C000CF92DF92EF92FF920F93CF93DF9300D0D0
:1036D0001F92CDB7DEB76C01F62E0E94CA19813059
:1036E00009F0C3C043E0E42E00E020E042EF67E7CA
:1036F00080E799E00E94A83C02E020E044EF67E701
:1037000080E799E00E94A83C05E02F2D44EF67E791
:1037100080E799E00E94A83C02E020E045EF67E7DF
:1037200080E799E00E94A83C52E0E52E00E021E00D
:1037300044EF67E780E799E00E94A83CEF2CF12C6A
:1037400081E0E81AF10882E090E05C010E2C02C0F2
:10375000AA0CBB1C0A94E2F7B5016E5F7F4F072EDF
:10376000000C880B990B0E94712B03E09E012F5FC8
:103770003F4F43EF67E780E799E00E94F13C898182
:10378000813069F103E09E012F5F3F4F4AEF67E709
:1037900080E799E00E94AB3B498150E060E070E037
:1037A000BA01552744278A8190E0A0E0B0E0BA2F03
:1037B000A92F982F8827480F591F6A1F7B1F8B81BD
:1037C000480F511D611D711D34E075956795579522
:1037D00047953A95D1F7C6010E9434164AC061E078
:1037E00070E002C0660F771FEA94E2F7072E000C24
:1037F000880B990B0E94244623E333E343E150E412
:103800000E94D94620E030E040EA5FE30E9409458B
:103810002B013C01C5010196BC01990F880B990B46
:103820000E9424469B01AC01C301B2010E940845DD
:103830000E94EC456F5F7F4F072E000C880B990BA1
:103840000E94712B03E09E012F5F3F4F43EF67E71C
:1038500080E799E00E94F13C8981813009F092CFA4
:1038600060E070E48AE794EC04C060E070E08AE70E
:1038700094EC0F900F900F90DF91CF910F91FF90EC
:10388000EF90DF90CF90BF90AF907F906F905F9060
:103890004F9008954F925F926F927F928F929F9276
:1038A000AF92BF92CF92DF92EF92FF920F93CF939E
:1038B000DF93CDB7DEB727970FB6F894DEBF0FBE04
:1038C000CDBF6C01F62E0E94CA19813009F01FC1CC
:1038D000B3E0EB2E00E020E042EF67E780E799E0FD
:1038E0000E94A83C02E02F2D44EF67E780E799E0B3
:1038F0000E94A83C05E02F2D44EF67E780E799E0A0
:103900000E94A83C02E020E045EF67E780E799E0ED
:103910000E94A83C02E0E02E00E021E044EF67E7CF
:1039200080E799E00E94A83CEF2CF12C81E0E81A96
:10393000F10882E090E05C010E2C02C0AA0CBB1CD6
:103940000A94E2F7B5016F5F7F4F072E000C880BDA
:10395000990B0E9424462B013C01B501BB0C880B3E
:10396000990B0E94244620E030E040E05FE30E9493
:1039700009459B01AC01C301B2010E9409454B01FD
:103980005C010E94EC456F5F7F4F072E000C880B97
:10399000990B0E94712B03E09E012F5F3F4F43EF75
:1039A00067E780E799E00E94F13C8981813009F462
:1039B0005EC003E09E012F5F3F4F4AEF67E780E75D
:1039C00099E00E94AB3B498150E060E070E0BA01B1
:1039D000552744278A8190E0A0E0B0E0BA2FA92FB4
:1039E000982F8827480F591F6A1F7B1F8B81480F0C
:1039F000511D611D711D34E075956795579547956B
:103A00003A95D1F7C6010E9434169E012F5F3F4FB1
:103A100047EF67E780E799E00E94AB3B498150E0C0
:103A200060E070E0BA01552744278A8190E0A0E069
:103A3000B0E0BA2FA92F982F8827480F591F6A1F67
:103A40007B1F8B81480F511D611D711DA4E0759571
:103A5000679557954795AA95D1F7C6010E94B91663
:103A600020E030E040E85BE30E94D94654C081E0AA
:103A700090E002C0880F991FEA94E2F7BC01990F09
:103A8000880B990B0E94244623E333E343E150E47F
:103A90000E94D9462B013C0120E030E040EA5FE380
:103AA0000E9409456C837D838E839F8323E333E3E8
:103AB00043E15FE3C301B2010E9409459B01AC01F0
:103AC0006C817D818E819F810E940945A5019401B1
:103AD0000E9408450E94EC456F5F7F4F072E000C47
:103AE000880B990B0E94712B03E09E012F5F3F4FC3
:103AF00043EF67E780E799E00E94F13C89818130DC
:103B000009F057CF60E070E48AE794EC04C060E00D
:103B100070E08AE794EC27960FB6F894DEBF0FBEEC
:103B2000CDBFDF91CF910F91FF90EF90DF90CF90BD
:103B3000BF90AF909F908F907F906F905F904F90CD
:103B400008954F925F926F927F928F929F92AF9261
:103B5000BF92CF92DF92EF92FF920F93CF93DF93BA
:103B6000CDB7DEB727970FB6F894DEBF0FBECDBF37
:103B70006C01F62E0E94CA19813009F00EC1F3E0E3
:103B8000EF2E00E02F2D42EF67E780E799E00E94DB
:103B9000A83C02E020E044EF67E780E799E00E945C
:103BA000A83C05E02F2D44EF67E780E799E00E94ED
:103BB000A83C02E020E045EF67E780E799E00E943B
:103BC000A83CA2E0EA2E00E021E044EF67E780E7AE
:103BD00099E00E94A83CEF2CF12C81E0E81AF10852
:103BE00082E090E05C010E2C02C0AA0CBB1C0A947F
:103BF000E2F7B5016F5F7F4F072E000C880B990B22
:103C00000E9424462B013C01B501BB0C880B990B8B
:103C10000E94244620E030E040E05FE30E94094536
:103C20009B01AC01C301B2010E9409454B015C013B
:103C30000E94EC456F5F7F4F072E000C880B990B9D
:103C40000E94712B03E09E012F5F3F4F43EF67E718
:103C500080E799E00E94F13C8981813009F44DC0F0
:103C600003E09E012F5F3F4F4AEF67E780E799E04F
:103C70000E94AB3B498150E060E070E0BA015527FB
:103C800044278A8190E0A0E0B0E0BA2FA92F982FB6
:103C90008827480F591F6A1F7B1F8B81480F511DB2
:103CA000611D711D34E075956795579547953A9557
:103CB000D1F7C6010E94341602E09E012F5F3F4FEC
:103CC0004DEF67E780E799E00E94AB3B498150E008
:103CD00060E070E0762F652F542F44278A81480FCB
:103CE000511D611D711DC6010E94E81820E030E0E1
:103CF00040E85AE30E94D94654C081E090E002C0F7
:103D0000880F991FEA94E2F7BC01990F880B990B71
:103D10000E94244623E333E343E150E40E94D94662
:103D20002B013C0120E030E040EA5FE30E940945BE
:103D30006C837D838E839F8323E333E343E15FE3DF
:103D4000C301B2010E9409459B01AC016C817D81D8
:103D50008E819F810E940945A50194010E9408451A
:103D60000E94EC456F5F7F4F072E000C880B990B6C
:103D70000E94712B03E09E012F5F3F4F43EF67E7E7
:103D800080E799E00E94F13C8981813009F068CF99
:103D900060E070E48AE794EC04C060E070E08AE7D9
:103DA00094EC27960FB6F894DEBF0FBECDBFDF911F
:103DB000CF910F91FF90EF90DF90CF90BF90AF9099
:103DC0009F908F907F906F905F904F900895EAE062
:103DD000F5E0148282E090E0918380831382128266
:103DE0000895CF93DF93EC018FE699E00E94CC36E3
:103DF000688179818A819B814C81DF91CF910C947C
:103E0000272DFC0184810E949B2D40E060E08FE61D
:103E100099E00C94A736FB0101900020E9F79F017F
:103E2000261B370B24503109FB01319680E0AF018E
:103E3000461B570B4217530718F491918927F7CF68
:103E40000895CF93DF93DC0180E0FB01E80FF11DC3
:103E50009081903B11F08F5FF8CF9181933BD9F720
:103E6000EF012197188232971082FB01349620E0EF
:103E700030E08191803B21F0280F311D3F77F9CF51
:103E80009081933BC9F72F3F310529F024F0199613
:103E90003C93199703C019961C9219971A962C9364
:103EA000DF91CF9108950F931F93CF93DF938C01F0
:103EB000EB010E940B1FF8018087282F22952F709D
:103EC000982F9F702A3010F4205D01C0295C9A3031
:103ED00010F4905D01C0995CFE0101900020E9F7AB
:103EE0003197EC1BFD0BAE014E0F511DFA013297BD
:103EF000208331969083CE01DF91CF911F910F9156
:103F000008953F924F925F926F927F928F929F920D
:103F1000AF92BF92CF92DF92EF92FF920F931F93D7
:103F2000CF93DF93CDB7DEB761970FB6F894DEBFBE
:103F30000FBECDBF7C011B861C861D861E861F867C
:103F4000188A198A0E94202B2B013C016E0121E165
:103F5000C20ED11C86E0382E5E0135E0A30EB11CE6
:103F60009FEC892E94E0992E0E94202BDC01CB013E
:103F700084199509A609B709803D9740A105B105A7
:103F800010F010E04DC0F70184810E94C92D181671
:103F900019060CF070C0F70184810E94E52D8B8713
:103FA000843209F068C0F70184810E94C92D059709
:103FB0000CF452C08E01045F1F4FF70184810E94F0
:103FC000E52DF80181938F01EC15FD05B1F7198AF4
:103FD00019821A821B821C82F501232D11922A95C7
:103FE000E9F7F40165917491CE0101960E94794B35
:103FF000BE016F5F7F4FCE010B960E949C4B11E07C
:10400000892BC9F50E94202B641575058605970537
:1040100020F40E94202B2B013C01112309F4A4CF92
:104020008B858432B9F4112399F00E94202B4B0127
:104030005C01D12C0E94202BDC01CB01881999094D
:10404000AA09BB09803D9740A105B105B0F03BC06E
:104050008FEFBCC18EEFBAC10E94202BDC01CB01D7
:1040600084199509A609B709803D9740A105B105B6
:1040700008F499CF9FCF10E0C5CFF70184810E944B
:10408000C92D181619060CF09FC10D2D10E0F7016F
:1040900084810E94E52DF801EE0DFF1D83878A3291
:1040A00009F088C1148611E0D3940E94202B681572
:1040B00079058A059B0520F40E94202B4B015C01A9
:1040C000112309F47CC16701FBE0CF0ED11CF6017E
:1040D00001900020E9F73197AF014C195D09B60155
:1040E000870105551F4FC8010E94A54BF60101909D
:1040F0000020E9F73197EC19FD09EE0DFF1DE5559C
:10410000FF4F108262EC72E0C8010E94804B8C016C
:1041100064EC72E00E949C4B97012A533E4F690168
:10412000892B09F1F80101900020E9F73197AF01DF
:10413000401B510BB801C701835B9E4F0E94A54BEA
:10414000F80101900020E9F73197E01BF10BEE0D2B
:10415000FF1DE35BFE4F108262EC72E080E090E0B6
:104160000E94804B8C01F80101900020E9F7319703
:10417000AF01401B510BB801C6010E94A54BF801CD
:1041800001900020E9F73197E01BF10BEE0DFF1DC8
:10419000EA53FE4F1082F6019081913409F004C178
:1041A00062EC72E080E090E00E94804B8C01FC01A8
:1041B00001900020E9F73197AF01481B590BBC0172
:1041C000C70181599E4F0E94A54BF8010190002024
:1041D000E9F73197E01BF10BEE0DFF1DE159FE4FA2
:1041E000108262EC72E080E090E00E94804BFC0163
:1041F0008081F701E658FE4F808362EC72E080E038
:1042000090E00E94804B8C01FC0101900020E9F7B6
:104210003197AF01481B590BBC01C70185589E4F10
:104220000E94A54BF80101900020E9F73197E01BAF
:10423000F10BEE0DFF1DE558FE4F108262EC72E0AF
:1042400080E090E00E94804BFC018081F701EA57FA
:10425000FE4F808362EC72E080E090E00E94804B31
:104260008C01FC0101900020E9F73197AF01481B58
:10427000590B6701F9E7CF1AFEEFDF0ABC01C6014F
:104280000E94A54BF80101900020E9F73197E01B4F
:10429000F10BEE0DFF1DE957FE4F1082C6010E9483
:1042A0004E4B26E53EE04DEE5FE30E94D946AB0162
:1042B000BC0102E010E096018FE699E00E94F03820
:1042C000F60101900020E9F73197EC19FD099701FB
:1042D0002E0F311DF901E957FE4F108262EC72E09A
:1042E00080E090E00E94804B8C01FC010190002056
:1042F000E9F73197AF01481B590BBC01C701815544
:104300009E4F0E94A54BF80101900020E9F73197DC
:10431000E01BF10BEE0DFF1DE155FE4F108262EC2C
:1043200072E080E090E00E94804B8C01FC010190E3
:104330000020E9F73197AF01481B590BBC01C701B9
:10434000885A9E4F0E94A54BF80101900020E9F782
:104350003197E01BF10BEE0DFF1DE85AFE4F108266
:1043600062EC72E080E090E00E94804B8C01FC01E6
:1043700001900020E9F73197AF01481B590BBC01B0
:10438000C7018D539E4F0E94A54BF801019000205C
:10439000E9F73197E01BF10BEE0EFF1EF701ED532D
:1043A000FE4F108281E012C081E0963509F480E072
:1043B00081950CC0843209F475CE10E075CEF1E51C
:1043C000FD1508F480CE36CE10E06FCE61960FB6A4
:1043D000F894DEBF0FBECDBFDF91CF911F910F913B
:1043E000FF90EF90DF90CF90BF90AF909F908F9015
:1043F0007F906F905F904F903F9008953F924F92C3
:104400005F926F927F928F929F92AF92BF92CF9264
:10441000DF92EF92FF920F931F93CF93DF93CDB76D
:10442000DEB761970FB6F894DEBF0FBECDBF8C012B
:104430001B861C861D861E861F86188A198A0E9466
:10444000202B2B013C016E0121E1C20ED11C86E024
:10445000382E5E0135E0A30EB11C91ED892E94E05B
:10446000992E0E94202BDC01CB0184199509A60905
:10447000B709803D9740A105B10510F0F12C4FC060
:10448000F80184810E94C92D181619060CF072C01B
:10449000F80184810E94E52D8B87843209F06AC07F
:1044A000F80184810E94C92D05970CF454C09E0127
:1044B000245F3F4F7901F80184810E94E52DF701C7
:1044C00081937F01EC15FD05B1F7198A19821A82D3
:1044D0001B821C82F501232D11922A95E9F7F40124
:1044E00065917491CE0101960E94794BBE016F5F78
:1044F0007F4FCE010B960E949C4BFF24F394892B97
:10450000C9F50E94202B641575058605970520F4D2
:104510000E94202B2B013C01FF2009F4A2CF8B85A8
:104520008432B9F4FF2099F00E94202B4B015C01EA
:10453000D12C0E94202BDC01CB0188199909AA09F2
:10454000BB09803D9740A105B105B0F03CC08FEF9D
:1045500091C18EEF8FC10E94202BDC01CB01841909
:104560009509A609B709803D9740A105B10508F452
:1045700097CF9DCFF12CC5CFF80184810E94C92D22
:10458000181619060CF074C1ED2CF12CF801848179
:104590000E94E52DF701E00FF11F83878A3209F0B1
:1045A0005DC11486FF24F394D3940E94202B6815D8
:1045B00079058A059B0520F40E94202B4B015C01A4
:1045C000FF2009F450C16801FBE0CF0ED11CF601B9
:1045D00001900020E9F73197AF014C195D09B60150
:1045E00078012BEAE20EF11CC7010E94A54BF601EF
:1045F00001900020E9F73197EC19FD09E00FF11F58
:10460000E555FF4F108262EC72E0C7010E94804BBB
:104610007C0163ED72E00E949C4BF801EA53FE4F6F
:104620006F01892B51F4F70101900020E9F73197D0
:10463000AF014E195F09B70130C0F70101900020AA
:10464000E9F73197AF014E195F09B701C801835BE4
:104650009E4F0E94A54BF70101900020E9F731978A
:10466000EE19FF09E00FF11FE35BFE4F108262ECD1
:1046700072E080E090E00E94804B7C0163ED72E08C
:104680000E949C4BF70101900020E9F73197AF01A0
:104690004E195F09B701892B91F4C6010E94A54B01
:1046A000F70101900020E9F73197EE19FF090E0F8D
:1046B0001F1FF801EA53FE4F108280E0DBC0C801E3
:1046C00081599E4F0E94A54BF70101900020E9F708
:1046D0003197EE19FF09E00FF11FE159FE4F1082EB
:1046E00062EC72E080E090E00E94804BFC018081EF
:1046F000F801E658FE4F808362EC72E080E090E0C3
:104700000E94804B7C01FC0101900020E9F7319769
:10471000AF01481B590BBC01C80185589E4F0E9430
:10472000A54BF70101900020E9F73197EE19FF0939
:10473000E00FF11FE558FE4F108262EC72E080E05E
:1047400090E00E94804BFC018081F801EA57FE4F07
:10475000808362EC72E080E090E00E94804B7C01FC
:10476000FC0101900020E9F73197AF01481B590B7C
:10477000BC01C6010E94A54BF70101900020E9F79A
:104780003197EE19FF09E00FF11FEA53FE4F108237
:1047900062EC72E080E090E00E94804B7C01FC01C2
:1047A00001900020E9F73197AF01481B590BBC017C
:1047B000C80188539E4F0E94A54BF701019000202D
:1047C000E9F73197EE19FF09E00FF11FE853FE4FAB
:1047D000108262EC72E080E090E00E94804B7C01ED
:1047E000FC0101900020E9F73197AF01481B590BFC
:1047F000BC01C80185539E4F0E94A54BF701019053
:104800000020E9F73197EE19FF09E00FF11FE5539A
:10481000FE4F108262EC72E080E090E00E94804BDC
:104820007C01FC0101900020E9F73197AF01481BA2
:10483000590BBC01C80185569E4F0E94A54BF7013C
:1048400001900020E9F73197EE19FF090E0F1F1FA5
:10485000F801E556FE4F108281E00CC0843209F465
:10486000A0CEF12CA1CEF1E5FD1508F4ACCE61CEC1
:10487000F12C9BCE61960FB6F894DEBF0FBECDBF74
:10488000DF91CF911F910F91FF90EF90DF90CF902C
:10489000BF90AF909F908F907F906F905F904F9060
:1048A0003F9008958F929F92AF92BF92DF92EF92C6
:1048B000FF920F931F93CF93DF93CDB7DEB72A9765
:1048C0000FB6F894DEBF0FBECDBF7C014B018C014B
:1048D000055F1F4F80EAD82ED801ED2D1D92EA9575
:1048E000E9F719821A821B821C82FE01359686E046
:1048F000DF011D928A95E9F7EBEDF4E06591749183
:10490000FE0131965F01CF010E94794BB401C701CE
:104910000E94531F9F938F93BF92AF921F92DF927B
:104920001F930F930E94E34BD70114968C910E9422
:104930001E2EF7016481C8010E94C12E64E670E05A
:1049400080E090E00E94712B0FB6F894DEBF0FBE9E
:10495000CDBF2A960FB6F894DEBF0FBECDBFDF9154
:10496000CF911F910F91FF90EF90DF90BF90AF908C
:104970009F908F900895EF92FF920F931F93CF9384
:10498000DF937C01EB018A010E94211FF7018185E1
:104990000C0F1D1FF80134978083F7018285F80101
:1049A0003397808381E00E941E2EC017D10729F023
:1049B00061E089910E94B42EF8CFDF91CF911F91D1
:1049C0000F91FF90EF9008950F931F93CF93DF9374
:1049D000CDB7DEB7A8970FB6F894DEBF0FBECDBF38
:1049E000462F50E0FC01258136814217530709F418
:1049F0006CC08C016623B9F1613009F068C081E0B8
:104A000090E09683858380E2EBE0F2E0DE01119690
:104A100001900D928A95E1F740E250E0BE016F5F90
:104A20007F4FC8010E94BB2464E670E080E090E004
:104A30000E94712BF80184810E949B2D6AE070E036
:104A400080E090E00E94712B80EC92E1A0E0B0E069
:104A5000F80180839183A283B383448160EC72E187
:104A600080E090E02FC0FC0116821582EBECF4E0B0
:104A700065917491CE0101960E94794BBE016F5FE2
:104A80007F4FC8010E94522464E670E080E090E00D
:104A90000E94712BF80184810E949B2D6AE070E0D6
:104AA00080E090E00E94712B80E092ECA1E0B0E009
:104AB000F80180839183A283B383448160E072EC28
:104AC00081E090E00E94272D02C080E001C081E0DB
:104AD000A8960FB6F894DEBF0FBECDBFDF91CF9181
:104AE0001F910F910895FC0180EC92E1A0E0B0E0ED
:104AF00080839183A283B38381E08483DF01A55BFC
:104B0000BE4F11961C921E9281E090E096838583A1
:104B100017821086549688EC92E011969C938E939F
:104B200012968EEC92E011969C938E93129685EDE0
:104B300092E011969C938E9312968AED92E01196D4
:104B40009C938E9312968EE992E011969C938E938D
:104B500012968DED92E011969C938E93129687EEAD
:104B600092E08D939C93E359FE4F81EF92E0918305
:104B700080830895CF93DF93EC016F8361E083E23C
:104B80000E947F2C8F81882321F0813041F460E0E6
:104B900001C061E083E2DF91CF910C949A2CDF9108
:104BA000CF910895CF93DF93EC010E94011F61E044
:104BB000CE01DF91CF910C94BA252F923F924F9264
:104BC0005F926F927F928F929F92AF92BF92CF929D
:104BD000DF92EF92FF920F931F93CF93DF93CDB7A6
:104BE000DEB7E4970FB6F894DEBF0FBECDBF3C0131
:104BF0006DA77EA74FA758AB29AB3AAB19A61AA64B
:104C00001BA61CA60E94202B1B012C0160E0C301E7
:104C10000E94E42464E670E080E090E00E94712B42
:104C200061E0C3010E94E42464E670E080E090E06B
:104C30000E94712B0E94202BDC01CB018219930969
:104C4000A409B509803D9740A105B10510F020E009
:104C500042C0D30114968C910E94C92D04970CF484
:104C6000A6C0D30114968C910E94E52D89A78432A9
:104C700009F09DC0F30184810E94E52D8AA7D3012C
:104C800014968C910E94E52D8BA71CA665EF72E00F
:104C9000CE0189960E949C4B892B09F486C069EF4E
:104CA00072E0CE0189960E949C4B21E0892B09F08D
:104CB0007EC02CAB0E94202B2CA9621573058405A5
:104CC000950528F40E94202B1B012C012CA92223DE
:104CD00009F4B0CF21E030EA2301FBE04F0E511C74
:104CE000D201E32F1D92EA95E9F719821A821B82FD
:104CF0001C82FE01359684E2DF011D928A95E9F758
:104D0000EDECF4E065917491FE0131961F01CF0145
:104D10002CAB3BAB0E94794B9F928F92BF92AF928C
:104D2000DF92CF92FF92EF921F930F93FAA9FF9316
:104D300089A98F9398A99F93AFA5AF93BEA5BF9361
:104D4000EDA5EF933F922F921F923BA93F935F9265
:104D50004F923BAB0E94E34BB201C3010E94531F31
:104D60005F924F928DEF92E09F938F931F923BA99A
:104D70003F935F924F920E94E34BD30114968C9124
:104D80000E941E2EF3016481C2010E94C12E0FB643
:104D9000F894DEBF0FBECDBF2CA921110AC0C301FC
:104DA0002CAB0E94D2252CA904C021E082CF20E0A8
:104DB00080CF822FE4960FB6F894DEBF0FBECDBF32
:104DC000DF91CF911F910F91FF90EF90DF90CF90E7
:104DD000BF90AF909F908F907F906F905F904F901B
:104DE0003F902F9008958F929F92AF92BF92CF9253
:104DF000DF92EF92FF920F931F93FC01E959FE4F50
:104E0000808091803297A080B1803297C080D1801D
:104E10003297E080F1803297008111813E962081A7
:104E200031813297408151813297608171810E9436
:104E3000DD251F910F91FF90EF90DF90CF90BF90F5
:104E4000AF909F908F900895CF93DF93EC0160E037
:104E50000E94BA25CE010E94F11ECE01DF91CF91B2
:104E60000C94F326CF92DF92EF92FF920F931F9351
:104E7000CF93DF938C018FE699E00E94CC36F80146
:104E800084810E941E2EE801CB53DE4F18820E94BF
:104E9000202B6B017C018881882331F081E098818F
:104EA0009130D9F080E019C00E94202BAB01BC01E9
:104EB0004C195D096E097F09483853416105710538
:104EC00068F7C8010E94811F88830E94202B6C15FF
:104ED0007D058E059F05F8F6DACFDF91CF911F9102
:104EE0000F91FF90EF90DF90CF9008952F923F9217
:104EF0004F925F926F927F928F929F92AF92BF92EA
:104F0000CF92DF92EF92FF921F93CF93DF9300D067
:104F100000D0CDB7DEB71C019A01AB0129833A83DB
:104F20004B835C830E94202B4B015C01A8EEB3E015
:104F300029813A814B815C810E945C492B013C01B3
:104F4000C12CD12C7601C414D504E604F70408F56D
:104F5000C1010E943227182F64E670E080E090E0E3
:104F60000E94712B0E94202B6B017C01C818D9086C
:104F7000EA08FB080E94202B681579058A059B0525
:104F800020F40E94202B4B015C011123E1F281E00F
:104F900001C080E00F900F900F900F90DF91CF91A4
:104FA0001F91FF90EF90DF90CF90BF90AF909F90B8
:104FB0008F907F906F905F904F903F902F900895CB
:104FC0008F929F92AF92BF92FF920F931F93CF93B6
:104FD000DF93CDB7DEB72A970FB6F894DEBF0FBECA
:104FE000CDBFFB0119821A821B821C829E012B5F9E
:104FF0003F4F86E0D9011D928A95E9F74E3441F082
:10500000433531F0453451F0473509F057C006C0FB
:105010008081898381818A831B8207C08081898303
:1050200081818A8382818B831C82F42E8F01CE0141
:1050300001960E94524BBC01990F880B990B0E945C
:1050400024464B015C01BEE4FB1619F083E5F8121F
:105050000DC0F8013296DE011196CE01089621911D
:105060002D93A817B907D9F7188612C0A5E4FA1628
:1050700019F0B7E5FB120CC0F8013396DE0111966A
:10508000CE01089621912D93A817B907D9F7ECCF37
:10509000CE0101960E944E4B20E030E040E752E402
:1050A0000E947A459B01AC01C501B4010E940945EB
:1050B0004F2D4B7F433529F4905803C060E070E0DA
:1050C000CB012A960FB6F894DEBF0FBECDBFDF919D
:1050D000CF911F910F91FF90BF90AF909F908F90B5
:1050E00008958F929F92AF92BF92FF920F931F935A
:1050F000CF93DF93EC010E94202B4B015C018E01CA
:10510000055B1E4FF80111821082E658FF4F808127
:10511000813039F5F80180819181019721F10E9458
:10512000202BDC01CB0188199909AA09BB09883811
:105130009341A105B105B8F4CE010E94811F082E4C
:10514000000C990BF801918380830E94202B681535
:1051500079058A059B05F0F60E94202B4B015C0126
:10516000D9CF8FEF2CC00E94202B4B015C01F12C7A
:105170000E94202BDC01CB0188199909AA09BB09DF
:1051800088389341A105B10590F4CE010E94FE211B
:10519000F82E0E94202B681579058A059B0520F4BE
:1051A0000E94202B4B015C0121E0F212E1CFF801BB
:1051B00080819181019711F481E0F81280E0DF9104
:1051C000CF911F910F91FF90BF90AF909F908F90C4
:1051D000089589E195E00C947325F8948830F8F4EB
:1051E000482F50E04830510590F4FA01EA59FF4F3A
:1051F0000C944449E8980BC0E99809C0EA9807C0A4
:10520000EB9805C0EC9803C0EE9801C0EF98E82F2A
:10521000F0E0EE0FFF1FE450F94F118210827894F6
:1052200008951F920F920FB60F9211240BB60F9292
:105230002F933F934F935F936F937F938F939F939E
:10524000AF93BF93EF93FF938091FC069091FD067F
:10525000892B29F0E091FC06F091FD060995FF915C
:10526000EF91BF91AF919F918F917F916F915F91DE
:105270004F913F912F910F900BBE0F900FBE0F904B
:105280001F9018951F920F920FB60F9211240BB614
:105290000F922F933F934F935F936F937F938F93CF
:1052A0009F93AF93BF93EF93FF938091FE069091EE
:1052B000FF06892B29F0E091FE06F091FF06099583
:1052C000FF91EF91BF91AF919F918F917F916F91DE
:1052D0005F914F913F912F910F900BBE0F900FBE9A
:1052E0000F901F9018951F920F920FB60F921124D6
:1052F0000BB60F922F933F934F935F936F937F93D0
:105300008F939F93AF93BF93EF93FF9383B78E7F5A
:1053100083BF8091000790910107892B29F0E091CC
:105320000007F09101070995FF91EF91BF91AF91AF
:105330009F918F917F916F915F914F913F912F91AD
:105340000F900BBE0F900FBE0F901F9018951F92DD
:105350000F920FB60F9211240BB60F922F933F931B
:105360004F935F936F937F938F939F93AF93BF936D
:10537000EF93FF9383B78E7F83BF80910207909155
:105380000307892B29F0E0910207F09103070995A3
:10539000FF91EF91BF91AF919F918F917F916F910D
:1053A0005F914F913F912F910F900BBE0F900FBEC9
:1053B0000F901F9018951F920F920FB60F92112405
:1053C0000BB60F922F933F934F935F936F937F93FF
:1053D0008F939F93AF93BF93EF93FF9380910407B5
:1053E00090910507892B29F0E0910407F0910507BA
:1053F0000995FF91EF91BF91AF919F918F917F910F
:105400006F915F914F913F912F910F900BBE0F9035
:105410000FBE0F901F9018951F920F920FB60F920C
:1054200011240BB60F922F933F934F935F936F937B
:105430007F938F939F93AF93BF93EF93FF9380914D
:10544000060790910707892B29F0E0910607F09154
:1054500007070995FF91EF91BF91AF919F918F91B0
:105460007F916F915F914F913F912F910F900BBE64
:105470000F900FBE0F901F9018951F920F920FB6AE
:105480000F9211240BB60F922F933F934F935F937C
:105490006F937F938F939F93AF93BF93EF93FF93FC
:1054A0008091080790910907892B29F0E09108075E
:1054B000F09109070995FF91EF91BF91AF919F91ED
:1054C0008F917F916F915F914F913F912F910F90AD
:1054D0000BBE0F900FBE0F901F9018951F920F924A
:1054E0000FB60F9211240BB60F922F933F934F9349
:1054F0005F936F937F938F939F93AF93BF93EF933C
:10550000FF9380910A0790910B07892B29F0E09176
:105510000A07F0910B070995FF91EF91BF91AF91A9
:105520009F918F917F916F915F914F913F912F91BB
:105530000F900BBE0F900FBE0F901F9018951F92EB
:105540000F920FB60F9211240BB60F922F933F9329
:105550004F935F936F937F938F939F93AF93BF937B
:10556000EF93FF93F89481E080930A02E0E6F0E085
:1055700080818068808380818F7B808360E083E08E
:105580000E949A2C7894FF91EF91BF91AF919F91D7
:105590008F917F916F915F914F913F912F910F90DC
:1055A0000BBE0F900FBE0F901F9018951F920F9279
:1055B0000FB60F9211248F939F93AF93BF93809157
:1055C000990A90919A0AA0919B0AB0919C0A01961F
:1055D000A11DB11D8093990A90939A0AA0939B0AEA
:1055E000B0939C0ABF91AF919F918F910F900FBE86
:1055F0000F901F9018951F920F920FB60F921124C3
:105600008F939F93AF93BF9380919D0A90919E0A31
:10561000A0919F0AB091A00A0196A11DB11D80938F
:105620009D0A90939E0AA0939F0AB093A00ABF91EF
:10563000AF919F918F910F900FBE0F901F90189573
:105640008F929F92AF92BF92CF92DF92EF92FF9292
:105650000F931F93CF93DF932FB7F8948091990AFC
:1056600090919A0AA0919B0AB0919C0A2FBF9C012D
:10567000AD0160E070E080E090E001E00E949F4AB0
:105680004901D42FC52FB62FA72FF82FE92F02E0FD
:105690000E949F4A59016A017B018C0194014D2FA0
:1056A0005C2F6B2F7A2F8F2F9E2F0E94D64AE9E016
:1056B000AE2EB12CC12CD12CE12CF12C00E010E04D
:1056C0000E94FB49B901CA01DF91CF911F910F914F
:1056D000FF90EF90DF90CF90BF90AF909F908F9012
:1056E00008958F929F92AF92BF92CF92DF92EF92E6
:1056F000FF924B015C010E94202B6B017C010E94F8
:10570000202BDC01CB018C199D09AE09BF0988153E
:105710009905AA05BB0540F40E94202B6C157D0558
:105720008E059F0560F7E7CFFF90EF90DF90CF9059
:10573000BF90AF909F908F900895BC01049768F040
:1057400080E090E00E94224626E636E646EE5FE3E1
:105750000E94D9460E94F34502C0660F771F613050
:10576000710561F06250710949F0660F771FCB0136
:1057700001972FB7F8940197F1F72FBF0895789408
:1057800084B7877F84BF1092990A10929A0A109268
:105790009B0A10929C0A84B5826084BD84B58160A6
:1057A00084BD85B5826085BD85B5816085BDEEE629
:1057B000F0E0808181608083E1E8F0E080818260B8
:1057C0008083808181608083E0E8F0E08081816077
:1057D0008083E1EBF0E0808184608083E1E9F0E0A8
:1057E000808184608083E0EBF0E080818160808351
:1057F000E0E9F0E0808181608083E4E6F0E0808190
:105800008E7F8083ECE7F0E080818F7780838081DA
:1058100080648083EAE7F0E0808184608083808117
:1058200082608083808181608083808180688083C2
:105830001092C1001092C900089590910C07982B06
:1058400090930C0780FF32C0809164008E7F80931C
:10585000640080917C008F7780937C0080917C0035
:10586000806480937C0080917A00846080937A00C9
:1058700080917A00826080937A0080917A008068BB
:1058800080937A00809164008F7780936400809188
:1058900064008B7F80936400809164008D7F80938F
:1058A0006400809165008E7F809365000895982F35
:1058B000909520910C07922390930C0780FF1EC0B7
:1058C00080917A008F7780937A0080916400816064
:1058D000809364008091640080688093640080916C
:1058E000640084608093640080916400826080938F
:1058F000640080916500816080936500089590E068
:10590000FC01EC5CF84F2491FC01E759F84FE4915D
:10591000EE2379F0F0E0E255F84FA491B0E0611188
:1059200005C08C91E22FE095E82302C0EC91E22BB8
:10593000EC93089590E0FC01E150F94F3491FC01A3
:10594000EC5CF84F2491FC01E759F84F84918823CF
:10595000B1F1332331F1333021F4909180009F77FE
:1059600005C0343031F4909180009F7D9093800089
:1059700018C0313019F494B59F7704C0323021F447
:1059800094B59F7D94BD0DC0363021F49091B00048
:105990009F7705C0373029F49091B0009F7D909398
:1059A000B000E82FF0E0EA55F84FA491B0E0EC9198
:1059B000611103C020952E2301C02E2B2C93089536
:1059C00090E0FC01E150F94F2491FC01EC5CF84FB0
:1059D0003491FC01E759F84F84918823A9F12223DF
:1059E00031F1233021F4909180009F7705C024305D
:1059F00031F4909180009F7D9093800018C02130F9
:105A000019F494B59F7704C0223021F494B59F7D9A
:105A100094BD0DC0263021F49091B0009F7705C051
:105A2000273029F49091B0009F7D9093B000E82F2B
:105A3000F0E0E256F84FA491B0E0EC91E32381E06E
:105A400090E021F480E0089580E090E00895CF9206
:105A5000DF92EF92FF926B017C01411134C088E02C
:105A60000E941D2CC701B60122E030E040E050E06A
:105A70000E942549CA01B901705F814F9F4FA7015C
:105A800096010E942549DA01C9010197A109B109CE
:105A9000892F9A2FAB2FBB27A7FDBA958093C500FE
:105AA00021502093C4008091C10080618093C10087
:105AB0008091C10088608093C1008091C10080689E
:105AC0008093C10033C080E10E941D2CC701B60144
:105AD00022E030E040E050E00E942549CA01B901CF
