:100000000C94740B0C941B370C944C370C947D3768
:100010000C94B1370C94E5370C9416380C9447388F
:100020000C9478380C949E0B0C949E0B0C949E0BA5
:100030000C94A9380C949E0B0C949E0B0C940539CF
:100040000C949E0B0C949E0B0C949E0B0C949E0B8C
:100050000C949E0B0C949E0B0C949E0B0C94E0380D
:100060000C949E0B0C943C3C0C949E0B0C949E0B9D
:100070000C949E0B0C949E0B0C949E0B0C949E0B5C
:100080000C949E0B0C949E0B0C949E0B0C949E0B4C
:100090000C947D3C0C949E0B0C949E0B0C94344F52
:1000A0000C949E0B0C949E0B0C949E0B0C949E0B2C
:1000B0000C949E0B0C949E0B0C949E0B0C949E0B1C
:1000C0000C949E0B0C949E0B0C949E0B04370637DD
:1000D00008370A370C3711370E371037C33ED23E78
:1000E000F13E003F0F3F1E3F2D3FAE3FBA3FC63FA0
:1000F000D23FD43FE03FEC3FF83F044010401C406B
:1001000028403440404007634236B79BD8A71A398D
:10011000685618AEBAAB558C1D3CB7CC5763BD6D55
:10012000EDFD753EF6177231BF000000803F0800FC
:100130000000BE922449123EABAAAA2ABECDCCCC66
:100140004C3E00000080BEABAAAAAA3E0000000000
:10015000BF000000803F0000000000084178D3BBD2
:100160004387D1133D190E3CC3BD4282AD2B3E687F
:10017000EC8276BED98FE1A93E4C80EFFFBE01C470
:10018000FF7F3F0000000000414443204E5F524487
:1001900059001F856B3F8FC2753F0000803FEC51B7
:1001A000783F3333733F3333333F6666663F000037
:1001B000803F1F858B3F0000803FCDCCCC3E33334A
:1001C000333F0000803F3333933F0000A03FCDCC4E
:1001D0004C3E0000003F0000803F6666064033331F
:1001E000334052B85E3F3333733F0000803F00001E
:1001F000803F0000803F9A99593F1F856B3F000068
:10020000803F0000803F0000803FCDCC4C3F00008D
:10021000803F0000803FB81E853FB81E853F666660
:10022000663F0000803F0000803F0000803F0000EC
:10023000803F3333333FCDCC4C3F0000803F14AE82
:10024000873F295C8F3FCDCC4C3FCDCC4C3F00004D
:10025000803FCDCC8C3F0000A03F6666663F8FC2DA
:10026000753F0000803FC3F5883FC3F5883FCDCC84
:100270004C3F6666663F0000803F6666863F666666
:10028000863F6666663F0000803F0000803F6666EE
:10029000863F0000803F3D0A873FE17A843F0000AF
:1002A000803F85EB813F0000803F3333333F1F8524
:1002B0006B3F0000803F0000803F1F856B3F0000C8
:1002C000803F0000803F0000803F0000803F000032
:1002D000803F3333333FB81E453F0000803FCDCCD5
:1002E0008C3FD7A3903FCDCCCC3ECDCC4C3F000033
:1002F000803F9A99993F6666A63FE17A543F33332F
:10030000733F0000803FA4707D3F8FC2753FB81ED1
:10031000053FCDCC4C3F0000803F295C8F3F3D0A1C
:10032000973F0000000000000000CDCC4CBD9A9922
:1003300099BE9A9999BE00000000000000009A99A9
:1003400099BE000080BF00000000713D2A400000FF
:10035000A040000000C000000000000000000000FD
:1003600020C00000000000000000000000000AD7CC
:1003700023BD0000000000000000000080400000DD
:1003800070410000000000000000CDCCCCBDCDCC01
:10039000CC3D000080BE00000000E17AD43F0000A8
:1003A00040409A9919BF0000000000008040000002
:1003B0001041CDCCCC3D00000000000000BF9A9958
:1003C000D9BF000000000000000000000000000095
:1003D000000000000000000000009A99193ECDCCFA
:1003E000CC3E0000000000000000CDCC4C3E9A99AD
:1003F000193F0000000000000000000000000000A5
:1004000000000AD7233CCDCCCC3C8FC2F53D000088
:10041000803E00000000000000000000000000001E
:100420000000F4FD543C6F12833C1283403DB81E23
:10043000053E8FC2753C0AD7233D9A99193E6666E0
:10044000A63E000000000AD7233CCDCCCC3D66661A
:10045000663E00000000CDCCCCBC9A9999BD9A991B
:1004600019BEE004BC04B504AE04A704A0049904BA
:1004700092048D0481047804245053524631393556
:100480000024505352463132352A30300025730D46
:100490000A0024475056544700244750474C4C000C
:1004A00024475047535600244750475341002447A0
:1004B0005047474100244750524D43002450535267
:1004C000463130342C25732C25732C25732C257341
:1004D0002C25732C25732C25732C25732A30300082
:1004E00024505352463130302C302C31313532309B
:1004F000302C382C312C302A303000207673207587
:10050000736572207361797320003A2061706920ED
:100510007361797320004572726F722073656E7318
:100520006F7220747970652026206E6669656C6430
:1005300073206D69736D6174636820666F722069E2
:100540006E64657820005B4652414D455D20002079
:1005500076732075736572207361797320003A2079
:10056000617069207361797320004572726F722027
:1005700073656E736F722074797065206D69736D29
:100580006174636820666F7220696E64657820000C
:100590005B4652414D455D200020767320003A2095
:1005A000004572726F722073656E736F722074797A
:1005B0007065206D69736D6174636820666F722069
:1005C000696E64657820005B4652414D455D2000B0
:1005D00003030303030303030303030303030303EB
:1005E00003030303030200000000000000000303F4
:1005F00003030303000000000300000000000000EC
:1006000000000000000600000000000000000200E2
:1006100000000000000004040400020201020000C7
:1006200000000000000000000002020203030300BB
:100630000000000003030303030303030303030396
:100640000303030303030303030303000000000089
:100650000006020301010201020203030000000080
:100660000000000000000202020202030200020277
:10067000020202030303020202000201030000035C
:10068000030303000000000000000000000001015F
:10069000010101010101010101010101010101014A
:1006A000010101010101010101010101010101013A
:1006B000010101010101010101010101010101012A
:1006C0000101010201010101030301010103010113
:1006D0000101010101010102010101010101010109
:1006E00001010101010101010101010101010101FA
:1006F00001010101010101010101010101010101EA
:1007000001010101010101010101010101010101D9
:1007100001010101010101010101010101010101C9
:1007200001010101010101010101010101010101B9
:1007300001010101010101010101010101010101A9
:10074000010102020303010101010101020202028F
:100750000202020202020202020202020202020279
:100760000202000000000000000002020202020279
:100770000000000002000000000000000000000077
:10078000000201030303000001010201040303034B
:10079000030302020204020202020401000000003C
:1007A000000000000002020202020200000000003D
:1007B0000202020202020202020202020202020219
:1007C0000202020202000004000000000002020215
:1007D0000202020202020202000000000000000009
:1007E00000000202020202020200020202020202EF
:1007F00002020202020002020200000202020200E1
:1008000001010101010101000001700C6C0C690C77
:10081000650C620C5E0C5A0C560C520C4E0C4B0CB8
:10082000470C440C400C3C0C390C350C310C2D0C95
:10083000290C250C1F0C1E0C1D0C1C0C1B0C1A0C5F
:10084000190C180C170C120C0D0C080C070C060CCC
:10085000010C000CFF0BFE0BFD0BFA0BF60BF30B60
:10086000F00BEB0BE70BE20BDD0BD80BD30BCE0B36
:10087000CD0BC90BC50BC00BBC0BB90BB50BB00B2B
:10088000AB0BA70BA30B9B0B970B900B8C0B8B0B42
:100890008A0B860B830B7F0B790B740B6F0B6C0B26
:1008A000690B650B600B5C0B590B580B570B560B08
:1008B000550B540B530B520B510B500B470B3D0B6D
:1008C000390B340B2F0B2A0B290B280B270B260B6C
:1008D000250B1F0B190B130B0C0B060B000BFA0A45
:1008E000F40AED0AE70AE10ADB0AD50ACE0AC60ACB
:1008F000C10ABB0AB50AAF0AA90AA30AA20AA10A39
:100900009D0A9C0A970A910A8B0A880A840A810A1E
:100910007D0A7A0A750A720A6D0A680A630A5D0A14
:10092000570A560A550A540A530A520A510A500ADB
:100930004F0A4E0A4D0A470A410A3B0A340A2D0A59
:100940002A0A260A230A1E0A190A140A100A0D0A7C
:100950000A0A070A040AFD09F609EF09EE09EA097D
:10096000E509E109E009DF09D909D309CD09C7097A
:10097000C609BD09B709B109AB09A4099E099809BF
:1009800092098C09860943425F46500043425F54F6
:10099000500043425F464C0043425F465200434290
:1009A0005F56530043425F52504D004D425F4952E3
:1009B000004D425F4852004D425F4449004D425F46
:1009C000434F494C5300004355525F440043555236
:1009D0005F43004355525F42004355525F41000060
:1009E000004C554D0048554D4200544342000053C1
:1009F0004F494C5F4500534F494C5F4300534F49AB
:100A00004C5F420046440053440054440055560095
:100A100050415200504C563300504C563200504C0E
:100A2000563100575600414E45004C5700534F4930
:100A30004C544600534F494C544300534F494C3398
:100A400000534F494C3200534F494C3100000000D5
:100A5000000000000000004F52505F45004F525010
:100A60005F410050485F450050485F410054555277
:100A70004200575400434F4E4400444F004F5250E1
:100A8000005048005241440050530056424F4F54CA
:100A9000005650524F47005641504900005453549D
:100AA0000000005357495F44005357495F430053C8
:100AB00057495F42005357495F41005357494E41E0
:100AC000005357494B00535749434C4F3400535739
:100AD000494E4F32005357494D47005357494C49EF
:100AE000005357495048005357494147005357490D
:100AF0004E483400535749494F0053574943550016
:100B0000535749434C005357494252005357494E9B
:100B10004F3300535749464200535749464C005300
:100B20005749434100000000000050444F50005618
:100B3000444F500048444F5000414C5400434F55DF
:100B40005253455F4F470053504545445F4F470060
:100B50000000000000000000005553004C555800F4
:100B6000505245530048554D0054460054430050E0
:100B700041525400504D313000504D325F350050DD
:100B80004D31005242005549440000005354520078
:100B90004D494C4C49530041434300494E5F544535
:100BA0004D500052414D00474D540054494D4500B1
:100BB00044415445004E4944004E41004D414300DC
:100BC0005253534900475053004241540000455688
:100BD0005F450045565F440045565F430045565FFC
:100BE0004100524F55540052494E0048414C4C0070
:100BF0004C4C004C50005049520057460000000039
:100C00000047505F4600000047505F430047505F79
:100C1000420047505F410000000000000000004E0D
:100C20004F49534500534F32005048330048434E1C
:100C30000048434C004832530048320045544F00AE
:100C4000434C32004E4F00564F4300535600415024
:100C50003200415031004C5047004E4F32004E4858
:100C600033004F3300434834004F3200434F3200CB
:100C7000434F0003030303030303030303030302BC
:100C8000020102030300000000030003000003034D
:100C90000302000002020102020302020303030234
:100CA000000206020303030006000000000000002B
:100CB0000002000000000000000203010102030323
:100CC0000303030303030303000000030202020300
:100CD00003030002020202020202020202020202F4
:100CE00003030300000000000000000003030001F4
:100CF00000000003030303030303030303030303CD
:100D000003030303020200020200040404000303BD
:100D100003030303030303030302020203030301A8
:100D200001010101010101010101010101010101B3
:100D300001010101010101010101010101010301A1
:100D40000101010101010101010101010101010193
:100D5000010101010201010101030301010103017C
:100D60000101010101010101010101010101010173
:100D7000010101010103030101010101010101015F
:100D80000101010101010101010101010101010153
:100D90000101010101010101010101010101010143
:100DA0000101010101010101010101010101010133
:100DB0000101010101010101010201010101010122
:100DC000010101010101010101010102020202020E
:100DD00002020202020202020202020202000000F9
:100DE00000020002000002020202010002020202EE
:100DF00002020202020202020002020202020200D7
:100E000002010303030000010102010403030303C1
:100E100003020202020202020202020202020202B1
:100E200000000004020202020202000202020202A8
:100E3000020202020202020202020200000000009C
:100E4000000000000202040200000002020202028E
:100E50000202020202020202020202020202020272
:100E60000202020202020202020202020202020262
:100E7000020202020202023C133813351331132D11
:100E8000132913251321131E131A13171313130FEA
:100E9000130B13061303130013FB12F712F212EFD6
:100EA00012EC12E812E412E112DD12D912D512D2BC
:100EB00012CD12CA12C712C412C012BC12B712B19C
:100EC00012AC12A912A512A2129F129C129912958D
:100ED0001292128E128A128712841281127E127A54
:100EE00012761271126D126A12661261125C125839
:100EF0001254124C12481241123D12391233122F61
:100F0000122C122912251222121D121A1215121059
:100F1000120C1207120212FE11F811F411EE11E870
:100F200011E111DB11D511D111C811BE11BA11B5E2
:100F300011B011AB11A711A2119D11981191118A35
:100F40001183117C11761170116A1166115F1159AC
:100F50001153114D11471142113D11381133112E0A
:100F600011291122111B1114110F110A110611015F
:100F700011FC10F610F010E910E310DC10D610CFC1
:100F800010C810C110BA10B410AD10A710A010995D
:100F90001092108C1085107F10791072106A1063F7
:100FA000105C1056104E1044103B1032102C1026BE
:100FB0001020101A1014100E1008100210FC0FF65A
:100FC0000FF00FEB0FE60FE10FDB0FD50FCF0F4F39
:100FD00052505F43004F52505F42004F52505F41AA
:100FE0000050485F430050485F420050485F410056
:100FF00053574950480053574941470053574950A8
:101000004200535749494F005357494355005357DE
:1010100049434C005357494252005357494E4F00E1
:10102000535749464200535749464C00535749438A
:1010300041004F50435F50415254004F50435F5066
:101040004D3130004F50435F504D325F35004F50AF
:10105000435F504D31004F50435F50004F50435F4E
:101060005446004F50435F54430047505F50524531
:10107000530047505F48554D0047505F5446004766
:10108000505F54430047505F434F320047505F4F1B
:10109000330047505F4348340047505F534F32009E
:1010A00047505F5048330047505F4F320047505F12
:1010B0004E4F320047505F4E4F0047505F4E48330F
:1010C0000047505F48434E0047505F48434C00473D
:1010D000505F4832530047505F48320047505F45E9
:1010E000544F0047505F434F0047505F434C32001E
:1010F00056424F4F54005650524F470056415049A8
:101100000054555242005453540057465F4500570F
:10111000465F430048414C4C5F460048414C4C5FA1
:10112000450048414C4C5F44004C4C5F46004C4CE1
:101130005F45004C4C5F44004C505F46004C505F94
:1011400045004C505F44004C554D5F46004C554D9A
:101150005F45004C554D5F440055535F3556005573
:10116000535F3356330054434300534F494C3300CD
:10117000534F494C3200534F494C3100534F494C67
:101180005F4600534F494C5F4500534F494C5F4405
:1011900000534F494C5F4300504C563300504C565F
:1011A0003200504C56310046534D0050444F5000D1
:1011B00056444F500048444F5000414C5400434F58
:1011C000555253455F4F470053504545445F4F4785
:1011D000004C555800444D5F535000444D5F5354EC
:1011E0000054585F5057520044494E4F3300444911
:1011F0004D47320044494B0044494355320044496D
:10120000490044494252004449434C004449460085
:10121000444943410044494E4100575400434F4E16
:101220004400444F004F5250005048005242005575
:101230004944004D57494649004D425400535452C9
:10124000004D494C4C49530041434300494E5F54C3
:10125000454D500052414D00474D540054494D45B5
:101260000044415445004E4944004E41004D414325
:1012700000525353490047505300424154004446E2
:10128000004C430057460043550052414400504C27
:101290005600575600414E45004644005344005402
:1012A0004400555600504152004C5700534F494C92
:1012B00000534F494C540048554D4200544642009B
:1012C000544342005053004D46005553004455537B
:1012D00054004C440043504700434447004D4350A2
:1012E00000535400504952004C554D004C4C004C9A
:1012F000500048414C4C005642520042454E44007A
:1013000050570050410048554D410054464100544B
:10131000434100564F43004F33004E4F3200535667
:101320000041503200415031004E4833004C50478C
:1013300000434834004F3200434F3200434F00CB4C
:1013400014B614A014901483147914691454143D21
:10135000142B141F1418140614F313E613DC13CC07
:1013600013A913A3137A1369135B253032753A2539
:101370003032753A253032755D002530327525637F
:101380002530327525632530327525632530327559
:101390002563253032752563253032752563253068
:1013A0003275006572726F720025732C2025303201
:1013B000752F253032752F253032752C202530328F
:1013C000753A253032753A25303275004F6E6365B7
:1013D00020706572206D696E757465005B6D6D5D62
:1013E000202D2D3E20005B68683A6D6D5D202D2D0F
:1013F0003E20005B446174652C2068683A6D6D5D29
:10140000202D2D3E20005B4461792C2068683A6DC8
:101410006D5D202D2D3E20005B253032755D005B1B
:10142000253032753A253032755D005B25303275D6
:101430002C20253032753A253032755D005B253021
:1014400032752C20253032753A253032753A2530E8
:1014500032755D00496E636F727265637420616CF2
:1014600061726D206D6F6465004F6E6365207065FD
:1014700072207365636F6E64005B73735D202D2D46
:101480003E20005B6D6D3A73735D202D2D3E200074
:101490005B68683A6D6D3A73735D202D2D3E2000B8
:1014A0005B446174652C2068683A6D6D3A73735DB6
:1014B000202D2D3E20005B4461792C2068683A6D18
:1014C0006D3A73735D202D2D3E2000416C61726D6D
:1014D000206D6174636865732000000008090000D6
:1014E00000000000000000000000000000000000FC
:1014F00000000000000000000000000000000000EC
:1015000000000000000000000000000000000001DA
:101510000208101020408004081020400202040835
:1015200010204080010280204004200101020408B4
:10153000102001408040800102080408800410044B
:101540000201081005050505030303030101010459
:101550000403060606060606060601040501050143
:10156000030202020202020102020505040403044E
:1015700004010304070707070700202326292C2F4F
:1015800032002225282B2E3134002124272A2D3009
:10159000336364696E6F70737578585B004E414EAB
:1015A000494E495459494E46CDCCCC3D0AD7233CEF
:1015B00017B7D13877CC2B329595E6241FB14F0A57
:1015C000000020410000C84200401C4620BCBE4C28
:1015D000CA1B0E5AAEC59D7400407A10F35A00A083
:1015E000724E18090010A5D4E80000E876481700EC
:1015F00000E40B54020000CA9A3B000000E1F5052C
:10160000000080969800000040420F000000A08675
:1016100001000000102700000000E80300000000A7
:101620006400000000000A0000000000010000004B
:1016300000002C76D888DC674F0823DFC1DFAE5965
:10164000E1B1B796E5E3E453C63AE651997696E8F8
:10165000E6C28426EB898C9B62ED407C6FFCEFBC7C
:101660009C9F40F2BAA56FA5F490055A2AF75C93A7
:101670006B6CF9676DC11BFCE0E40D47FEF520E6DD
:10168000B500D0ED902E0300943577050080841EC0
:10169000080000204E0A000000C80C333333330F1B
:1016A000986E12831141EF8D2114893BE65516CFB8
:1016B000FEE6DB18D1844B381BF77C1D901DA4BBC4
:1016C000E424203284725E228100C9F124ECA1E579
:1016D0003D270D0DE725E92FF336BE43DA4393444A
:1016E0009F45764C6C50925211241FBECFEFD1E231
:1016F000DEBFCDBF13E0A0E0B2E0E2EEFBEC00E025
:101700000BBF02C007900D92AA3CB107D9F721E1A7
:10171000AAECB3E001C01D92AD35B207E1F71BE0C2
:10172000C4E7DBE004C02197FE010E946B58C93674
:10173000D107C9F70E94844C0C94EF650C9400000B
:1017400085E29CE00E949B4461E08EE00E94893A21
:1017500084E195E00E94461B80EB94E00E94461BCA
:101760008CE494E00E94461B88EE93E00E94461BA6
:1017700061E08EE00E94A43A8BE795E00E9434225B
:1017800081ED99E00E94344267E772E081ED99E0D3
:101790000E94B14241E06CE089E29CE00E94A245D7
:1017A0006AE072E082E997E00E947B348FEA95E07C
:1017B0000C94242ECF93DF9385E29CE00E94AF44EB
:1017C000C0E0D0E08091A8089091A908C817D90777
:1017D00048F4FE01EE56F84F60E086890E94BE3C58
:1017E0002196F0CF60E08DE00E94BE3C60E08AE090
:1017F0000E94BE3C85E29CE0DF91CF910C94D444E2
:10180000CF92DF92EF92FF920F931F9384E195E0C6
:101810000E94161D6093CC037093CD038093CE037A
:101820009093CF0380EB94E00E94161D6093D00349
:101830007093D1038093D2039093D3038CE494E00C
:101840000E94161D6093D8037093D9038093DA0326
:101850009093DB0388EE93E00E94161D6093D403FF
:101860007093D5038093D6039093D70340E065E04F
:101870008BE795E00E945A226093E4037093E5039E
:101880008093E6039093E70365E08BE795E00E9481
:10189000A1246093E0037093E1038093E2039093AB
:1018A000E30340E065E08BE795E00E944A23609304
:1018B000DC037093DD038093DE039093DF034AE043
:1018C00050E060E070E08FEA95E00E94762E809311
:1018D0007805882321F08FEA95E00E94712F61E05E
:1018E00082E997E00E9424352091E4033091E503DA
:1018F0004091E6035091E7036AE482E997E00E9491
:10190000B8312091E0033091E1034091E20350911E
:10191000E3036CE482E997E00E94B8312091DC0394
:101920003091DD034091DE035091DF036DE482E9E5
:1019300097E00E94B8312091CC033091CD034091C3
:10194000CE035091CF0363E082E997E00E94B83163
:101950002091D0033091D1034091D2035091D30311
:1019600064E182E997E00E94B8312091D803309178
:10197000D9034091DA035091DB0360E082E997E0FC
:101980000E94B8310E94DA0B61E082E997E00E9480
:1019900024352091D4033091D5034091D603509142
:1019A000D7036CE082E997E00E94B8318091780516
:1019B0008823B9F0409135076AE277E08FEA95E035
:1019C0000E94E02E6B017C01409129076EE177E0D7
:1019D0008FEA95E00E94E02E9B01AC018701760121
:1019E00005C0E12CF12C8701A801970165E382E98C
:1019F00097E00E94323381ED99E00E94C240AC0131
:101A00006BE382E997E00E94CF311F910F91FF9025
:101A1000EF90DF90CF900C94DA0B61E070E084E1FE
:101A200095E00E940E1064E070E080EB94E00E946C
:101A30000E1065E070E08CE494E00E940E1066E009
:101A400070E088EE93E00C940E100F93CF93DF9329
:101A50001F92CDB7DEB700E09E012F5F3F4F40E001
:101A600068E48AE29CE00E940C4C811104C081E091
:101A70009981911101C080E00F90DF91CF910F917A
:101A800008950F9300E020E041E068E48AE29CE0E2
:101A90000E94834B0F910895EF920F93CF93DF93A2
:101AA0001F92CDB7DEB783E0E82E02E09E012F5FE4
:101AB0003F4F40E168E48AE29CE00E94344C81118F
:101AC00001C089810F90DF91CF910F91EF90089520
:101AD000EF920F93CF93DF931F92CDB7DEB782E0E3
:101AE000E82E05E09E012F5F3F4F41E168E48AE266
:101AF0009CE00E94344C811101C089810F90DF91DC
:101B0000CF910F91EF9008950F93CF93DF931F9292
:101B1000CDB7DEB707E09E012F5F3F4F41E168E49C
:101B20008AE29CE00E940C4C811101C089810F90D7
:101B3000DF91CF910F9108950F93CF93DF931F9271
:101B4000CDB7DEB7660F660F460F49830E94410D81
:101B500001E09E012F5F3F4F40E168E48AE29CE094
:101B60000E947D4A81E00F90DF91CF910F910895FF
:101B70000F93CF93DF931F92CDB7DEB734E0639F0F
:101B8000400D112432E0439F000D112430E1039FEA
:101B9000200D112429830E94410D01E09E012F5F39
:101BA0003F4F41E168E48AE29CE00E947D4A81E087
:101BB0000F90DF91CF910F9108950F93CF93DF9303
:101BC0001F92CDB7DEB720E8629F401911244983E8
:101BD0000E94410D01E09E012F5F3F4F42E168E40A
:101BE0008AE29CE00E947D4A81E00F90DF91CF91D4
:101BF0000F910895AF92BF92CF92DF92EF92FF9232
:101C00000F931F93CF93DF931F92CDB7DEB7162F9D
:101C1000A22E8091300C811106C08AE29CE049839B
:101C20000E948B494981612F8AE29CE049830E948E
:101C3000F8484981842F880F880F8058B82EBA0C35
:101C40006B2D8AE29CE00E94E0498AE29CE00E94BF
:101C5000CC494981413009F441C098F0423009F43F
:101C60006AC0433009F0DEC06CE271E080E090E0D1
:101C70000E947B3944E0612F8AE29CE00E94B249D5
:101C8000A3C066E070E080E090E00E947B3943E012
:101C9000612F8AE29CE00E94B2490E942A396B01BE
:101CA0007C018AE29CE00E940449833008F091C0E4
:101CB0000E942A39DC01CB018C199D09AE09BF09AC
:101CC00084369105A105B10508F083C00E942A3928
:101CD0006C157D058E059F0520F7DFCF62E170E072
:101CE00080E090E00E947B3943E0612F8AE29CE033
:101CF0000E94B2490E942A396B017C018AE29CE071
:101D00000E940449833008F096C00E942A39DC0101
:101D1000CB018C199D09AE09BF0984369105A10537
:101D2000B10508F088C00E942A396C157D058E0522
:101D30009F0520F7DFCF64E470E080E090E00E9430
:101D40007B3943E0612F8AE29CE00E94B2490E9405
:101D50002A396B017C018AE29CE00E9404498330AD
:101D600008F0B3C00E942A39DC01CB018C199D090F
:101D7000AE09BF0984369105A105B10508F0A5C0DB
:101D80000E942A396C157D058E059F0520F7DFCF4F
:101D90008AE29CE00E940449843008F0C1C00E949D
:101DA0002A39DC01CB018C199D09AE09BF098436A3
:101DB0009105A105B10508F0B3C00E942A396C1540
:101DC0007D058E059F0520F70E942A396B017C0155
:101DD000DFCF8AE29CE00E940449833009F0FFC013
:101DE0008AE29CE00E940A49182F8AE29CE00E9445
:101DF0000A49612F70E0762F6627680F711D072E44
:101E0000000C880B990B0E943F556B017C018AE204
:101E10009CE00E940A49B82E8AE29CE00E94CC49CC
:101E20000130E1F1B7FEE3C068E871E085E29CE0D3
:101E30000E947745DCC08AE29CE00E94044983301E
:101E400009F0CDC08AE29CE00E940A49182F8AE27C
:101E50009CE00E940A49612F70E0762F6627680F88
:101E6000711D072E000C880B990B0E943F556B01CA
:101E70007C018AE29CE00E940A49B82E8AE29CE03A
:101E80000E94CC49013071F620E030E040E85EE38A
:101E9000C701B6010E94F4556B017C016A2D70E008
:101EA00080E090E00E943D559B01AC0160E070E055
:101EB00080E090E40E9461569B01AC01C701B6012D
:101EC0000E9495546B017C01ADCF8AE29CE00E9498
:101ED0000449833009F083C08AE29CE00E940A49E9
:101EE000182F8AE29CE00E940A49612F70E0762F49
:101EF0006627680F711D072E000C880B990B0E9436
:101F00003F556B017C018AE29CE00E940A49B82E91
:101F1000013009F087CF20E030E040E85DE3B8CF42
:101F20008AE29CE00E940449843009F058C08AE2A9
:101F30009CE00E940A49182F8AE29CE00E940A490C
:101F4000F82E8AE29CE00E940A49E82E8AE29CE090
:101F50000E940A49B82E8AE29CE00E94CC498E2D4C
:101F600090E0A0E0B0E04F2D50E060E070E0C12EC6
:101F7000D12CE12CF12C11FF13C0BA95762F652FCF
:101F8000542F4427840F951FA61FB71F7601DD2409
:101F9000CC24BC01CD016C0D7D1D8E1D9F1D13C079
:101FA0007601DD24CC24762F652F542F44274C0D49
:101FB0005D1D6E1D7F1D6A017B01C80ED91EEA1EC4
:101FC000FB1EC701B6010E943F556B017C01013029
:101FD00009F028CF20E030E040E85CE359CFC12C85
:101FE00080E4D82E8CE1E82E86ECF82E1BCFC701BA
:101FF000B6010F90DF91CF911F910F91FF90EF905D
:10200000DF90CF90BF90AF9008950F93022F242FB1
:10201000462F69E60E94FA0D0F910895CF93DF9342
:10202000EC0118826530710509F447C09CF46230F8
:10203000710561F144F46115710509F44DC0613019
:102040007105E1F04CC06330710541F164307105F8
:1020500069F145C06636710581F13CF46630710561
:10206000A1F16536710511F13AC06936710571F05B
:102070006A36710599F06736710589F58AE08B83B8
:1020800089E08C8380E18D8381E006C087E08B83CB
:1020900086E08C831D8282E0898321C084E08B836B
:1020A00085E08C8383E18D8383E0F6CF84E18B83AD
:1020B00083E18C831D8284E0EFCF82E18B8381E119
:1020C0008C838FE08D8385E0E7CF80E18B838FE089
:1020D0008C831D8286E0E0CF83E28B838C838FEF3D
:1020E0008A8380E090E0A0E8BFE38E839F83A88787
:1020F000B9871A861B861C861D868E879F87A88BAC
:10210000B98BFE01CE01C89640E050E060E87FE365
:10211000168A178A108E118E428F538F648F758F97
:102120003896E817F907A1F78091500D9091510D5D
:1021300085FF60C061E089E00E94893A61E086E045
:102140000E94893A61E085E00E94893A61E083E17A
:102150000E94893A61E081E10E94893A61E08FE062
:102160000E94893A60E089E00E94A43A60E086E03B
:102170000E94A43A60E085E00E94A43A60E083E116
:102180000E94A43A60E081E10E94A43A60E08FE0FE
:102190000E94A43A61E08AE00E94893A61E087E007
:1021A0000E94893A61E084E00E94893A61E084E11A
:1021B0000E94893A61E082E10E94893A61E080E10F
:1021C0000E94893A61E08AE00E94A43A61E087E0D7
:1021D0000E94A43A61E084E00E94A43A61E084E1B4
:1021E0000E94A43A61E082E10E94A43A61E080E1A9
:1021F0000E94A43A81E0888361E08B810E94893A41
:1022000061E08C810E94893A61E08B810E94A43A4E
:1022100060E08C810E94A43A1092520DDF91CF9120
:1022200008954F925F926F927F928F929F92AF929A
:10223000BF92CF92DF92EF92FF92CF93DF93EC01A8
:102240006A017B0120E030E04AE754ECC701B601A7
:102250000E949054882309F4A8C020E030E040EAAE
:1022600051E4C701B6010E94905487FF28C08A81BB
:1022700020E1829FC0011124FC01EE5DFC4F85909E
:102280009590A590B490FC01EA5DFC4F6591759125
:1022900085919491A50194010E94235420E030E09F
:1022A00040E252E40E9495542B013C0120E030E0D2
:1022B00040EA51E4C701B6010E94245469C020E0FD
:1022C00030E040EA51E4C701B6010E94EF5587FDB6
:1022D0002EC020E030E040E252E4C701B6010E9487
:1022E000905487FF24C08A8120E1829FC00111247D
:1022F000FC01EA5DFC4F85909590A590B490FC019F
:10230000E65DFC4F6591759185919491A5019401CD
:102310000E94235420E030E040EA51E40E949554AA
:102320002B013C0120E030E040EA51E42DC020E0E8
:1023300030E040E252E4C701B6010E94EF5587FD4C
:1023400034C08A8120E1829FC0011124FC01E65D36
:10235000FC4F85909590A590B490FC01E25DFC4FF8
:102360006591759185919491A50194010E942354E2
:1023700020E030E040E251E40E9495542B013C0102
:1023800020E030E040E252E4C701B6010E9423544D
:102390009B01AC01C301B2010E94F4559B01AC0149
:1023A000C501B4010E94245403C060E070E0CB0179
:1023B000DF91CF91FF90EF90DF90CF90BF90AF90E3
:1023C0009F908F907F906F905F904F9008954F9265
:1023D0005F926F927F928F929F92AF92BF92CF92B5
:1023E000DF92EF92FF92CF93DF93EC016A017B01C2
:1023F00020E030E04AE754ECC701B6010E94905457
:10240000882309F4D7C020E030E0A901C701B60154
:102410000E94905487FF28C08A8124E1829FC001D6
:102420001124FC01EE56FE4F85909590A590B49036
:10243000FC01EA56FE4F6591759185919491A50135
:1024400094010E94235420E030E040E252E40E94D4
:1024500095542B013C0120E030E040EA51E4C701F3
:10246000B6010E9424548CC020E030E0A901C701CD
:10247000B6010E94EF5587FD1AC020E030E040EA27
:1024800051E4C701B6010E94905487FF10C08A81B1
:1024900024E1829FC0011124FC01EA56FE4F859081
:1024A0009590A590B490FC01E656FE4F23C020E025
:1024B00030E040EA51E4C701B6010E94EF5587FDC4
:1024C0002EC020E030E040E252E4C701B6010E9495
:1024D000905487FF24C08A8124E1829FC001112487
:1024E000FC01E656FE4F85909590A590B490FC01B6
:1024F000E256FE4F6591759185919491A5019401E5
:102500000E94235420E030E040EA51E40E949554B8
:102510002B013C0120E030E040EA51E42DC020E0F6
:1025200030E040E252E4C701B6010E94EF5587FD5A
:1025300034C08A8124E1829FC0011124FC01E2564B
:10254000FE4F85909590A590B490FC01EE55FE4FFE
:102550006591759185919491A50194010E942354F0
:1025600020E030E040E251E40E9495542B013C0110
:1025700020E030E040E252E4C701B6010E9423545B
:102580009B01AC01C301B2010E94F4559B01AC0157
:10259000C501B4010E94245404C060E070E080E8EA
:1025A0009FE39B01AC0160E070E080E89FE30E9444
:1025B000955404C060E070E080E89FE3DF91CF9124
:1025C000FF90EF90DF90CF90BF90AF909F908F9053
:1025D0007F906F905F904F9008958F929F92AF92EF
:1025E000BF92FF920F931F93CF93DF9300D01F9260
:1025F000CDB7DEB7F62E49015A011B8202E09E01DB
:102600002F5F3F4F4CE46AE28AE29CE00E94C64A98
:1026100020E030E543EC57E4C501B4010E9490543A
:102620001A811816CCF120E030E543EC57E4C501DF
:10263000B4010E94955420E030E040E053E40E9451
:10264000F4550E940E556B83FF20A9F01460198386
:1026500001E09E012F5F3F4F41E46AE28AE29CE085
:102660000E947D4A9B8180E8891B8B839E012D5FA0
:102670003F4F40E01CC01061198301E09E012F5FB5
:102680003F4F41E46AE28AE29CE00E947D4A9E015B
:102690002D5F3F4F40E10BC0FF2011F01B7F01C0B9
:1026A0001F7E1B8301E09E012D5F3F4F41E46AE2E4
:1026B0008AE29CE00E947D4A0F900F900F90DF917C
:1026C000CF911F910F91FF90BF90AF909F908F90EF
:1026D00008950F931F93CF93DF9300D0CDB7DEB74C
:1026E000162F02E09E012F5F3F4F4CE46AE28AE220
:1026F0009CE00E94C64A8A818B3FA9F18B7F8B3E6A
:1027000091F1112329F09E012F5F3F4F4CE005C04E
:1027100002E09E012F5F3F4F4CE16AE28AE29CE0BB
:102720000E94C64A8981682F70E0762F66278A81C9
:10273000680F711D112331F080E890E09C01261B89
:10274000370BB90180E090E00E943D5520E030E079
:1027500040E05CE30E94F45520E030E543EC57E4B0
:102760000E94F45504C060E074E284E799E40F909D
:102770000F90DF91CF911F910F9108952F923F926B
:102780004F925F926F927F928F929F92AF92BF9281
:10279000CF92DF92EF92FF920F931F93CF93DF932D
:1027A00000D000D0CDB7DEB71C01762E69017A01CA
:1027B00043E060E089E795E00E94DD0D64E670E0AB
:1027C00080E090E00E947B3904E010E0812C912CA5
:1027D000540121E040E0672D8AE795E00E94051052
:1027E0009B01AC01C501B4010E9424544B015C0162
:1027F0000150110971F720E030E040E85EE30E94EB
:10280000F45569837A838B839C8389E795E00E94E2
:10281000840D882341F0813071F4412C512C612CBE
:1028200085E4782E0BC0412C90E4592E9EE4692E4D
:1028300095E4792E03C0412C512C320189E795E0B3
:102840000E94680D813049F0823061F0811114C01E
:102850002DEC3CEC4CE45EE309C020E030E040E0CD
:102860005FE304C02FE135E84BE25FE3C301B2014F
:102870000E94F4552B013C0189E795E00E944C0D24
:10288000883058F494E0899FF0011124E457FD4FFB
:1028900080809180A280B38003C0812C912C540150
:1028A00060E0F10184810E94A43AA3019201698150
:1028B0007A818B819C810E942354A50194010E94FE
:1028C00095544B015C0120E030E04AE754E4F1010B
:1028D00062857385848595850E9495549B01AC0122
:1028E000C501B4010E9423544B015C01B701A6014C
:1028F000C1010E94E7119B01AC01C501B4010E9416
:10290000F455F1012281222319F02950223008F4D4
:10291000905820E030E04AE754E40E94F455F10179
:1029200026813781408551850E9495544B015C0179
:10293000B701A601C1010E9411119B01AC01C501A3
:10294000B4010E9423546B017C0120E030E0A90116
:102950000E94905487FF03C0C12CD12C7601C7017F
:10296000B6010F900F900F900F90DF91CF911F91B4
:102970000F91FF90EF90DF90CF90BF90AF909F901E
:102980008F907F906F905F904F903F902F90089521
:102990007F928F929F92AF92BF92CF92DF92EF92EF
:1029A000FF920F931F93CF93DF93EC01762E490193
:1029B0005A0104E010E0C12CD12C760121E040E066
:1029C000672D8AE795E00E9405109B01AC01C701C5
:1029D000B6010E9424546B017C010150110971F76A
:1029E00060E08C810E94A43A20E030E040E85EEB99
:1029F000C701B6010E94F4552E893F89488D598D33
:102A00000E9423542A8D3B8D4C8D5D8D0E949554E0
:102A10002A853B854C855D850E9423546B017C0192
:102A2000B501A401CE010E9411119B01AC01C701A7
:102A3000B6010E9423546B017C01B501A401CE01B3
:102A40000E94E7119B01AC01C701B6010E94F45539
:102A50002E813F81488559850E9495546B017C01E8
:102A600020E030E0A9010E94905487FF03C0C12CF0
:102A7000D12C7601C701B601DF91CF911F910F9143
:102A8000FF90EF90DF90CF90BF90AF909F908F908E
:102A90007F900895BF92CF92DF92EF92FF920F93B3
:102AA0001F93CF93DF93EC01B62E04E010E0C12C0E
:102AB000D12C760121E040E06B2D8AE795E00E9461
:102AC00005109B01AC01C701B6010E9424546B01A3
:102AD0007C010150110971F760E08C810E94A43AD9
:102AE00020E030E040E85EE3C701B6010E94F45503
:102AF0002E893F89488D598D0E9423542A8D3B8D04
:102B00004C8D5D8D0E9495542A853B854C855D8555
:102B10000E9423542E813F81488559850E94F45597
:102B20006B017C0120E030E0A9010E94905487FFF6
:102B300003C0C12CD12C7601C701B601DF91CF9122
:102B40001F910F91FF90EF90DF90CF90BF9008956D
:102B50003F924F925F926F927F928F929F92AF922D
:102B6000BF92CF92DF92EF92FF920F931F93CF937A
:102B7000DF9300D000D000D0CDB7DEB78C01362E69
:102B800049015A0143E060E089E795E00E94DD0DCC
:102B900061E0C8010E9469132B013C0120E030E094
:102BA000A90161E0C8010E94ED1268EE73E080E0C7
:102BB00090E00E947B3988E090E09A838983C12C61
:102BC000D12C760164E670E080E090E00E947B39D1
:102BD00021E040E0632D8AE795E00E9405109B010B
:102BE000AC01C701B6010E9424546B017C01E9814C
:102BF000FA813197FA83E983EF2B21F7A301920140
:102C000061E0C8010E94ED1260E0C8010E946913F2
:102C10002B013C0120E030E040E05EE3C701B6015B
:102C20000E94F455A30192010E94955420E030E0E7
:102C30004AE754EC0E94F455F80126893789408D03
:102C4000518D0E942454F801228D338D448D558D71
:102C50000E9495542B013C0160E0C8010E94691359
:102C600069837A838B839C8320E030E0A90160E054
:102C7000C8010E94ED1260ED77E080E090E00E94D4
:102C80007B3988E090E09E838D83C12CD12C760126
:102C900064E670E080E090E00E947B3921E040E053
:102CA000632D8AE795E00E9405109B01AC01C701E6
:102CB000B6010E9424546B017C01ED81FE813197A5
:102CC000FE83ED83EF2B21F729813A814B815C81D3
:102CD00060E0C8010E94ED1261E0C8010E94691322
:102CE00069837A838B839C8320E030E040E05EE35D
:102CF000C701B6010E94F45529813A814B815C815C
:102D00000E94955420E030E04AE754E40E94F455D4
:102D1000F801268D378D40A151A10E942454F8015D
:102D200022A133A144A155A10E9495546B017C01BD
:102D300020E030E04AE754E4F80162857385848539
:102D400095850E9495549B01AC01C301B2010E947C
:102D500023542B013C0120E030E04AE754E4F80121
:102D600066857785808991890E9495549B01AC0185
:102D7000C701B6010E9423549B01AC01C301B201FB
:102D80000E9423546B017C01B501A401C8010E947B
:102D9000E7119B01AC01C701B6010E94F45520E088
:102DA00030E04AE754E40E94F455F8012681378167
:102DB000408551850E9495546B017C0120E030E0F4
:102DC000A9010E94905487FF03C0C12CD12C760129
:102DD00060E0F80184810E94A43AC701B6012696FA
:102DE0000FB6F894DEBF0FBECDBFDF91CF911F911C
:102DF0000F91FF90EF90DF90CF90BF90AF909F909A
:102E00008F907F906F905F904F903F900895AF921A
:102E1000BF92CF92DF92EF92FF920F931F93CF93C7
:102E2000DF9300D000D01F92CDB7DEB77C016C01DC
:102E300086E5C80ED11C01E0960140E060E58AE21B
:102E40009CE00E94C64A97012E5F3F4F41E060E53B
:102E50008AE29CE00E94C64AF7018281843170F4C4
:102E6000803108F0E3C08D30B1F008F45EC08E30E0
:102E700009F4DCC08F3009F0A9C10DC08C3F09F402
:102E800054C018F48B3F39F0A1C18D3F09F4CEC076
:102E90008E3F09F09BC104E09E012F5F3F4F42E04F
:102EA00060E58AE29CE00E94C64A89819A81AB81F2
:102EB000BC81F70186839783A087B1879E012F5F2E
:102EC0003F4F48E060E58AE29CE00E94C64A898163
:102ED0009A81AB81BC81F70182879387A487B587EC
:102EE0009E012F5F3F4F40E160E58AE29CE00E9437
:102EF000C64A89819A81AB81BC81F701868B978B09
:102F0000A08FB18F9E012F5F3F4F48E160E58AE2BD
:102F10009CE00E94C64A89819A81AB81BC81F701FD
:102F2000828F938FA48FB58F51C104E09E012F5FD4
:102F30003F4F42E060E58AE29CE00E94C64A8981F8
:102F40009A81AB81BC81F70186839783A087B18783
:102F50009E012F5F3F4F48E060E58AE29CE00E94BF
:102F6000C64A89819A81AB81BC81F70182879387A8
:102F7000A487B587570114E14CEF410F04E09E018F
:102F80002F5F3F4F60E58AE29CE00E94C64A89813C
:102F90009A81AB81BC81F501868B978BA08FB18F15
:102FA0009E012F5F3F4F412F60E58AE29CE00E9427
:102FB000C64A89819A81AB81BC81F501828F938F4A
:102FC000A48FB58FF8E0AF0EB11C185F1C34A1F6CA
:102FD000F6018081833008F4F9C09E012F5F3F4FD6
:102FE00048E460E58AE29CE00E94C64A89819A81B1
:102FF000AB81BC81F701E25BFF4F80839183A283A9
:10300000B3839E012F5F3F4F4CE460E58AE29CE072
:103010000E94C64A89819A81AB81BC81F701EE5A30
:10302000FF4F80839183A283B383D0C004E09E01CD
:103030002F5F3F4F42E060E58AE29CE00E94C64A73
:1030400089819A81AB81BC81F70186839783A087B0
:10305000B1879E012F5F3F4F48E060E58AE29CE028
:103060000E94C64A89819A81AB81BC81F70182871F
:103070009387A487B5879E012F5F3F4F4CE060E5A3
:103080008AE29CE00E94C64A89819A81AB81BC8118
:10309000F701828B938BA48BB58B9E012F5F3F4FE3
:1030A00040E160E58AE29CE00E94C64A89819A81FB
:1030B000AB81BC81F701868B978BA08FB18F9E016E
:1030C0002F5F3F4F44E160E58AE29CE00E94C64AE0
:1030D00089819A81AB81BC81F701828F938FA48F04
:1030E000B58F9E012F5F3F4F48E160E58AE29CE08B
:1030F0000E94C64A89819A81AB81BC81F701868F83
:10310000978FA0A3B1A39E012F5F3F4F4CE160E5D5
:103110008AE29CE00E94C64A89819A81AB81BC8187
:10312000F70182A393A3A4A3B5A39E012F5F3F4FF2
:1031300040E460E58AE29CE00E94C64A89819A8167
:10314000AB81BC81F701E15AFF4F80839183A28359
:10315000B3839E012F5F3F4F48E360E58AE29CE026
:103160000E94C64A89819A81AB81BC81F701E55AE8
:10317000FF4F80839183A283B3839E012F5F3F4FD4
:1031800044E460E58AE29CE00E94624C8981F70198
:10319000ED59FF4F8083F70116861786108A118A32
:1031A000F6018081833091F49E012F5F3F4F40E311
:1031B00060E58AE29CE00E94C64A89819A81AB81DF
:1031C000BC81F70186879787A08BB18BF601808140
:1031D000833020F101E09E012B5F3F4F46E060E528
:1031E0008AE29CE00E94C64AF701868137812085E9
:1031F000918589833A832B839C832281F601908178
:103200009227892783272B81982F92272C81922719
:1032100081E02D81291719F080E001C081E00F9035
:103220000F900F900F900F90DF91CF911F910F9102
:10323000FF90EF90DF90CF90BF90AF9008958F9266
:103240009F92AF92BF92CF92DF92EF92FF920F9335
:103250001F93CF93DF937C014A01A62E072FFC0119
:103260008281982F9D7F9D3009F4E5C08B3F09F442
:10327000E2C08E3F09F4DFC061E0F70184810E9463
:10328000A43A64E670E080E090E00E947B3989E730
:1032900095E00E94250D811107C060E0F70184814F
:1032A0000E94A43A8FEFCDC020E030E04AE754EC12
:1032B000B4018A2D902F0E949054F701C281811190
:1032C0000AC0CE3021F180EF8C0F843038F1CA3043
:1032D00061F5D2E065C020E030E040EE50E4B4019A
:1032E0008A2D902F0E94EF55181634F4CE3021F01D
:1032F00080EF8C0F8430C8F4B4018A2D902F0E9487
:103300000E55D62FB82CC92CDA2C102F0FC0B12C8B
:1033100020E4C22E3CE1D32E17E44DC0B12C80E452
:10332000C82E9CE1D92E17E401C0D5E0C93019F1AF
:1033300050F4C63028F4C43050F5C230E1F424C053
:10334000C83010F518C0C031B1F140F4CD3018F4D8
:10335000CB3030F110C0CE3071F167C0C43118F4F9
:10336000C23190F128C0CC3F79F0CD3F09F05DC06B
:1033700042E060E04EC042E06D2F89E795E00E9498
:103380009C0D01E020E04BC042E06D2F42C042E0C6
:103390006D2F89E795E00E949C0D01E026E03FC07B
:1033A00042E06D2F89E795E00E949C0D00E02AE045
:1033B00041E060E036C041E060E089E795E00E94CE
:1033C0009C0D01E020E008C041E060E089E795E065
:1033D0000E949C0D01E026E041E061E089E795E074
:1033E0000E94B80DF701EA5AFF4F80818330E9F05F
:1033F0002B2D3C2D4D2D512F60E0C7010E94ED1269
:103400002B2D3C2D4D2D512F61E0C7010E94ED1257
:103410000CC089E795E00E949C0D01E028E041E0A6
:1034200061E089E795E00E94B80D43E060E089E73C
:1034300095E00E94DD0D60E0F70184810E94A43ACE
:1034400081E0DF91CF911F910F91FF90EF90DF907E
:10345000CF90BF90AF909F908F9008958091500D26
:103460009091510D61E085FF16C089E00E94893A74
:1034700061E085E00E94893A61E081E10E94893A39
:1034800060E089E00E94A43A60E085E00E94A43AEE
:1034900060E081E12DC089E00E94893A61E086E028
:1034A0000E94893A61E085E00E94893A61E083E107
:1034B0000E94893A61E081E10E94893A61E08FE0EF
:1034C0000E94893A60E089E00E94A43A60E086E0C8
:1034D0000E94A43A60E085E00E94A43A60E083E1A3
:1034E0000E94A43A60E081E10E94A43A60E08FE08B
:1034F0000E94A43A61E070E080E090E00E947B3995
:1035000080E00895BF92CF92DF92EF92FF920F93E7
:103510001F93CF93DF93EC016A017B0161E08EE0A2
:103520000E94893A61E08EE00E94A43A8091520D97
:10353000882309F48FC08091400D9091410D81FF47
:1035400089C02091520D01E010E0C801098002C03D
:10355000880F991F0A94E2F7822B8093520D809175
:10356000500D9091510D85FF0FC061E08D810E943B
:10357000A43A80914C0D098002C0000F111F0A94DB
:10358000E2F7082B00934C0D60E08B810E94A43A77
:10359000CE010E942E1A61E08C810E94A43A64E65A
:1035A00070E080E090E00E947B3983E0B82ECE018D
:1035B0000E940717082F10E001301105C9F08AE2B8
:1035C0009CE00E94684CBA94B110F1CF012B81F4B9
:1035D0002091520D81E090E0098002C0880F991F70
:1035E0000A94E2F7809582238093520D10E043C045
:1035F00068EE73E080E090E00E947B3903E0B70161
:10360000A601CE010E941F19182F282F880F330BF7
:103610002130310551F48091520D098002C0220FF2
:10362000331F0A94E2F7282B12C08AE29CE00E9422
:10363000684C015021F78091520D21E030E0098063
:1036400002C0220F331F0A94E2F72095282320930B
:10365000520D11C040E060E08FEC99E00E948E3D79
:1036600064E670E080E090E00E947B398BE795E0B3
:103670000E94342266CF812FDF91CF911F910F914D
:10368000FF90EF90DF90CF90BF90089540E050E022
:103690006AE774EC0C94821ACF92DF92EF92FF9259
:1036A0000F93CF93DF9343E060E089E795E00E94BA
:1036B000DD0DC8E0D0E0C12CD12C760101E020E086
:1036C00043E069E68AE795E00E94FA0D9B01AC01B0
:1036D000C701B6010E9424546B017C01219771F748
:1036E00020E030E040E05EEB0E94F45520E030E066
:1036F0004CED52E40E949554DF91CF910F91FF90D1
:10370000EF90DF90CF900895CF92DF92EF92FF92EB
:103710000F93CF93DF9343E060E089E795E00E9449
:10372000DD0DC8E0D0E0C12CD12C760101E020E015
:1037300043E06AE68AE795E00E94FA0D9B01AC013E
:10374000C701B6010E9424546B017C01219771F7D7
:1037500020E030E040E05EEB0E94F45520E030E0F5
:103760004CED52E40E949554DF91CF910F91FF9060
:10377000EF90DF90CF9008958F929F92AF92BF927B
:10378000CF92DF92EF92FF920F931F93CF93DF932D
:10379000EC0149015A0143E060E089E795E00E94AD
:1037A000DD0DCE010E944C1B6B017C018E010D5979
:1037B0001F4FF80180818A3A59F434972081318172
:1037C00042815381C701B6010E9423546B017C01E1
:1037D000CE010E94841BF80120812A3A49F4FE019F
:1037E000E55AFF4F20813181428153810E94235449
:1037F0009B01AC01C701B6010E9423546B017C01FF
:10380000B501A401CE010E94E7119B01AC01C701E3
:10381000B6010E94F45520E030E04AE754E40E94EB
:10382000F4552E813F81488559850E9495546B013E
:103830007C0120E030E0A9010E94905487FF03C082
:10384000C12CD12C760160E08C810E94A43AC70182
:10385000B601DF91CF911F910F91FF90EF90DF9014
:10386000CF90BF90AF909F908F9008956F927F926E
:103870008F929F92AF92BF92DF92EF92FF920F933F
:103880001F93CF93DF9300D000D0CDB7DEB77091F8
:10389000520DE72FF0E0DC0111960C9002C0F59577
:1038A000E7950A94E2F7E0FFA7C047015801D62E3A
:1038B0003C0129833A834B835C830E942E1A6AE081
:1038C00070E080E090E00E947B3961E0F301848148
:1038D0000E94A43A64E670E080E090E00E947B39A8
:1038E000D30112968C9129813A814B815C8184317C
:1038F00060F4803108F072C08D3041F190F08E306C
:1039000009F44EC08F30B9F17CC08C3F51F018F4EF
:103910008B3F89F176C08D3F09F442C08E3FB1F0F4
:1039200070C06D2DC3010F900F900F900F90DF911D
:10393000CF911F910F91FF90EF90DF90BF90AF90CC
:103940009F908F907F906F900C94BE136D2DC3014C
:103950000F900F900F900F90DF91CF911F910F91CB
:10396000FF90EF90DF90BF90AF909F908F907F90EF
:103970006F900C94C8146D2DC3010F900F900F9091
:103980000F90DF91CF911F910F91FF90EF90DF90FB
:10399000BF90AF909F908F907F906F900C944A153E
:1039A000F301EA5AFF4F8081833019F485017401D5
:1039B0001EC06D2DC3010F900F900F900F90DF91DF
:1039C000CF911F910F91FF90EF90DF90BF90AF903C
:1039D0009F908F907F906F900C94A815F301EA5AF6
:1039E000FF4F8081833029F7E12CF12C87016D2D69
:1039F000C3010E94BC1B08C060E070E080E89FEB40
:103A000003C060E070E0CB010F900F900F900F901B
:103A1000DF91CF911F910F91FF90EF90DF90BF90BA
:103A2000AF909F908F907F906F900895EF92FF924C
:103A30000F931F93CF93DF93EC0140E061E08BE79E
:103A400095E00E945A229B01AC01E12CF12C00E090
:103A500010E462E0CE010E94361CDF91CF911F91ED
:103A60000F91FF90EF9008958F929F92AF92BF9227
:103A7000CF92DF92EF92FF920F931F93FC01008190
:103A8000118120E030E06A017B0184E0F594E79445
:103A9000D794C7948A95D1F7C01AD10AE20AF30ADB
:103AA00093E075956795579547959A95D1F7000FCF
:103AB000111F221F331FDB01CA01801B910BA20BB8
:103AC000B30B9C01AD01A281B3810E948E584B01C2
:103AD0005C01BBE0B594A79497948794BA95D1F70D
:103AE000A7019601C701B6010E94E6579B01AC01F0
:103AF0001CE055954795379527951A95D1F7A481E0
:103B0000B5810E948E58AB01BC010EE0759567959A
:103B1000579547950A95D1F79A01AB01280D391DA4
:103B20004A1D5B1D21A332A343A354A3A5E0B0E02B
:103B30000E948358DC01CB0180589F4FAF4FBF4F8D
:103B4000692F7A2F8B2F992787FD9A950E943F55D1
:103B500020E030E048EC52E40E9495541F910F9110
:103B6000FF90EF90DF90CF90BF90AF909F908F909D
:103B700008952F923F924F925F926F927F928F9211
:103B80009F92AF92BF92CF92DF92EF92FF920F93EC
:103B90001F93CF93DF93CDB7DEB7A4970FB6F894FA
:103BA000DEBF0FBECDBF9A8389834C8F5D8F6E8F32
:103BB0007F8FFC0181A192A1A3A1B4A16C017D0121
:103BC000FF0CCC08DC2C76019C01AD016C2D7C2D0A
:103BD0008C2D9C2D345F4140510961097109810987
:103BE00091092CA33BA34B835C836D837E838F83DE
:103BF000988759016A017B018C010E9496582C8B91
:103C00003D8B4E8B5F8B688F798F8A8F9B8FE9817D
:103C1000FA81F089F8A3E981FA81F189F987E981CC
:103C2000FA81F685F9A3E981FA81F785FA87E981B6
:103C3000FA81F485FAA3E981FA81F585FB87E981A8
:103C4000FA81B184A0841B2D110F110BC12ED12E2E
:103C5000E12EF12E012F2CA13BA14B815C816D81C6
:103C60007E818F8198850E9496580CE00E94C659EB
:103C700019012A013B014C01E981FA81B384A28434
:103C80001B2D110F110BC12ED12EE12EF12E012F64
:103C90002C893D894E895F89688D798D8A8D9B8DB0
:103CA0000E94965808E00E94DF5951016201730199
:103CB00084010E94FD5970588F4F9F4FE981FA810E
:103CC000268037805101C12CD12CE12CF12C00E051
:103CD00010E00E94965801E20E94DF592C873D8730
:103CE0004E875F87688B798B8A8B9B8BA0E00E94C5
:103CF0000F5A09F451C1A8A01985110F110BB984ED
:103D0000C12ED12EE12EF12E012F2C893D894E8915
:103D10005F89688D798D8A8D9B8D0E9496581901D7
:103D20002A013B014C01A9A01A85110F110BBA847D
:103D3000C12ED12EE12EF12E012F2CA13BA14B81C2
:103D40005C816D817E818F8198850E94965801E10A
:103D50000E94C65959016A017B018C019101A2019F
:103D6000B301C4010E94FD5919012A013B014C0114
:103D700080E090E0A0E1B0E02C8D3D8D4E8D5F8D18
:103D8000821B930BA40BB50B6C017D01FF0CCC08BF
:103D9000DC2C76019C01AD016C2D7C2D8C2D9C2D95
:103DA0000FE10E94C659F901B42FA52F6E837F83BE
:103DB0008B839C832AA19B85990F990B3B85492F67
:103DC000592F692F792F892F03E20E94C659590173
:103DD0006A017B018C019101A201B301C4010E941F
:103DE000FD5959016A017B018C019F014B2F5A2F0C
:103DF0006E817F818B819C810E94065A4901542EDD
:103E0000652EB62FA72FF82FE92F03E00E94C65981
:103E10005401C52CD62CEB2EFA2E0F2F1E2F0E94EC
:103E2000065A59016A017B01782E192F03E00E947E
:103E3000C659072D0E94065A03E00E94C659540134
:103E4000C52CD62CEB2EFA2E0F2F1E2F0E94065AB1
:103E500002E00E94C6590F2F0E94065A01E00E94FC
:103E6000C6590F2F0E94065AAC84BD84CE84DF84CD
:103E7000E888F9880A891B890E94F1582A873987BE
:103E80004B835C836D837E838F8398870DE00E94D4
:103E9000DF59922E832E742E652E562E472E382EE5
:103EA000292EE981FA8137892689932F990F990B59
:103EB000A92CB82CC72CD62CE52CF42C032D122DB4
:103EC000492F592F692F792F892F0E9496580E94C8
:103ED000965809E10E94DF5959016A017B018C0162
:103EE0002A8539854B815C816D817E818F819885A2
:103EF0000E94FD5919012A013B014C01E981FA8117
:103F000035892489932F990F990BAA84B984CB8082
:103F1000DC80ED80FE800F811885492F592F692F95
:103F2000792F892F0E94965803E10E94DF59590189
:103F30006A017B018C019101A201B301C4010E94BD
:103F4000FD5908E00E94DF59522E632E742E852EF3
:103F5000962E472EDC01E981FA8133892289932F3D
:103F6000990F990B492F592F692F792F892F04E029
:103F70000E94C65959016A017B018C01252D362DFD
:103F8000472D582D692D742DCD010E94FD59B90181
:103F9000CA010E943D5503C060E070E0CB01A496C9
:103FA0000FB6F894DEBF0FBECDBFDF91CF911F914A
:103FB0000F91FF90EF90DF90CF90BF90AF909F90C8
:103FC0008F907F906F905F904F903F902F900895CB
:103FD0004F925F926F927F928F929F92AF92BF9219
:103FE000CF92DF92EF92FF92FC0181A092A0A3A05A
:103FF000B4A02CE2921A21E0A20AB1086A017B0166
:104000003EE0CC0CDD1CEE1CFF1C3A95D1F7848DF4
:10401000958D092E000CAA0BBB0B44E1880F991F4C
:10402000AA1FBB1F4A95D1F7C81AD90AEA0AFB0A88
:10403000A68DB78DA50194010E948E58C61AD70A85
:10404000E80AF90A30E4D30EE11CF11C5FE0F594B4
:10405000E794D794C7945A95D1F7A0A10A2E000CE3
:10406000BB0BA50194010E948E582B013C016AE014
:1040700075946794579447946A95D1F7A38DB0E0EF
:104080000E948358DC01CB017BE0B595A7959795FD
:1040900087957A95D1F7BC01CD0170588F4F9F4F0E
:1040A000A30192010E94E657DC01CB012AE0B595FD
:1040B000A795979587952A95D1F79C01AD01405E0C
:1040C0005F4FA18DB28D0E948E58DC01CB01905EB6
:1040D000AF4FBF4FBC01CD013EE0959587957795D9
:1040E00067953A95D1F7A70196010E94E6576B01B3
:1040F0007C014FE095958795779567954A95D1F71F
:104100009B01AC010E94E6579B01AC0167E055950D
:104110004795379527956A95D1F7A08DB0E00E9415
:104120008358DC01CB0174E0B595A79597958795E9
:104130007A95D1F7A7019601281B390B4A0B5B0B27
:10414000DA01C90157FD0BC081309105A10539E1A4
:10415000B30744F080E090E0A0E0B9E103C080E064
:1041600090E0DC01BC01CD012CE095958795779519
:1041700067952A95D1F70E943F55FF90EF90DF9009
:10418000CF90BF90AF909F908F907F906F905F90F7
:104190004F9008950F93CF93DF931F92CDB7DEB763
:1041A00001E09E012F5F3F4F40ED67E78AE29CE010
:1041B0000E94C64A81E09981903609F080E00F9014
:1041C000DF91CF910F910895EF92FF920F93CF93CC
:1041D000DF9300D000D0CDB7DEB77C0102E09E01B6
:1041E0002F5F3F4F48E867E78AE29CE00E94C64A9B
:1041F0008A8190E0982F88272981820F911DF701ED
:10420000918380839E012F5F3F4F4AE867E78AE2F0
:104210009CE00E94C64A8A8190E0982F88272981D5
:10422000820F911DF701938382839E012F5F3F4F81
:104230004CE867E78AE29CE00E94C64A8A8190E0E7
:10424000982F88272981820F911DF70195838483F8
:104250009E012F5F3F4F4EE867E78AE29CE00E9495
:10426000C64A8A8190E0982F88272981820F911D64
:10427000F701978386839E012F5F3F4F40E967E7F1
:104280008AE29CE00E94C64A8A8190E0982F8827A3
:104290002981820F911DF701918780879E012F5FF1
:1042A0003F4F42E967E78AE29CE00E94C64A8A8162
:1042B00090E0982F88272981820F911DF70193871D
:1042C00082879E012F5F3F4F44E967E78AE29CE0C7
:1042D0000E94C64A8A8190E0982F88272981820F00
:1042E000911DF701958784879E012F5F3F4F46E917
:1042F00067E78AE29CE00E94C64A8A8190E0982F94
:1043000088272981820F911DF701978786879E0153
:104310002F5F3F4F48E967E78AE29CE00E94C64A68
:104320008A8190E0982F88272981820F911DF701BB
:10433000918B808B9E012F5F3F4F4AE967E78AE2AE
:104340009CE00E94C64A8A8190E0982F88272981A4
:10435000820F911DF701938B828B9E012F5F3F4F40
:104360004CE967E78AE29CE00E94C64A8A8190E0B5
:10437000982F88272981820F911DF701958B848BB7
:104380009E012F5F3F4F4EE967E78AE29CE00E9463
:10439000C64A8A8190E0982F88272981820F911D33
:1043A000F701978B868B9701285E3F4F01E041EA2A
:1043B00067E78AE29CE00E94C64A02E09E012F5F06
:1043C0003F4F41EE67E78AE29CE00E94C64A8A813D
:1043D00090E0982F88272981820F911DF701928FF5
:1043E000818F9701255E3F4F01E043EE67E78AE248
:1043F0009CE00E94C64A03E09E012F5F3F4F44EEBF
:1044000067E78AE29CE00E94C64A2A813981822FAE
:104410008F7090E0F0E13F9F800D911D1124F70116
:10442000958F848F207F8B8190E0F0E12F9F800D0E
:10443000911D1124F701978F868F01E09E012F5F58
:104440003F4F47EE67E78AE29CE00E94C64A8981B7
:10445000F70180A30F900F900F900F90DF91CF91F5
:104460000F91FF90EF9008950F931F93CF938C01BE
:104470008091400D9091410D81FD06C040E060E0CB
:104480008FEC99E00E948E3D64E670E080E090E061
:104490000E947B39C8010E94CA20C82F813021F4B4
:1044A000C8010E94E42001C0C0E08C2FCF911F9171
:1044B0000F9108954F925F926F927F92AF92BF9249
:1044C000CF92DF92EF92FF920F93CF93DF9300D0C2
:1044D0001F92CDB7DEB76C01F62E0E94CA20813044
:1044E00009F0C3C043E0E42E00E020E042EF67E7BC
:1044F0008AE29CE00E94C34B02E020E044EF67E7C1
:104500008AE29CE00E94C34B05E02F2D44EF67E751
:104510008AE29CE00E94C34B02E020E045EF67E79F
:104520008AE29CE00E94C34B52E0E52E00E021E0CD
:1045300044EF67E78AE29CE00E94C34BEF2CF12C2A
:1045400081E0E81AF10882E090E05C010E2C02C0E4
:10455000AA0CBB1C0A94E2F7B5016E5F7F4F072ED1
:10456000000C880B990B0E947B3903E09E012F5FA2
:104570003F4F43EF67E78AE29CE00E940C4C898141
:10458000813069F103E09E012F5F3F4F4AEF67E7FB
:104590008AE29CE00E94C64A498150E060E070E0F7
:1045A000BA01552744278A8190E0A0E0B0E0BA2FF5
:1045B000A92F982F8827480F591F6A1F7B1F8B81AF
:1045C000480F511D611D711D34E075956795579514
:1045D00047953A95D1F7C6010E94341D4AC061E063
:1045E00070E002C0660F771FEA94E2F7072E000C16
:1045F000880B990B0E943F5523E333E343E150E4DA
:104600000E94F45520E030E040EA5FE30E94245429
:104610002B013C01C5010196BC01990F880B990B38
:104620000E943F559B01AC01C301B2010E9423547B
:104630000E9407556F5F7F4F072E000C880B990B68
:104640000E947B3903E09E012F5F3F4F43EF67E7F6
:104650008AE29CE00E940C4C8981813009F092CF63
:1046600060E070E48AE794EC04C060E070E08AE700
:1046700094EC0F900F900F90DF91CF910F91FF90DE
:10468000EF90DF90CF90BF90AF907F906F905F9052
:104690004F9008954F925F926F927F928F929F9268
:1046A000AF92BF92CF92DF92EF92FF920F93CF9390
:1046B000DF93CDB7DEB727970FB6F894DEBF0FBEF6
:1046C000CDBF6C01F62E0E94CA20813009F01FC1B7
:1046D000B3E0EB2E00E020E042EF67E78AE29CE0E7
:1046E0000E94C34B02E02F2D44EF67E78AE29CE073
:1046F0000E94C34B05E02F2D44EF67E78AE29CE060
:104700000E94C34B02E020E045EF67E78AE29CE0AD
:104710000E94C34B02E0E02E00E021E044EF67E797
:104720008AE29CE00E94C34BEF2CF12C81E0E81A56
:10473000F10882E090E05C010E2C02C0AA0CBB1CC8
:104740000A94E2F7B5016F5F7F4F072E000C880BCC
:10475000990B0E943F552B013C01B501BB0C880B06
:10476000990B0E943F5520E030E040E05FE30E945B
:1047700024549B01AC01C301B2010E9424544B019B
:104780005C010E9407556F5F7F4F072E000C880B5E
:10479000990B0E947B3903E09E012F5F3F4F43EF4F
:1047A00067E78AE29CE00E940C4C8981813009F421
:1047B0005EC003E09E012F5F3F4F4AEF67E78AE24A
:1047C0009CE00E94C64A498150E060E070E0BA0176
:1047D000552744278A8190E0A0E0B0E0BA2FA92FA6
:1047E000982F8827480F591F6A1F7B1F8B81480FFE
:1047F000511D611D711D34E075956795579547955D
:104800003A95D1F7C6010E94341D9E012F5F3F4F9C
:1048100047EF67E78AE29CE00E94C64A498150E080
:1048200060E070E0BA01552744278A8190E0A0E05B
:10483000B0E0BA2FA92F982F8827480F591F6A1F59
:104840007B1F8B81480F511D611D711DA4E0759563
:10485000679557954795AA95D1F7C6010E94B91D4E
:1048600020E030E040E85BE30E94F45554C081E072
:1048700090E002C0880F991FEA94E2F7BC01990FFB
:10488000880B990B0E943F5523E333E343E150E447
:104890000E94F4552B013C0120E030E040EA5FE348
:1048A0000E9424546C837D838E839F8323E333E3B0
:1048B00043E15FE3C301B2010E9424549B01AC01B8
:1048C0006C817D818E819F810E942454A501940179
:1048D0000E9423540E9407556F5F7F4F072E000CE4
:1048E000880B990B0E947B3903E09E012F5F3F4F9D
:1048F00043EF67E78AE29CE00E940C4C898181309B
:1049000009F057CF60E070E48AE794EC04C060E0FF
:1049100070E08AE794EC27960FB6F894DEBF0FBEDE
:10492000CDBFDF91CF910F91FF90EF90DF90CF90AF
:10493000BF90AF909F908F907F906F905F904F90BF
:1049400008954F925F926F927F928F929F92AF9253
:10495000BF92CF92DF92EF92FF920F93CF93DF93AC
:10496000CDB7DEB727970FB6F894DEBF0FBECDBF29
:104970006C01F62E0E94CA20813009F00EC1F3E0CE
:10498000EF2E00E02F2D42EF67E78AE29CE00E94C5
:10499000C34B02E020E044EF67E78AE29CE00E941C
:1049A000C34B05E02F2D44EF67E78AE29CE00E94AD
:1049B000C34B02E020E045EF67E78AE29CE00E94FB
:1049C000C34BA2E0EA2E00E021E044EF67E78AE271
:1049D0009CE00E94C34BEF2CF12C81E0E81AF10817
:1049E00082E090E05C010E2C02C0AA0CBB1C0A9471
:1049F000E2F7B5016F5F7F4F072E000C880B990B14
:104A00000E943F552B013C01B501BB0C880B990B53
:104A10000E943F5520E030E040E05FE30E942454D4
:104A20009B01AC01C301B2010E9424544B015C0103
:104A30000E9407556F5F7F4F072E000C880B990B64
:104A40000E947B3903E09E012F5F3F4F43EF67E7F2
:104A50008AE29CE00E940C4C8981813009F44DC0AF
:104A600003E09E012F5F3F4F4AEF67E78AE29CE039
:104A70000E94C64A498150E060E070E0BA015527C3
:104A800044278A8190E0A0E0B0E0BA2FA92F982FA8
:104A90008827480F591F6A1F7B1F8B81480F511DA4
:104AA000611D711D34E075956795579547953A9549
:104AB000D1F7C6010E94341D02E09E012F5F3F4FD7
:104AC0004DEF67E78AE29CE00E94C64A498150E0C8
:104AD00060E070E0762F652F542F44278A81480FBD
:104AE000511D611D711DC6010E94E81F20E030E0CC
:104AF00040E85AE30E94F45554C081E090E002C0BF
:104B0000880F991FEA94E2F7BC01990F880B990B63
:104B10000E943F5523E333E343E150E40E94F45500
:104B20002B013C0120E030E040EA5FE30E94245486
:104B30006C837D838E839F8323E333E343E15FE3D1
:104B4000C301B2010E9424549B01AC016C817D81A0
:104B50008E819F810E942454A50194010E942354B8
:104B60000E9407556F5F7F4F072E000C880B990B33
:104B70000E947B3903E09E012F5F3F4F43EF67E7C1
:104B80008AE29CE00E940C4C8981813009F068CF58
:104B900060E070E48AE794EC04C060E070E08AE7CB
:104BA00094EC27960FB6F894DEBF0FBECDBFDF9111
:104BB000CF910F91FF90EF90DF90CF90BF90AF908B
:104BC0009F908F907F906F905F904F900895E0EA54
:104BD000F5E0148282E090E0918380831382128258
:104BE0000895CF93DF93EC0189E29CE00E94E745B2
:104BF000688179818A819B814C81DF91CF910C946E
:104C0000313BFC0184810E94A53B40E060E089E2E9
:104C10009CE00C94C245FB0101900020E9F79F0144
:104C2000261B370B24503109FB01319680E0AF0180
:104C3000461B570B4217530718F491918927F7CF5A
:104C40000895CF93DF93DC0180E0FB01E80FF11DB5
:104C50009081903B11F08F5FF8CF9181933BD9F712
:104C6000EF012197188232971082FB01349620E0E1
:104C700030E08191803B21F0280F311D3F77F9CF43
:104C80009081933BC9F72F3F310529F024F0199605
:104C90003C93199703C019961C9219971A962C9356
:104CA000DF91CF9108950F931F93CF93DF938C01E2
:104CB000EB010E940B26F8018087282F22952F7088
:104CC000982F9F702A3010F4205D01C0295C9A3023
:104CD00010F4905D01C0995CFE0101900020E9F79D
:104CE0003197EC1BFD0BAE014E0F511DFA013297AF
:104CF000208331969083CE01DF91CF911F910F9148
:104D000008953F924F925F926F927F928F929F92FF
:104D1000AF92BF92CF92DF92EF92FF920F931F93C9
:104D2000CF93DF93CDB7DEB761970FB6F894DEBFB0
:104D30000FBECDBF7C011B861C861D861E861F866E
:104D4000188A198A0E942A392B013C016E0121E13F
:104D5000C20ED11C86E0382E5E0135E0A30EB11CD8
:104D600096E6892E94E0992E0E942A39DC01CB0127
:104D700084199509A609B709803D9740A105B10599
:104D800010F010E04DC0F70184810E94D33B18164B
:104D900019060CF070C0F70184810E94EF3B8B87ED
:104DA000843209F068C0F70184810E94D33B0597E3
:104DB0000CF452C08E01045F1F4FF70184810E94E2
:104DC000EF3BF80181938F01EC15FD05B1F7198ACE
:104DD00019821A821B821C82F501232D11922A95B9
:104DE000E9F7F40165917491CE0101960E94C05AD1
:104DF000BE016F5F7F4FCE010B960E94F35A11E008
:104E0000892BC9F50E942A39641575058605970511
:104E100020F40E942A392B013C01112309F4A4CF6C
:104E20008B858432B9F4112399F00E942A394B0101
:104E30005C01D12C0E942A39DC01CB018819990927
:104E4000AA09BB09803D9740A105B105B0F03BC060
:104E50008FEFBCC18EEFBAC10E942A39DC01CB01B1
:104E600084199509A609B709803D9740A105B105A8
:104E700008F499CF9FCF10E0C5CFF70184810E943D
:104E8000D33B181619060CF09FC10D2D10E0F70149
:104E900084810E94EF3BF801EE0DFF1D83878A326B
:104EA00009F088C1148611E0D3940E942A3968154C
:104EB00079058A059B0520F40E942A394B015C0183
:104EC000112309F47CC16701FBE0CF0ED11CF60170
:104ED00001900020E9F73197AF014C195D09B60147
:104EE000870105551F4FC8010E94FC5AF601019029
:104EF0000020E9F73197EC19FD09EE0DFF1DE5558E
:104F0000FF4F10826CEA72E0C8010E94C75A8C0100
:104F10006EEA72E00E94F35A97012A533E4F6901EC
:104F2000892B09F1F80101900020E9F73197AF01D1
:104F3000401B510BB801C701835B9E4F0E94FC5A76
:104F4000F80101900020E9F73197E01BF10BEE0D1D
:104F5000FF1DE35BFE4F10826CEA72E080E090E0A0
:104F60000E94C75A8C01F80101900020E9F731979F
:104F7000AF01401B510BB801C6010E94FC5AF80159
:104F800001900020E9F73197E01BF10BEE0DFF1DBA
:104F9000EA53FE4F1082F6019081913409F004C16A
:104FA0006CEA72E080E090E00E94C75A8C01FC013C
:104FB00001900020E9F73197AF01481B590BBC0164
:104FC000C70181599E4F0E94FC5AF80101900020B0
:104FD000E9F73197E01BF10BEE0DFF1DE159FE4F94
:104FE00010826CEA72E080E090E00E94C75AFC01F7
:104FF0008081F701E658FE4F80836CEA72E080E022
:1050000090E00E94C75A8C01FC0101900020E9F752
:105010003197AF01481B590BBC01C70185589E4F02
:105020000E94FC5AF80101900020E9F73197E01B3B
:10503000F10BEE0DFF1DE558FE4F10826CEA72E099
:1050400080E090E00E94C75AFC018081F701EA5796
:10505000FE4F80836CEA72E080E090E00E94C75AC5
:105060008C01FC0101900020E9F73197AF01481B4A
:10507000590B6701F9E7CF1AFEEFDF0ABC01C60141
:105080000E94FC5AF80101900020E9F73197E01BDB
:10509000F10BEE0DFF1DE957FE4F1082C6010E9475
:1050A000955A26E53EE04DEE5FE30E94F455AB01D4
:1050B000BC0102E010E0960189E29CE00E940B48EE
:1050C000F60101900020E9F73197EC19FD099701ED
:1050D0002E0F311DF901E957FE4F10826CEA72E084
:1050E00080E090E00E94C75A8C01FC0101900020F2
:1050F000E9F73197AF01481B590BBC01C701815536
:105100009E4F0E94FC5AF80101900020E9F7319768
:10511000E01BF10BEE0DFF1DE155FE4F10826CEA16
:1051200072E080E090E00E94C75A8C01FC0101907F
:105130000020E9F73197AF01481B590BBC01C701AB
:10514000885A9E4F0E94FC5AF80101900020E9F70E
:105150003197E01BF10BEE0DFF1DE85AFE4F108258
:105160006CEA72E080E090E00E94C75A8C01FC017A
:1051700001900020E9F73197AF01481B590BBC01A2
:10518000C7018D539E4F0E94FC5AF80101900020E8
:10519000E9F73197E01BF10BEE0EFF1EF701ED531F
:1051A000FE4F108281E012C081E0963509F480E064
:1051B00081950CC0843209F475CE10E075CEF1E50E
:1051C000FD1508F480CE36CE10E06FCE61960FB696
:1051D000F894DEBF0FBECDBFDF91CF911F910F912D
:1051E000FF90EF90DF90CF90BF90AF909F908F9007
:1051F0007F906F905F904F903F9008953F924F92B5
:105200005F926F927F928F929F92AF92BF92CF9256
:10521000DF92EF92FF920F931F93CF93DF93CDB75F
:10522000DEB761970FB6F894DEBF0FBECDBF8C011D
:105230001B861C861D861E861F86188A198A0E9458
:105240002A392B013C016E0121E1C20ED11C86E0FE
:10525000382E5E0135E0A30EB11C98E6892E94E04D
:10526000992E0E942A39DC01CB0184199509A609DF
:10527000B709803D9740A105B10510F0F12C4FC052
:10528000F80184810E94D33B181619060CF072C0F5
:10529000F80184810E94EF3B8B87843209F06AC059
:1052A000F80184810E94D33B05970CF454C09E0101
:1052B000245F3F4F7901F80184810E94EF3BF701A1
:1052C00081937F01EC15FD05B1F7198A19821A82C5
:1052D0001B821C82F501232D11922A95E9F7F40116
:1052E00065917491CE0101960E94C05ABE016F5F14
:1052F0007F4FCE010B960E94F35AFF24F394892B23
:10530000C9F50E942A39641575058605970520F4AC
:105310000E942A392B013C01FF2009F4A2CF8B8582
:105320008432B9F4FF2099F00E942A394B015C01C4
:10533000D12C0E942A39DC01CB0188199909AA09CC
:10534000BB09803D9740A105B105B0F03CC08FEF8F
:1053500091C18EEF8FC10E942A39DC01CB018419E3
:105360009509A609B709803D9740A105B10508F444
:1053700097CF9DCFF12CC5CFF80184810E94D33BFC
:10538000181619060CF074C1ED2CF12CF80184816B
:105390000E94EF3BF701E00FF11F83878A3209F08B
:1053A0005DC11486FF24F394D3940E942A396815B2
:1053B00079058A059B0520F40E942A394B015C017E
:1053C000FF2009F450C16801FBE0CF0ED11CF601AB
:1053D00001900020E9F73197AF014C195D09B60142
:1053E00078012BEAE20EF11CC7010E94FC5AF6017B
:1053F00001900020E9F73197EC19FD09E00FF11F4A
:10540000E555FF4F10826CEA72E0C7010E94C75A4F
:105410007C016DEB72E00E94F35AF801EA53FE4FF3
:105420006F01892B51F4F70101900020E9F73197C2
:10543000AF014E195F09B70130C0F701019000209C
:10544000E9F73197AF014E195F09B701C801835BD6
:105450009E4F0E94FC5AF70101900020E9F7319716
:10546000EE19FF09E00FF11FE35BFE4F10826CEABB
:1054700072E080E090E00E94C75A7C016DEB72E020
:105480000E94F35AF70101900020E9F73197AF012C
:105490004E195F09B701892B91F4C6010E94FC5A8D
:1054A000F70101900020E9F73197EE19FF090E0F7F
:1054B0001F1FF801EA53FE4F108280E0DBC0C801D5
:1054C00081599E4F0E94FC5AF70101900020E9F794
:1054D0003197EE19FF09E00FF11FE159FE4F1082DD
:1054E0006CEA72E080E090E00E94C75AFC01808183
:1054F000F801E658FE4F80836CEA72E080E090E0AD
:105500000E94C75A7C01FC0101900020E9F7319705
:10551000AF01481B590BBC01C80185589E4F0E9422
:10552000FC5AF70101900020E9F73197EE19FF09C5
:10553000E00FF11FE558FE4F10826CEA72E080E048
:1055400090E00E94C75AFC018081F801EA57FE4FA3
:1055500080836CEA72E080E090E00E94C75A7C0190
:10556000FC0101900020E9F73197AF01481B590B6E
:10557000BC01C6010E94FC5AF70101900020E9F726
:105580003197EE19FF09E00FF11FEA53FE4F108229
:105590006CEA72E080E090E00E94C75A7C01FC0156
:1055A00001900020E9F73197AF01481B590BBC016E
:1055B000C80188539E4F0E94FC5AF70101900020B9
:1055C000E9F73197EE19FF09E00FF11FE853FE4F9D
:1055D00010826CEA72E080E090E00E94C75A7C0181
:1055E000FC0101900020E9F73197AF01481B590BEE
:1055F000BC01C80185539E4F0E94FC5AF7010190DF
:105600000020E9F73197EE19FF09E00FF11FE5538C
:10561000FE4F10826CEA72E080E090E00E94C75A70
:105620007C01FC0101900020E9F73197AF01481B94
:10563000590BBC01C80185569E4F0E94FC5AF701C8
:1056400001900020E9F73197EE19FF090E0F1F1F97
:10565000F801E556FE4F108281E00CC0843209F457
:10566000A0CEF12CA1CEF1E5FD1508F4ACCE61CEB3
:10567000F12C9BCE61960FB6F894DEBF0FBECDBF66
:10568000DF91CF911F910F91FF90EF90DF90CF901E
:10569000BF90AF909F908F907F906F905F904F9052
:1056A0003F9008958F929F92AF92BF92DF92EF92B8
:1056B000FF920F931F93CF93DF93CDB7DEB72A9757
:1056C0000FB6F894DEBF0FBECDBF7C014B018C013D
:1056D000055F1F4F80EAD82ED801ED2D1D92EA9567
:1056E000E9F719821A821B821C82FE01359686E038
:1056F000DF011D928A95E9F7E2E7F4E06591749184
:10570000FE0131965F01CF010E94C05AB401C7016A
:105710000E9453269F938F93BF92AF921F92DF9266
:105720001F930F930E94795BD70114968C910E946E
:10573000283CF7016481C8010E94CB3C64E670E01C
:1057400080E090E00E947B390FB6F894DEBF0FBE78
:10575000CDBF2A960FB6F894DEBF0FBECDBFDF9146
:10576000CF911F910F91FF90EF90DF90BF90AF907E
:105770009F908F900895EF92FF920F931F93CF9376
:10578000DF937C01EB018A010E942126F7018185CC
:105790000C0F1D1FF80134978083F7018285F801F3
:1057A0003397808381E00E94283CC017D10729F0FD
:1057B00061E089910E94BE3CF8CFDF91CF911F91AB
:1057C0000F91FF90EF9008950F931F93CF93DF9366
:1057D000CDB7DEB7A8970FB6F894DEBF0FBECDBF2A
:1057E000462F50E0FC01258136814217530709F40A
:1057F0006CC08C016623B9F1613009F068C081E0AA
:1058000090E09683858380E2E2E1F2E0DE0111968A
:1058100001900D928A95E1F740E250E0BE016F5F82
:105820007F4FC8010E94BB2B64E670E080E090E0EF
:105830000E947B39F80184810E94A53B6AE070E0F8
:1058400080E090E00E947B3980EC92E1A0E0B0E043
:10585000F80180839183A283B383448160EC72E179
:1058600080E090E02FC0FC0116821582E2E6F4E0B1
:1058700065917491CE0101960E94C05ABE016F5F7E
:105880007F4FC8010E94522B64E670E080E090E0F8
:105890000E947B39F80184810E94A53B6AE070E098
:1058A00080E090E00E947B3980E092ECA1E0B0E0E3
:1058B000F80180839183A283B383448160E072EC1A
:1058C00081E090E00E94313B02C080E001C081E0B5
:1058D000A8960FB6F894DEBF0FBECDBFDF91CF9173
:1058E0001F910F910895FC0180EC92E1A0E0B0E0DF
:1058F00080839183A283B38381E08483DF01A55BEE
:10590000BE4F11961C921E9281E090E09683858393
:1059100017821086549682EB92E011969C938E9398
:10592000129688EB92E011969C938E9312968FEBD1
:1059300092E011969C938E93129684EC92E01196CD
:105940009C938E93129682EC92E011969C938E9388
:10595000129687EC92E011969C938E93129681EDAD
:1059600092E08D939C93E359FE4F8BED92E09183EF
:1059700080830895CF93DF93EC016F8361E083E22E
:105980000E94893A8F81882321F0813041F460E0C0
:1059900001C061E083E2DF91CF910C94A43ADF91E2
:1059A000CF910895CF93DF93EC010E94012661E02F
:1059B000CE01DF91CF910C94BA2C2F923F924F924F
:1059C0005F926F927F928F929F92AF92BF92CF928F
:1059D000DF92EF92FF920F931F93CF93DF93CDB798
:1059E000DEB7E4970FB6F894DEBF0FBECDBF3C0123
:1059F0006DA77EA74FA758AB29AB3AAB19A61AA63D
:105A00001BA61CA60E942A391B012C0160E0C301C1
:105A10000E94E42B64E670E080E090E00E947B3915
:105A200061E0C3010E94E42B64E670E080E090E056
:105A30000E947B390E942A39DC01CB01821993092B
:105A4000A409B509803D9740A105B10510F020E0FB
:105A500042C0D30114968C910E94D33B04970CF45E
:105A6000A6C0D30114968C910E94EF3B89A7843283
:105A700009F09DC0F30184810E94EF3B8AA7D30106
:105A800014968C910E94EF3B8BA71CA66FED72E0E1
:105A9000CE0189960E94F35A892B09F486C063EEE1
:105AA00072E0CE0189960E94F35A21E0892B09F019
:105AB0007EC02CAB0E942A392CA96215730584057F
:105AC000950528F40E942A391B012C012CA92223B8
:105AD00009F4B0CF21E030EA2301FBE04F0E511C66
